:100000000C94A7000C94C4000C94DF070C94C4005B
:100010000C94C4000C94C4000C94C4000C94C40050
:100020000C94C4000C94C4000C94C4000C94C40040
:100030000C94C4000C9486030C94C4000C94B50278
:100040000C9442040C94C4000C94C4000C94E60D6F
:100050000C94C40031333037206661696C656400EC
:100060003133303720776F726B696E670079656165
:10007000723A2564006D6F6E3A25640064617465A0
:100080003A256400696E7369646520647364617401
:1000900065006661696C6564003136323420776FC3
:1000A000726B696E670048616900256400496E7370
:1000B000696465205363686564756C6500494E73B7
:1000C000696465205377697463680025640025645A
:1000D00000256400494E736964652044617465635A
:1000E0006867002D2D25782D2D00256400256400DE
:1000F000494E736964652054496D656368670025DE
:100100006400696E736964652074696D65000A0036
:100110002564004641494C555245005355434345DB
:10012000535300496E73696465204E505220256414
:100130000073656E64256400320031003031323363
:10014000343536373839414243444546000011249E
:100150001FBECFE5D8E0DEBFCDBF10E0A0E6B0E027
:10016000E2E9F2E202C005900D92A237B107D9F799
:1001700012E0A2E7B0E001C01D92AD3EB107E1F789
:100180000E94990F0C9448110C9400009093F40075
:100190008093F3000895F3E0660F771F881F991F7F
:1001A000FA95D1F79B01AC01220F331F441F551F55
:1001B000605C7D4B804F9F4F0E9426112150304044
:1001C00029B9232F332720BD089588EB91E00895A6
:1001D00083E692E00895982F809142018823E1F30D
:1001E0009CB91092420108951092BD011092BC0179
:1001F00008958091BC019091BD01892B19F48FEF76
:1002000090E0089580E090E008959093F600809348
:10021000F50008951F93182F8A3031F4E091F5000E
:10022000F091F6008DE00995E091F500F091F6006F
:10023000812F09951F910895CF93DF93EC01892BAE
:1002400021F406C021960E940A0188818823D1F7F3
:10025000DF91CF910895EF92FF920F931F93CF9369
:10026000DF937A010097C9F0EC01680F791FC61778
:10027000D70719F089918823D1F700E010E00AC070
:100280008881882311F0219601C080E20E940A0132
:100290000F5F1F4F0E151F0599F7DF91CF911F912B
:1002A0000F91FF90EF900895CF93DF93EC01892B8E
:1002B00019F407C00E940A01FE0121968491882347
:1002C000C9F7DF91CF9108958AE00E940A0108954D
:1002D000E82FFF27EF70F070E45CFE4FE4918E2F63
:1002E0000E940A0108951F93182F82958F700E9413
:1002F0006801812F0E9468011F9108950F931F9339
:100300008C01892F99270E947301802F0E9473010D
:100310001F910F910895EF92FF920F931F937B010E
:100320008C01AA27BB270E947E01C7010E947E0183
:100330001F910F91FF90EF9008952F923F924F924F
:100340005F926F927F928F929F92AF92BF92CF9265
:10035000DF92EF92FF920F931F93CF93DF93CDB76E
:10036000DEB7A2970FB6F894DEBF0FBECDBF69A36C
:10037000242E2AA327013801442351F017FF08C077
:10038000EE24FF248701E418F5080609170902C0C6
:100390008301720190E0211091E039A0391A3A945A
:1003A00018A2A82EBB24CC24DD24C801B701A601C5
:1003B00095010E942611FB01EF70F070E45CFE4F86
:1003C00064916F8FC801B701A60195010E942611A3
:1003D00079018A018FE1882E912C8C0E9D1E23C0FD
:1003E000C4010197E114F10401051105C1F04C01AC
:1003F000C801B701A60195010E942611FB01EF700B
:10040000F070E45CFE4F6491F4016083C801B701B1
:10041000A60195010E94261179018A0104C04C01B0
:100420008AA1F40180833A94EFEF3E16C9F62220A8
:10043000A9F077FE05C08DE2F40182934F010EC052
:10044000C4010197411451046104710419F04C0175
:100450008BE202C04C0180E2F401808319A105C047
:10046000F40181914F010E940A011150C8F7A29630
:100470000FB6F894DEBF0FBECDBFDF91CF911F91B5
:100480000F91FF90EF90DF90CF90BF90AF909F9033
:100490008F907F906F905F904F903F902F90089536
:1004A000FC018FB7F8947183608353834283178272
:1004B0001682158214828FBF089540E450E063E7EE
:1004C00070E088EB91E00E94500240E450E063EB62
:1004D00070E083E692E00E94500208950E945D025F
:1004E0001092F4001092F30088ED8AB960E875E28A
:1004F00080E090E00E94CB008FEF80934201109249
:10050000D50110926C0210926B0278940895CF93EB
:10051000DF93DC014FB7F894EC018C819D81892B2E
:1005200011F4E0E01CC0FD0186819781ED91FC9102
:100530001197E80FF91FE0810196ED019F838E83EB
:100540002A813B818217930720F0821B930B9F83A4
:100550008E83ED018C819D8101979D838C834FBF9C
:100560008E2F9927DF91CF9108951F920F920FB68A
:100570000F9211242F933F934F935F936F937F9329
:100580008F939F93AF93BF93EF93FF938091D50188
:10059000882371F08091670290916802892B31F075
:1005A00083E692E00E9487028CB905C01092D501C3
:1005B0008FEF80934201FF91EF91BF91AF919F9197
:1005C0008F917F916F915F914F913F912F910F90FC
:1005D0000FBE0F901F901895CF93DF93EC01809181
:1005E000BA019091BB01892B71F08091BC0190916F
:1005F000BD01892B41F088EB91E00E94870288833E
:100600008FEF90E002C080E090E0DF91CF910895FD
:10061000CF93DF93CDB7DEB721970FB6F894DEBF47
:100620000FBECDBFCE0101960E94EC02882319F4C3
:100630008FEF9FEF02C08981992721960FB6F8941A
:10064000DEBF0FBECDBFDF91CF910895FC014FB744
:10065000F8948481958168177907B0F48681978131
:10066000860F971F97838683228133818217930792
:1006700020F0821B930B9783868384819581861B50
:10068000970B9583848302C0158214824FBF08950F
:10069000FC01CB014FB7F8942681378162817381C9
:1006A000820F931F0E94FF100190F081E02DE80F50
:1006B000F91F80814FBF992708951F93CF93DF9330
:1006C000EC01162F4FB7F8942C813D816A817B8114
:1006D00026173707A0F48E819F81820F931F0E94F7
:1006E000FF10E881F981E80FF91F10838C819D814B
:1006F00001969D838C834FBF8FEF90E003C04FBF67
:1007000080E090E0DF91CF911F9108951F920F92AA
:100710000FB60F9211242F933F934F935F936F93D4
:100720007F938F939F93AF93BF93EF93FF936CB19E
:100730008091F3009091F400892B39F0E091F3005F
:10074000F091F400862F09950FC088EB91E00E948C
:100750005D03882349F480916B0290916C020196AD
:1007600090936C0280936B02FF91EF91BF91AF91D8
:100770009F918F917F916F915F914F913F912F91B9
:100780000F900FBE0F901F901895682F83E692E090
:100790000E945D0399270895FC018FB7F8948FBFDD
:1007A0008281938124813581821B930B0895FC0102
:1007B0008FB7F894158214828FBF0895C79ABF9A95
:1007C000BE98BD9ABC9A6C9A6898699A6B986D9815
:1007D0006E9A8EB18FEF8093D4010895779BFECFF0
:1007E0008FB908958FB9779BFECF8FB19927089560
:1007F00033983798089596B1987F982B96B90895B5
:1008000097B19F738295880F880F807C982B97B93A
:100810000895379A359886B1887F866086B981E0D9
:100820000E9400043D98339A1092590278940895DA
:1008300097B1907E8F71982B97B90895349A369A14
:10084000089586B199278074907008951092590286
:1008500097B1907E8F71982B97B9349A369A3699C2
:10086000FECF84B125B199273327322F2227822B3F
:10087000932B08950E9426049695879596958795C3
:10088000992708951F920F920FB60F9211248F93FC
:100890008FEF809359028F910F900FBE0F901F9092
:1008A0001895BC010898099888EE93E00E94FF1003
:1008B000603138F0862F9927409762E070E00E94FF
:1008C000131160B90895A89AA99A909A919A1092D2
:1008D0003E0110923D011092400110923F0184E6CA
:1008E00090E00E94510486B7846086BF1092F700A2
:1008F00086B7816086BF86B7806486BF7894089586
:100900008E7F90E0611191E0892B82B908959093D8
:100910003E0180933D0108959093400180933F01F3
:10092000089586B78F70806A86BF089586B78F70E6
:10093000806D86BF089506B607FEFDCF089583B982
:1009400086B78F70806886BF0895882321F086B7A8
:100950008F70806C03C086B78F70806886BF0895E3
:1009600083B19927089581B199270895982FFA01A5
:1009700086B78E7F86BF86B78F70806A86BF06B6C1
:1009800007FEFDCF9E7F93B986B78F70806886BFC4
:1009900006B607FEFDCF81B1883169F091E00EC047
:1009A000808183B986B78F70806886BF06B607FEE0
:1009B000FDCF31966150662399F790E086B78F702E
:1009C000806D86BF06B604FEFDCF86B7816086BF08
:1009D000892F992708958091F70099270895CF933B
:1009E000DF93CDB7DEB722970FB6F894DEBF0FBE08
:1009F000CDBF8CEA89831A82AE014F5F5F4F62E000
:100A000080E90E94B60422960FB6F894DEBF0FBEAE
:100A1000CDBFDF91CF910895CF93DF93CDB7DEB7F0
:100A200021970FB6F894DEBF0FBECDBF8EEE89833F
:100A3000AE014F5F5F4F61E080E90E94B6042196EE
:100A40000FB6F894DEBF0FBECDBFDF91CF910895F2
:100A5000CF93DF93CDB7DEB721970FB6F894DEBF03
:100A60000FBECDBF1982AE014F5F5F4F61E080E9DD
:100A70000E94B60420E030E0882311F421E030E049
:100A8000C90121960FB6F894DEBF0FBECDBFDF912E
:100A9000CF910895EF92FF920F931F93CF93DF931F
:100AA000042F790186B78E7F86BF86B78F70806AE4
:100AB00086BF06B607FEFDCF80E983B986B78F7083
:100AC000806886BF06B607FEFDCF8AEA83B986B77F
:100AD0008F70806886BF06B607FEFDCF002351F1F8
:100AE00086B78F70806A86BF06B607FEFDCF81E9A4
:100AF00083B986B78F70806886BF06B607FEFDCFC4
:100B0000102FE70109C08FEF0E94A50406B607FE6B
:100B1000FDCF83B1899311501130A9F70150E7013E
:100B2000C00FD11D80E00E94A50406B607FEFDCFD0
:100B300083B1888386B78F70806D86BF06B604FE4A
:100B4000FDCF86B7816086BFDF91CF911F910F9156
:100B5000FF90EF900895CF93DF93CDB7DEB7229744
:100B60000FB6F894DEBF0FBECDBF9E012F5F3F4F83
:100B700042E061E080E90E944A0589819927982F27
:100B800088272A813327822B932B22960FB6F8943D
:100B9000DEBF0FBECDBFDF91CF9108950E946304E9
:100BA00084E690E00E9451040895CF93DF93CDB77F
:100BB000DEB721970FB6F894DEBF0FBECDBF198206
:100BC000AE014F5F5F4F61E080ED0E94B60420E010
:100BD00030E0882311F421E030E0C90121960FB6FE
:100BE000F894DEBF0FBECDBFDF91CF910895CF93B4
:100BF000DF93CDB7DEB724970FB6F894DEBF0FBEF4
:100C0000CDBF19824A836B838C83AE014F5F5F4FE8
:100C100064E080ED0E94B60424960FB6F894DEBF1F
:100C20000FBECDBFDF91CF910895CF93DF93CDB7A6
:100C3000DEB724970FB6F894DEBF0FBECDBF94E0A9
:100C400099838A836B834C83AE014F5F5F4F64E06F
:100C500080ED0E94B60424960FB6F894DEBF0FBE56
:100C6000CDBFDF91CF910895CF92DF92FF920F9386
:100C70001F93CF93DF93982FFA01F22E680186B766
:100C80008E7F86BF86B78F70806A86BF06B607FEE6
:100C9000FDCF6623A9F0892F8E7F83B986B78F7029
:100CA000806886BF06B607FEFDCF819183B986B7FF
:100CB0008F70806886BF06B607FEFDCF6150A9F72A
:100CC000FF2051F186B78F70806A86BF06B607FE97
:100CD000FDCF916093B986B78F70806886BF06B6E6
:100CE00007FEFDCF1F2DE60109C08FEF0E94A5046E
:100CF00006B607FEFDCF83B1899311501130A9F7D5
:100D0000FA94E601CF0DD11D80E00E94A50406B63D
:100D100007FEFDCF83B1888386B78F70806D86BF55
:100D200006B604FEFDCF86B7816086BFDF91CF9106
:100D30001F910F91FF90DF90CF9008950F931F9315
:100D4000CF93DF93CDB7DEB722970FB6F894DEBF0F
:100D50000FBECDBF8A8319828E010F5F1F4F21E026
:100D6000AE014E5F5F4F61E080ED0E9434068981E5
:100D7000992722960FB6F894DEBF0FBECDBFDF9144
:100D8000CF911F910F910895C4988FB9779BFECF93
:100D90008FB1872F99278FB9779BFECF8FB16FB90E
:100DA000779BFECF8FB1C49A08959C01FB01C49834
:100DB00080688FB9779BFECF8FB136952795822FAC
:100DC000807C8FB9779BFECF05C080818FB9779BE0
:100DD000FECF31968FB1415050408FEF4F3F5807B3
:100DE000A1F7C49A0895FC01C4988EE38FB9779B4C
:100DF000FECF05C080818FB9779BFECF31968FB132
:100E0000615070408FEF6F3F7807A1F7C49A089543
:100E100099279C01265A3E4B0B97880F991F880FE4
:100E2000991F820F931FBC0188E10E94C406089598
:100E3000C4988FB9779BFECF8FB1C49A0895C49898
:100E40001FB8779BFECF8FB1C49A8FB199270895B1
:100E5000FC01C4988FE78FB9779BFECF8FB105C097
:100E60001FB8779BFECF8FB18193615070408FEF99
:100E70006F3F7807A9F7C49A08959C01C4988FE73B
:100E80008FB9779BFECF03C01FB8779BFECF8FB182
:100E9000215030408FEF2F3F3807B1F7C49A0895A3
:100EA0000F931F93CF93DF93CDB7DEB723970FB682
:100EB000F894DEBF0FBECDBF8C018399FECF86991B
:100EC000FCCF89E00E941807F8948091C80188231C
:100ED00019F483E00E9418070E941F0781FFFCCFCE
:100EE000F8018481855F898361E070E0CE0101961D
:100EF0000E94F306F8018781882319F081E698E8BB
:100F000002C081E498E89B838A8362E070E0CE01AE
:100F100002960E94F30661E070E082EC91E00E948C
:100F2000F30662E070E084EC91E00E94F30662E078
:100F300070E0C80102960E94F30662E070E086EC61
:100F400091E00E94F306F8016481772785819681FC
:100F50000E94F30685E00E9418070E941F0783FF86
:100F6000F9CF869BFECF7894F8018781882311F40E
:100F70001FEF0AC01092C3018699FECF88EA91E65E
:100F80000197F1F71091C301F8948091C80188236B
:100F900019F486E00E94180778948091C2018F5F4F
:100FA0008093C201812F992723960FB6F894DEBF54
:100FB0000FBECDBFDF91CF911F910F9108951F926A
:100FC0000F920FB60F9211242F933F934F935F937D
:100FD0006F937F938F939F93AF93BF93EF93FF9301
:100FE000CF93DF93CDB7DEB72597DEBFCDBF839B11
:100FF00009C0849907C088E00E94180788E00E9411
:10100000180787C061E070E0CE0101960E942807B2
:1010100089818F778983853010F4992743C0E091C7
:10102000C001F091C1018B50858362E070E0CE0178
:1010300004960E942807E091C001F091C1018C81C3
:101040009D8125E0969587952A95E1F781708087A7
:101050008091C0019091C10161E070E00E94280779
:1010600029812530D1F48C819D810297C1F4E091D2
:10107000C001F091C1019091C2018081891779F47A
:1010800062E070E0CE0102960E9428078B8187FF04
:1010900040C08FEF8093C3013CC02B3030F4822FCF
:1010A000992703970E943D0734C084E090E00E9496
:1010B0003D078091C0019091C10162E070E001960E
:1010C0000E942807E091C001F091C101A091C001E8
:1010D000B091C10165817727FD01868197810E94CA
:1010E000280762E070E0CE0102960E942807E09196
:1010F000C001F091C1018A8181878C819D818F7DA2
:101100008154984831F48B8187FF03C081E080933C
:1011100072002596F894DEBFCDBFDF91CF91FF918D
:10112000EF91BF91AF919F918F917F916F915F915F
:101130004F913F912F910F900FBE0F901F901895D8
:101140008FEF8093C80183E00E94180788E00E9417
:1011500018078BB780688BBF08951092C80186E08E
:101160000E9418078BB78F778BBF089511BA81B390
:1011700084BB84B387BB87B38ABBB89ABB9A8A9A6D
:1011800081B38C6F81BB82B38C6782BB929884B32E
:10119000837084BB85B3836085BB08959F92AF92B3
:1011A000BF92CF92DF92EF92FF920F931F93CF9354
:1011B000DF93CDB7DEB722970FB6F894DEBF0FBE30
:1011C000CDBF9888C988DA88CE0143969A838983EF
:1011D00005C0882309F475C00E940A0196012F5F9B
:1011E0003F4F992021F0F6016901849103C0F60177
:1011F00080816901853269F72F5F3F4F992021F087
:10120000F6016901849103C0F60180816901843689
:1012100009F44DC0883751F08336F1F6E981FA813F
:101220003296FA83E98332978081D6CFE981FA81B9
:101230003296FA83E98312910291E12C60E1F62E55
:1012400050E1A52EB12C1EC0109501951F4F8DE2C7
:101250000E940A0140E1E42E47E2F42E20E030E053
:101260000BC0C7016AE070E00E94FF107B012F5F96
:101270003F4F2430310519F00E151F0590F33AE069
:10128000A32EB12CC801B7010E94FF10CB010E9410
:101290006801C801B7010E94FF108C01C701B501A8
:1012A0000E94FF107B01672B09F498CFEBCFE981F7
:1012B000FA813296FA83E98312910291112354F64E
:1012C000C3CF80E090E022960FB6F894DEBF0FBE49
:1012D000CDBFDF91CF911F910F91FF90EF90DF90E5
:1012E000CF90BF90AF909F9008958F929F92AF92B2
:1012F000BF92CF92DF92EF92FF920F931F93CF9303
:10130000DF93CDB7DEB7C058D0400FB6F894DEBF3C
:101310000FBECDBF9091480120E0AE014F5F5F4FFF
:101320000AC0E22FFF27DA01AE0FBF1FED5BFE4FB1
:1013300086818C932F5F2917A1F7892F99279F9377
:101340008F9380E191E09F938F9381E08F930E9430
:10135000CE08882499240F900F900F900F900F9033
:1013600002C2E82CFF245E010894A11CB11CAE0C43
:10137000BF1CF50110818EE091E09F938F9371E087
:10138000C72ECF920E94CE08812F0E9473010F902A
:101390000F900F90153009F492C0163078F4123087
:1013A00061F1133020F4113009F0DCC11AC01330A0
:1013B00009F43FC0143009F0D5C151C01A3A09F4FC
:1013C0002DC11B3A38F4163009F498C0183009F0D2
:1013D000C9C1E5C01B3A09F453C11F3F09F0C2C19E
:1013E000A3C10E94AB05E92DFF27ED5BFE4F292F1E
:1013F000332726838783F2E030C080E00E943A04DE
:10140000E92DFF27ED5BFE4F2FEF30E0281B310960
:1014100084E690E0AC01249FC001259F900D349F8D
:10142000900D11246FEF70E00E9413116683939466
:1014300099C1092D112784E00E949E060D5B1E4F65
:10144000F801868385E00E949E06F801878386E086
:101450000E949E06F8018087F3E09F0E83C182E020
:1014600091E09F938F93CF920E94CE08E92CFF24A6
:1014700081E00E949E0623E431E0E20EF31EF701B4
:10148000868382E00E949E06182F99279F938F9350
:101490008FEF90E09F938F93CF920E94CE08812F81
:1014A0008F71F70187831295169517701170108749
:1014B000F2E09F0E2DB73EB7285F3F4FA9C0892DA0
:1014C000992760E670E0875B9E4F0E94F81036E037
:1014D000930E892D992766E670E0875B9E4F0E94E8
:1014E000F81046E0940E892D99276CE670E0875B32
:1014F0009E4F0E94F81056E0950E34C180EF90E0A8
:101500009F938F93CF920E94CE08F501D1808D2DAD
:1015100099279F938F938DEE90E09F938F93CF9217
:101520000E94CE08F501E2800E2D11271F930F9324
:101530008AEE90E09F938F93CF920E94CE08F501A0
:10154000F3800F7510708F2D992755E0880F991F24
:101550005A95E1F7080F191F1F930F9383EE90E040
:101560009F938F93CF920E94CE08FFE5EF22FF0C4E
:10157000FF0CFF0CFF0CFF0CEF0C40E06D2D8E2DCF
:1015800080640E94F70523E0820E4DB75EB74E5E81
:101590005F4F0FB6F8945EBF0FBE4DBFE3C084ED42
:1015A00090E09F938F93CF920E94CE08F501F18037
:1015B0008F2D99279F938F9381ED90E09F938F9329
:1015C000CF920E94CE08F5010281802F99279F9328
:1015D0008F938EEC90E09F938F93CF920E94CE08D2
:1015E000F5011381812F99279F938F938BEC90E0C6
:1015F0009F938F93CF920E94CE08412F602F8F2D03
:101600000E941506F3E08F0E2DB73EB72E5E3F4FBA
:101610000FB6F8943EBF0FBE2DBFA4C08DEB90E077
:101620009F938F93CF920E94CE080F900F900F90B0
:10163000809142018823E1F385E58CB91092420143
:10164000809142018823E1F38AEA8CB91092420129
:10165000FE01EE0DFF1D9281809142018823E1F38E
:101660009CB910924201EC0EFD1EF701938180910E
:1016700042018823E1F39CB910924201F2E071C06B
:101680008DEA90E09F938F93CF920E94CE08F50150
:10169000818199279C0144E0369527954A95E1F789
:1016A00020935A02228133278F709070880F991FE0
:1016B000880F991FA90116E0569547951A95E1F7ED
:1016C000842B8093D601B5E036952795BA95E1F73E
:1016D000217020935702838199279C01A4E03695BD
:1016E0002795AA95E1F720934101248133278F7034
:1016F0009070880F991F880F991FA901E6E05695F1
:101700004795EA95E1F7842B8093C90175E03695FA
:1017100027957A95E1F7217020935802F4E08F0E17
:101720000F900F900F901EC08E010E5F1F4FF8019B
:1017300081918F0199279F938F938AEA90E09F93DD
:101740008F9381E08F930E94CE080F900F900F909F
:101750000F900F90CE018C599F4F0817190739F73A
:10176000F4E68F0E839480914801881608F4F9CD31
:10177000939490924801C058DF4F0FB6F894DEBFA3
:101780000FBECDBFDF91CF911F910F91FF90EF90D2
:10179000DF90CF90BF90AF909F908F9008950F9360
:1017A0001F938093430170934501609344015093CC
:1017B000470140934601209348012A5F20935F022E
:1017C000265010935E0200935D0280936D02609339
:1017D0006E02672F772760936F0240937002852F08
:1017E000992780937102209372025F934F9381E354
:1017F00091E09F938F9381E08F930E94CE08809118
:101800004801282F33272A5F3F4F96E00F900F9013
:101810000F900F900F9008C0FD01ED5BFE4F80818F
:10182000A359BD4F8C939F5FA92FBB27A217B30766
:101830009CF310E009C01F5F84ED90E30197F1F77E
:10184000163011F480E007C08BE592E00E9450074B
:10185000882389F381E099271F910F910895FF92C2
:101860000F931F93E091C001F091C1010680F781B1
:10187000E02D808180934301E091C001F091C1018E
:101880000680F781E02D2181332730934501209395
:101890004401E091C001F091C1010680F781E02D83
:1018A00082819927982F8827282B392B309345013F
:1018B00020934401E091C001F091C1010680F781BD
:1018C000E02D238133273093470120934601E09197
:1018D000C001F091C1010680F781E02D8481992734
:1018E000982F8827282B392B3093470120934601C6
:1018F000E091C001F091C1010680F781E02D858162
:101900008093480196E010C0E091C001F091C101C0
:10191000A92FBB270680F781E02DEA0FFB1F8081EE
:10192000AD5BBE4F8C939F5FE091C001F091C10110
:101930008581981748F380914601909147019F93C4
:101940008F9383E291E09F938F93A1E0FA2EFF9211
:101950000E94CE0840914601509147010F900F9090
:101960000F900F900F9082E145345807A1F40E9428
:10197000750988EA91E60197F1F740914401509189
:10198000450102E312E12091480165E472E182E041
:101990000E94CF0B2CC060914401709145018A01D7
:1019A00020914801809143010E94CF0B882319F0B8
:1019B0008BE191E014C08EE48093490181E480932F
:1019C0004A0140914401509145018A01209148010A
:1019D00065E472E18FEF0E94CF0B83E191E09F936A
:1019E0008F93FF920E94CE080F900F900F901F913F
:1019F0000F91FF900895FF920F931F93CF93DF9362
:101A0000CDB7DEB724970FB6F894DEBF0FBECDBFBB
:101A10008C01F62E5A8349833C832B8385B78C60D7
:101A200085BF8AB780688ABF8BB780688BBFF89400
:101A30000E94DE03BC9AC49A8C988B988D988E98DD
:101A4000949A939A959A969A60E070E080E10E9449
:101A5000C40660E078EF80E10E94C40681E00E9445
:101A600018076FE077EA84E10E94C40662EF7AE02B
:101A700081E10E94C40660E075E082E10E94C40634
:101A800060E070E08EE20E94C40660E470E08CE1E9
:101A90000E94C40664EC71E089E10E94C4066FEF05
:101AA00070EA85E10E94C4068F2D0E940807789491
:101AB0001093C1010093C00189819A819093C5015F
:101AC0008093C4018B819C819093C7018093C60150
:101AD0001092C2011092C8018AE391E09F938F9304
:101AE00081E08F930E94CE080F900F900F900E947C
:101AF0001F0786FFFCCF88E391E09F938F9381E0DF
:101B00008F930E94CE08F89442E050E0BE016D5FD2
:101B10007F4F8AE691E00E94D50642E050E0BE0188
:101B20006F5F7F4F88E691E00E94D50678940F9012
:101B30000F900F9024960FB6F894DEBF0FBECDBF66
:101B4000DF91CF911F910F91FF9008950E94B608E9
:101B5000BB9AC3988AEF90E0FC013197F1F7929815
:101B6000FC013197F1F7C398FC013197F1F7929A94
:101B7000FC013197F1F7C39A0197F1F70E946E02C9
:101B800060E679E080E090E00E94CB008BEE90E090
:101B90009093F6008093F50025E432E14DEC5BEA8A
:101BA00065E18AEC91E00E94FB0C08958FEF809331
:101BB000D50183E692E00E948702982F809142012E
:101BC0008823E1F39CB91092420108951F920F926D
:101BD0000FB60F9211242F933F934F935F936F9300
:101BE0007F938F939F93AF93BF93EF93FF9381B1B5
:101BF000887F803609F49FC0813670F5883209F4F9
:101C00005FC0893298F4803109F457C0813138F4CB
:101C1000882309F4E2C0883009F0E5C04EC088315D
:101C200009F44EC0803209F0DEC0D7C0803409F418
:101C300077C0813438F4803309F4CFC0883309F099
:101C4000D2C05FC0803509F460C0883509F44DC04A
:101C5000883409F0C8C0C1C0883909F481C0893905
:101C6000B0F4883709F467C0893738F4883609F446
:101C700062C0803709F0B7C05EC0883809F470C010
:101C8000803909F45EC0803809F0ADC05AC0803B8D
:101C900009F47AC0813B38F4803A09F465C0883A87
:101CA00009F0A1C071C0803C09F493C0883C09F4DC
:101CB00090C0883B09F097C078C08091F8000FC0B1
:101CC0009091190180911A01981708F086C0E92FA8
:101CD000FF27E750FF4F80819F5F9093190183B9E1
:101CE00086B78F70806886BF7EC080913B0193B1BC
:101CF000E82FFF27E55EFE4F90838F5F80933B01C7
:101D00006CC086B78F7080686BC080913B0193B1C7
:101D1000E82FFF27E55EFE4F90838F5F80933B01A6
:101D200020913B01332780913C0199270197281787
:101D30003907A4F015C085E08093F70010923B01AD
:101D400044C080913B0193B1E82FFF27E55EFE4F31
:101D500090838F5F80933B01803210F48FEF01C03E
:101D600080E00E94A5043FC086B78F70806C86BF5C
:101D7000E0913D01F0913E01309799F16BE171E006
:101D800080913B0109952DC084E08093F700E0919C
:101D90003F01F0914001309731F069EF70E080E24F
:101DA000099580931A011092190190911901E92F58
:101DB000FF27E750FF4F808183B99F5F9093190100
:101DC00080911A01981708F08BCF86B78F70806CBE
:101DD0008ACF86B78F70806C03C086B78F70806D96
:101DE00086BF1092F700FF91EF91BF91AF919F9145
:101DF0008F917F916F915F914F913F912F910F90B4
:101E00000FBE0F901F901895982FDA018091F70060
:101E10008823E1F783E08093F70091609093F800C6
:101E200010923B0160933C0186B78F70806A86BF39
:101E30008091F7008823E1F790E007C0E92FFF27A2
:101E4000E55EFE4F80818D939F5F9617B9F70895E9
:101E5000982FDA018091F7008823E1F782E08093E0
:101E6000F7009E7F9093F80090E007C08D91E92FD6
:101E7000FF27E750FF4F80839F5F9617B9F71092B7
:101E8000190160931A0186B78F70806A86BF089522
:101E90001F93CF93DF93982F162FEA0186B78E7F7B
:101EA00086BF86B78F70806A86BF06B607FEFDCFF5
:101EB000916093B986B78F70806886BF06B607FEBB
:101EC000FDCF81B1803459F091E014C08FEF0E94B2
:101ED000A50406B607FEFDCF83B1899311501230D9
:101EE000A8F780E00E94A50406B607FEFDCF83B1E7
:101EF000888390E086B78F70806D86BF86B78160DB
:101F000086BF892F9927DF91CF911F9108959C015A
:101F1000892F99278FB9779BFECF8FB12FB9779BE8
:101F2000FECF2FB19927982F88273327822B932B09
:101F300008950F931F93CF93DF930E94A60D1FEF79
:101F400014BBA59A86EA90E09F938F9301E00F93CC
:101F50000E94CE0815BB0E94CE050E9409040E9473
:101F600028050F900F900F90882349F00E94EF04EE
:101F70000E940C050E94AB0589E990E002C082E94D
:101F800090E09F938F930F930E94CE080F900F9035
:101F90000F900E94D505882309F449C040E068E508
:101FA00081E50E94F70548E063E083E20E941506A0
:101FB00084E890E09F938F9311E01F930E94CE08D6
:101FC00080E00E949E0699279F938F938CE790E074
:101FD0009F938F931F930E94CE0881E00E949E06DC
:101FE00099279F938F9385E790E09F938F931F93FB
:101FF0000E94CE0882E00E949E0699279F938F93AD
:102000008DE690E09F938F931F930E94CE0880E609
:1020100090E09F938F931F930E94CE088DB79EB739
:1020200045960FB6F8949EBF0FBE8DBF0BC084E5DA
:1020300090E09F938F9381E08F930E94CE080F9042
:102040000F900F900E94090486B1887F876086B93F
:1020500081E00E94000485E080935F028FEF80930F
:1020600062028DE692E0909361028093600287EDB8
:1020700091E09093D1018093D0010E94A0081ABAF8
:102080001BBA86B1887F876086B981E00E94000410
:10209000AD9AC0E0D0E0209709F08CC081E00E94AA
:1020A0009E06182F82E00E949E06482F55279A010F
:1020B00095E0369527959A95E1F7E22FE170212F6B
:1020C000332704E0369527950A95E1F7B901B3E087
:1020D000660F771FBA95E1F7220F331F260F371FC0
:1020E0001F70120F40715070F4E055954795FA95A6
:1020F000E1F79A0173E0220F331F7A95E1F7440F5D
:10210000551F420F531F982F9F70940F8091D60137
:10211000811729F580915A02891709F58091570294
:10212000E817E9F4809142018823E1F385E58CB951
:1021300010924201809142018823E1F38AEA8CB92E
:1021400010924201809142018823E1F381E08CB931
:1021500010924201809142018823E1F327C08091CF
:10216000C901811739F580914101891719F58091CD
:102170005802E817F9F4809142018823E1F385E5DC
:102180008CB910924201809142018823E1F38AEADE
:102190008CB910924201809142018823E1F31CB86E
:1021A00010924201809142018823E1F38FEF8CB9B4
:1021B0001092420180917200813021F40E942F0C14
:1021C0001092720021969FEFCF3FD90709F063CF9D
:1021D00060CF0E946E028BEE90E09093F6008093A9
:1021E000F50060E679E080E090E00E94CB00089581
:1021F000FB01DC0101900D920020E1F70895AA1B7C
:10220000BB1B51E107C0AA1FBB1FA617B70710F0E1
:10221000A61BB70B881F991F5A95A9F78095909513
:10222000BC01CD01089597FB092E07260AD077FD42
:1022300004D0E5DF06D000201AF4709561957F4F39
:102240000895F6F7909581959F4F0895A1E21A2E73
:10225000AA1BBB1BFD010DC0AA1FBB1FEE1FFF1F4A
:10226000A217B307E407F50720F0A21BB30BE40B9A
:10227000F50B661F771F881F991F1A9469F76095E1
:102280007095809590959B01AC01BD01CF0108959B
:02229000FFCF7E
:10229200524F4F4D3100524F4F4D3200524F4F4D22
:0222A200330007
:00000001FF
