:100000000C9471000C948E000C94B9070C948E0023
:100010000C948E000C948E000C948E000C948E0028
:100020000C948E000C948E000C948E000C94430360
:100030000C948E000C947D020C940F040C948E0092
:100040000C948E000C94CB0C0C948E000C948E00AF
:100050000C948E0072657475726E656400496E74DE
:10006000657272757074656400496D6D656469616F
:1000700074652044657374696E6174696F6E2045A0
:1000800072726F720053554343455353002D2D2D0B
:1000900068656C6C6F2D2D2D2020004641494C5514
:1000A0005245005355434345535300696E73696489
:1000B0006520696664656600496E73696465204EF3
:1000C00050522025640073656E642564003200314F
:1000D00000303132333435363738394142434445C4
:1000E000460011241FBECFE5D4E0DEBFCDBF10E037
:1000F000A0E6B0E0EEE2FDE102C005900D92A2376D
:10010000B107D9F712E0A2E7B0E001C01D92A73E07
:10011000B107E1F70E945A0B0C94960E0C94000064
:1001200083E790E09093B8018093B70120E430E03A
:100130003093BA012093B9011092BE011092BD0113
:100140001092BC011092BB0183EB90E090935E0291
:1001500080935D023093600220935F0210926402EC
:1001600010926302109262021092610208959093BD
:10017000F4008093F3000895F3E0660F771F881F63
:10018000991FFA95D1F79B01AC01220F331F441F31
:10019000551F605C7D4B804F9F4F0E94740E215015
:1001A000304029B9232F332720BD08950E949000A5
:1001B0001092F4001092F30088ED8AB960E875E2BD
:1001C00080E090E00E94BC008FEF8093410110928C
:1001D000D30110926602109265027894089587EB1D
:1001E00091E008958DE592E00895982F8091410166
:1001F0008823E1F39CB91092410108951092BC014B
:100200001092BB0108958091BB019091BC01892B94
:1002100019F48FEF90E0089580E090E008959093B6
:10022000F6008093F5000895E091F500F091F60056
:1002300009950895CF93DF93EC01892B21F406C033
:1002400021960E94140188818823D1F7DF91CF91F4
:100250000895EF92FF920F931F93CF93DF937A014C
:100260000097C9F0EC01680F791FC617D70719F07E
:1002700089918823D1F700E010E00AC088818823A3
:1002800011F0219601C080E20E9414010F5F1F4F00
:100290000E151F0599F7DF91CF911F910F91FF90D8
:1002A000EF900895CF93DF93EC01892B19F407C0E9
:1002B0000E941401FE01219684918823C9F7DF91E1
:1002C000CF9108958DE00E9414018AE00E941401EC
:1002D0000895E82FFF27EF70F070EF52FF4FE49181
:1002E0008E2F0E94140108951F93182F82958F70EE
:1002F0000E946901812F0E9469011F9108950F9347
:100300001F938C01892F99270E947401802F0E94CE
:1003100074011F910F910895EF92FF920F931F9315
:100320007B018C01AA27BB270E947F01C7010E9485
:100330007F011F910F91FF90EF9008952F923F92B0
:100340004F925F926F927F928F929F92AF92BF92E5
:10035000CF92DF92EF92FF920F931F93CF93DF9391
:10036000CDB7DEB7A2970FB6F894DEBF0FBECDBFF4
:1003700069A3242E2AA327013801442351F017FF33
:1003800008C0EE24FF248701E418F50806091709C0
:1003900002C08301720190E0211091E039A0391A66
:1003A0003A9418A2A82EBB24CC24DD24C801B7019E
:1003B000A60195010E94740EFB01EF52FF4F64915C
:1003C0006F8FC801B701A60195010E94740E7901D3
:1003D0008A018FE1882E912C8C0E9D1E21C0C401B4
:1003E0000197E114F10401051105B1F04C01C801B8
:1003F000B701A60195010E94740EFB01EF52FF4F59
:100400006491F4016083C801B701A60195010E94BF
:10041000740E79018A0104C04C018AA1F401808321
:100420003A94EFEF3E16D9F62220A9F077FE05C0E8
:100430008DE2F40182934F010EC0C4010197411473
:1004400051046104710419F04C018BE202C04C01AB
:1004500080E2F401808319A105C0F40181914F016C
:100460000E9414011150C8F7A2960FB6F894DEBF8F
:100470000FBECDBFDF91CF911F910F91FF90EF90F5
:10048000DF90CF90BF90AF909F908F907F906F90B4
:100490005F904F903F902F900895FC01718360838F
:1004A0005383428317821682158214820895CF9354
:1004B000DF93EC018C819D81892B11F4E0E018C061
:1004C0008E819F81E881F981E80FF91FE081019613
:1004D0009F838E836A817B818617970720F00E9415
:1004E0004D0E9F838E838C819D8101979D838C838C
:1004F0008E2F9927DF91CF9108951F920F920FB6FB
:100500000F9211242F933F934F935F936F937F9399
:100510008F939F93AF93BF93EF93FF938091D301FA
:10052000882371F08091610290916202892B31F0F1
:100530008DE592E00E9457028CB905C01092D3015C
:100540008FEF80934101FF91EF91BF91AF919F9108
:100550008F917F916F915F914F913F912F910F906C
:100560000FBE0F901F901895CF93DF93EC018091F1
:10057000B9019091BA01892B71F08091BB019091E2
:10058000BC01892B41F087EB91E00E9457028883E0
:100590008FEF90E002C080E090E0DF91CF9108956E
:1005A000CF93DF93CDB7DEB721970FB6F894DEBFB8
:1005B0000FBECDBFCE0101960E94B402882319F46C
:1005C0008FEF9FEF02C08981992721960FB6F8948B
:1005D000DEBF0FBECDBFDF91CF910895FC019B011F
:1005E0008481958168177907B0F486819781860F99
:1005F000971F97838683628173818617970720F000
:100600000E944D0E9783868384819581821B930B74
:10061000958384830895158214820895FC01CB018B
:100620002681378162817381820F931F0E944D0E54
:100630000190F081E02DE80FF91F8081992708953E
:10064000CF93DF93EC01462F2C813D816A817B8122
:100650002617370718F080E090E012C08E819F8146
:10066000820F931F0E944D0EE881F981E80FF91F58
:1006700040838C819D8101969D838C838FEF90E0D8
:10068000DF91CF9108951F920F920FB60F92112410
:100690002F933F934F935F936F937F938F939F938A
:1006A000AF93BF93EF93FF936CB18091F300909160
:1006B000F400892B39F0E091F300F091F400862FDB
:1006C00009950FC087EB91E00E942003882349F42D
:1006D00080916502909166020196909366028093E4
:1006E0006502FF91EF91BF91AF919F918F917F91A3
:1006F0006F915F914F913F912F910F900FBE0F908F
:100700001F901895682F8DE592E00E94200399278D
:100710000895FC0140E050E024813581828193817D
:100720002817390710F441E050E0CA010895FC0190
:10073000158214820895C79ABF9ABE98BD9ABC9A32
:100740006C9A6898699A6B986D986E9A8EB18FEFD3
:100750008093D2010895779BFECF1092D2018FB97A
:1007600008951092D2018FB9779BFECF8FEF8093BF
:10077000D2018FB199270895EF92FF920F931F93A3
:100780007C01892F99270E94B103082F1127102F70
:1007900000278E2D0E94B1039927802B912B1F914A
:1007A0000F91FF90EF90089533983798089596B180
:1007B000987F982B96B9089597B19F738295880F6B
:1007C000880F807C982B97B9089597B1907E8F7190
:1007D000982B97B90895349A369A089586B1992737
:1007E0008074907008951092540297B1907E8F712A
:1007F000982B97B9349A369A3699FECF84B125B1A1
:1008000099273327322F2227822B932B08950E947A
:10081000F3039695879596958795992708951F9246
:100820000F920FB60F9211248F938FEF8093540283
:100830008F910F900FBE0F901F901895BC010898D4
:10084000099888EE93E00E944D0E603138F0862FB3
:100850009927409762E070E00E94610E60B90895A8
:10086000A89AA99A909A919A10923E0110923D01ED
:100870001092400110923F0184E690E00E941E0415
:1008800086B7846086BF1092F70086B7816086BF06
:1008900086B7806486BF789408958E7F90E061115A
:1008A00091E0892B82B9089590933E0180933D0198
:1008B00008959093400180933F01089586B78F700B
:1008C000806A86BF089586B78F70806D86BF089551
:1008D00006B607FEFDCF089583B986B78F7080688E
:1008E00086BF0895882321F086B78F70806C03C07F
:1008F00086B78F70806886BF089583B19927089561
:1009000081B199270895982FFA0186B78E7F86BF07
:1009100086B78F70806A86BF06B607FEFDCF9E7FC2
:1009200093B986B78F70806886BF06B607FEFDCF85
:1009300081B1883169F091E00EC0808183B986B7BA
:100940008F70806886BF06B607FEFDCF3196615076
:10095000662399F790E086B78F70806D86BF06B6E4
:1009600004FEFDCF86B7816086BF892F9927089541
:100970008091F70099270895CF93DF93CDB7DEB725
:1009800022970FB6F894DEBF0FBECDBF8CEA8983E5
:100990001A82AE014F5F5F4F62E080E90E948304DC
:1009A00022960FB6F894DEBF0FBECDBFDF91CF9178
:1009B0000895CF93DF93CDB7DEB721970FB6F894A4
:1009C000DEBF0FBECDBF8EEE8983AE014F5F5F4F9E
:1009D00061E080E90E94830421960FB6F894DEBF9F
:1009E0000FBECDBFDF91CF910895CF93DF93CDB7E9
:1009F000DEB721970FB6F894DEBF0FBECDBF1982C8
:100A0000AE014F5F5F4F61E080E90E94830420E008
:100A100030E0882311F421E030E0C90121960FB6BF
:100A2000F894DEBF0FBECDBFDF91CF910895EF9256
:100A3000FF920F931F93CF93DF93042F790186B713
:100A40008E7F86BF86B78F70806A86BF06B607FE28
:100A5000FDCF80E983B986B78F70806886BF06B600
:100A600007FEFDCF8AEA83B986B78F70806886BF9C
:100A700006B607FEFDCF002351F186B78F70806A5E
:100A800086BF06B607FEFDCF81E983B986B78F70B2
:100A9000806886BF06B607FEFDCF102FE70109C0AC
:100AA0008FEF0E94720406B607FEFDCF83B18993D3
:100AB00011501130A9F70150E701C00FD11D80E09E
:100AC0000E94720406B607FEFDCF83B1888386B705
:100AD0008F70806D86BF06B604FEFDCF86B781603D
:100AE00086BFDF91CF911F910F91FF90EF900895F6
:100AF000CF93DF93CDB7DEB722970FB6F894DEBF62
:100B00000FBECDBF9E012F5F3F4F42E061E080E905
:100B10000E94170589819927982F88272A813327D2
:100B2000822B932B22960FB6F894DEBF0FBECDBF5B
:100B3000DF91CF9108950E94300484E690E00E94F6
:100B40001E040895CF93DF93CDB7DEB721970FB67C
:100B5000F894DEBF0FBECDBF1982AE014F5F5F4F6D
:100B600061E080ED0E94830420E030E0882311F4EE
:100B700021E030E0C90121960FB6F894DEBF0FBE28
:100B8000CDBFDF91CF910895CF93DF93CDB7DEB77F
:100B900024970FB6F894DEBF0FBECDBF19824A83EB
:100BA0006B838C83AE014F5F5F4F64E080ED0E94EA
:100BB000830424960FB6F894DEBF0FBECDBFDF913D
:100BC000CF910895CF93DF93CDB7DEB724970FB6BB
:100BD000F894DEBF0FBECDBF94E099838A836B8308
:100BE0004C83AE014F5F5F4F64E080ED0E94830451
:100BF00024960FB6F894DEBF0FBECDBFDF91CF9124
:100C00000895CF92DF92FF920F931F93CF93DF93BC
:100C1000982FFA01F22E680186B78E7F86BF86B7BD
:100C20008F70806A86BF06B607FEFDCF6623A9F0E7
:100C3000892F8E7F83B986B78F70806886BF06B68E
:100C400007FEFDCF819183B986B78F70806886BF1C
:100C500006B607FEFDCF6150A9F7FF2051F186B718
:100C60008F70806A86BF06B607FEFDCF916093B98C
:100C700086B78F70806886BF06B607FEFDCF1F2D32
:100C8000E60109C08FEF0E94720406B607FEFDCF91
:100C900083B1899311501130A9F7FA94E601CF0D71
:100CA000D11D80E00E94720406B607FEFDCF83B11D
:100CB000888386B78F70806D86BF06B604FEFDCF31
:100CC00086B7816086BFDF91CF911F910F91FF9012
:100CD000DF90CF9008950F931F93CF93DF93CDB7FD
:100CE000DEB722970FB6F894DEBF0FBECDBF8A8362
:100CF00019828E010F5F1F4F21E0AE014E5F5F4FE3
:100D000061E080ED0E9401068981992722960FB645
:100D1000F894DEBF0FBECDBFDF91CF911F910F9131
:100D200008950F931F938B01C4980E94B103812FE4
:100D300099270E94B103802F0E94B103C49A1F918A
:100D40000F910895EF92FF920F931F93CF93DF932C
:100D50008C017B01EA01C49880680E94B10316955A
:100D60000795802F807C03C0F70181917F010E944D
:100D7000B1032197FFEFCF3FDF07B1F7C49ADF91AF
:100D8000CF911F910F91FF90EF9008950F931F93B4
:100D9000CF93DF938C01EB01C4988EE303C0F8017D
:100DA00081918F010E94B1032197FFEFCF3FDF07B1
:100DB000B1F7C49ADF91CF911F910F9108959927B0
:100DC0009C01265A3E4B0B97880F991F880F991F3D
:100DD000820F931FBC0188E10E9491060895C49878
:100DE0000E94B103C49A0895C49880E00E94B103A0
:100DF000C49A8FB1992708950F931F93CF93DF93D0
:100E00008C01EB01C4988FE70E94B10306C080E01B
:100E10000E94B103F80181938F012197FFEFCF3F2B
:100E2000DF07A9F7C49ADF91CF911F910F91089521
:100E3000CF93DF93EC01C4988FE701C080E00E945C
:100E4000B10321978FEFCF3FD807C1F7C49ADF9145
:100E5000CF9108950F931F93CF93DF93CDB7DEB754
:100E600023970FB6F894DEBF0FBECDBF8C018399D8
:100E7000FECF8699FCCF89E00E94EF06F89480911E
:100E8000C701882319F483E00E94EF060E94F4064C
:100E900081FFFCCFF8018481855F898361E070E088
:100EA000CE0101960E94C606F8018781882319F0B9
:100EB00081E698E802C081E498E89B838A8362E037
:100EC00070E0CE0102960E94C60661E070E081ECFF
:100ED00091E00E94C60662E070E083EC91E00E941F
:100EE000C60662E070E0C80102960E94C60662E093
:100EF00070E085EC91E00E94C606F80164817727D6
:100F0000858196810E94C60685E00E94EF060E94B8
:100F1000F40683FFF9CF869BFECF7894F801878192
:100F2000882311F41FEF0AC01092C2018699FECFE8
:100F300088EA91E60197F1F71091C201F894809147
:100F4000C701882319F486E00E94EF067894809107
:100F5000C1018F5F8093C101812F992723960FB61E
:100F6000F894DEBF0FBECDBFDF91CF911F910F91DF
:100F700008951F920F920FB60F9211242F933F9353
:100F80004F935F936F937F938F939F93AF93BF9391
:100F9000EF93FF93CF93DF93CDB7DEB72597DEBFF7
:100FA000CDBF839B09C0849907C088E00E94EF06EB
:100FB00088E00E94EF0687C061E070E0CE010196F4
:100FC0000E94FC0689818F778983853010F49927E8
:100FD00043C0E091BF01F091C0018B50858362E076
:100FE00070E0CE0104960E94FC06E091BF01F091F2
:100FF000C0018C819D81A5E096958795AA95E1F722
:10100000817080878091BF019091C00161E070E0A4
:101010000E94FC0629812530D1F48C819D810297A4
:10102000C1F4E091BF01F091C0019091C1018081B4
:10103000891779F462E070E0CE0102960E94FC0606
:101040008B8187FF40C08FEF8093C2013CC02B3063
:1010500030F4822F992703970E94180734C084E048
:1010600090E00E9418078091BF019091C00162E05A
:1010700070E001960E94FC06E091BF01F091C00172
:10108000A091BF01B091C00165817727FD018681E4
:1010900097810E94FC0662E070E0CE0102960E94F9
:1010A000FC06E091BF01F091C0018A8181878C81AB
:1010B0009D818F7D8154984831F48B8187FF03C0D7
:1010C00081E0809372002596F894DEBFCDBFDF915A
:1010D000CF91FF91EF91BF91AF919F918F917F91B0
:1010E0006F915F914F913F912F910F900FBE0F9095
:1010F0001F9018958FEF8093C70183E00E94EF0641
:1011000088E00E94EF068BB780688BBF089510922D
:10111000C70186E00E94EF068BB78F778BBF0895DB
:1011200011BA81B384BB84B387BB87B38ABBB89A37
:10113000BB9A8A9A81B38C6F81BB82B38C6782BB66
:10114000929884B3837084BB85B3836085BB089514
:101150009F92AF92BF92CF92DF92EF92FF920F9346
:101160001F93CF93DF93CDB7DEB722970FB6F894D6
:10117000DEBF0FBECDBF9888C988DA88CE014396FE
:101180009A83898305C0882309F479C00E941401D9
:1011900096012F5F3F4F992021F0F601690184915C
:1011A00003C0F60180816901853269F72F5F3F4FE7
:1011B000992021F0F6016901849103C0F601808134
:1011C0006901843609F451C0883751F08336F1F64D
:1011D000E981FA813296FA83E98332978081D6CF0A
:1011E000E981FA813296FA83E9831291029120E132
:1011F000E22EF12C90E1A92EB12C1EC01095019584
:101200001F4F8DE20E94140180E1E82E87E2F82E44
:1012100020E030E00BC0C7016AE070E00E944D0E94
:101220007B012F5F3F4F2430310519F00E151F054C
:1012300090F3BAE0AB2EB12CC801B7010E944D0E5D
:10124000FB01EF52FF4FE4918E2F0E941401C80161
:10125000B7010E944D0E8C01C701B5010E944D0ED1
:101260007B01672B09F494CFE7CFE981FA813296AD
:10127000FA83E98312910291112334F6BFCF80E003
:1012800090E022960FB6F894DEBF0FBECDBFDF917F
:10129000CF911F910F91FF90EF90DF90CF90BF9073
:1012A000AF909F9008950F931F9380934201709386
:1012B00044016093430150934601409345012093BC
:1012C00047012A5F20935902265010935802009339
:1012D00057028093670260936802672F77276093B5
:1012E000690240936A02852F992780936B022093AD
:1012F0006C025F934F9386EC90E09F938F9381E015
:101300008F930E94A80880914701282F33272A5FD6
:101310003F4F96E00F900F900F900F900F9008C0E6
:10132000FD01EE5BFE4F8081A959BD4F8C939F5FFD
:10133000A92FBB27A217B3079CF310E009C01F5FBA
:1013400084ED90E30197F1F7163011F480E007C0C7
:1013500085E592E00E942A07882389F381E0992796
:101360001F910F910895FF920F931F93E091BF017A
:10137000F091C0010680F781E02D808180934201C9
:10138000E091BF01F091C0010680F781E02D21813D
:1013900033273093440120934301E091BF01F09142
:1013A000C0010680F781E02D82819927982F882738
:1013B000282B392B3093440120934301E091BF0146
:1013C000F091C0010680F781E02D2381332730930F
:1013D000460120934501E091BF01F091C0010680D4
:1013E000F781E02D84819927982F8827282B392B86
:1013F0003093460120934501E091BF01F091C00177
:101400000680F781E02D85818093470196E010C02A
:10141000E091BF01F091C001A92FBB270680F781A1
:10142000E02DEA0FFB1F8081AE5BBE4F8C939F5F68
:10143000E091BF01F091C0018581981748F3809138
:101440004501909146019F938F9388EB90E09F9385
:101450008F93F1E0FF2EFF920E94A8084091450172
:10146000509146010F900F900F900F900F9082E1D6
:1014700042335807A1F48BEA90E09F938F93FF9239
:101480000E94A80840914301509144018A01209193
:10149000470162E372E182E00E94530929C0609132
:1014A0004301709144018A012091470180914201DA
:1014B0000E945309882319F083EA90E014C08EE457
:1014C0008093480181E48093490140914301509108
:1014D00044018A012091470162E372E18FEF0E948B
:1014E00053098BE990E09F938F93FF920E94A80885
:1014F0000F900F900F901F910F91FF900895FF9202
:101500000F931F93CF93DF93CDB7DEB724970FB61A
:10151000F894DEBF0FBECDBF8C01F62E5A834983EF
:101520003C832B8385B78C6085BF8AB780688ABF70
:101530008BB780688BBFF8940E949B03BC9AC49AB7
:101540008C988B988D988E98949A939A959A969A4F
:1015500060E070E080E10E94910660E078EF80E159
:101560000E94910681E00E94EF066FE077EA84E135
:101570000E94910662EF7AE081E10E94910660E0AC
:1015800075E082E10E94910660E070E08EE20E94C8
:10159000910660E470E08CE10E94910664EC71E0D9
:1015A00089E10E9491066FEF70EA85E10E94910641
:1015B0008F2D0E94DF0678941093C0010093BF0125
:1015C00089819A819093C4018093C3018B819C810E
:1015D0009093C6018093C5011092C1011092C7017A
:1015E0008FEC90E09F938F9381E08F930E94A808E7
:1015F0000F900F900F900E94F40686FFFCCF8DECA9
:1016000090E09F938F9381E08F930E94A808F894B5
:1016100042E050E0BE016D5F7F4F8AE691E00E949C
:10162000A20642E050E0BE016F5F7F4F88E691E086
:101630000E94A20678940F900F900F9024960FB6F8
:10164000F894DEBF0FBECDBFDF91CF911F910F91F8
:10165000FF9008950E949008BB9AC3988AEF90E08B
:10166000FC013197F1F79298FC013197F1F7C3989B
:10167000FC013197F1F7929AFC013197F1F7C39A87
:101680000197F1F70E94D60060E679E080E090E0F3
:101690000E94BC0085EF90E09093F6008093F500E7
:1016A00022E332E14DEC5BEA65E188EC91E00E94D7
:1016B0007F0A0895FF920F931F930E942A0B9FEFBA
:1016C00094BB95BB85E08093590290935C0287E6BA
:1016D00092E090935B0280935A0284ED91E09093A4
:1016E000CF018093CE010E947A0811E0F12EF09292
:1016F000490182E08093480102E312E122E045E4DF
:1017000052E165E372E181E00E945309882319F0F8
:1017100085E890E002C089E690E09F938F93FF9266
:101720000E94A8080F900F900F9020E0E8EAF1E6E1
:10173000CF010197F1F72F5F2A30D1F71091720096
:10174000113099F68DE590E09F938F931F930E943F
:10175000A8080E94B30984E590E09F938F931F939C
:101760000E94A808109272008DB79EB706960FB619
:10177000F8949EBF0FBE8DBFB8CF8FEF8093D3017B
:101780008DE592E00E945702982F809141018823B5
:10179000E1F39CB9109241010895CF93DF93CDB747
:1017A000DEB72A970FB6F894DEBF0FBECDBF2091EB
:1017B000470190E0AE014F5F5F4F0AC0E92FFF275E
:1017C000DA01AE0FBF1FEE5BFE4F86818C939F5FE9
:1017D0009217A1F7222309F48DC08981833081F10A
:1017E000843030F4813061F0823009F083C00FC062
:1017F0008530C9F1853080F18A3A09F07BC047C055
:101800000E947805292F33272093480121C080E0CA
:101810000E9407042FEF30E0281B310984E690E096
:10182000AC01249FC001259F900D349F900D112481
:101830006FEF70E00E94610E6093480181E05BC031
:1018400084E00E946B068093480185E00E946B064D
:101850008093490182E04FC081E00E946B06809333
:10186000480182E0F3CF60E670E088E491E00E94F6
:10187000460E66E670E08EE491E00E94460E6CE64D
:1018800070E084E591E00E94460E82E134C08DE86C
:1018900090E09F938F9381E08F930E94A8080F9010
:1018A0000F900F90809141018823E1F385E58CB979
:1018B00010924101809141018823E1F38AEA8CB9B9
:1018C000109241019A81809141018823E1F39CB9F2
:1018D000109241019B81809141018823E1F39CB9E1
:1018E000109241019C81809141018823E1F39CB9D0
:1018F0001092410180E08F5F809347012A960FB6D6
:10190000F894DEBF0FBECDBFDF91CF910895982F21
:10191000DA018091F7008823E1F783E08093F700F4
:1019200091609093F80010923B0160933C0186B760
:101930008F70806A86BF8091F7008823E1F790E07E
:1019400007C0E92FFF27E55EFE4F80818D939F5FE3
:101950009617B9F70895982FDA018091F700882338
:10196000E1F782E08093F7009E7F9093F80090E08B
:1019700007C08D91E92FFF27E750FF4F80839F5FBE
:101980009617B9F71092190160931A0186B78F70F4
:10199000806A86BF08951F920F920FB60F9211248E
:1019A0002F933F934F935F936F937F938F939F9367
:1019B000AF93BF93EF93FF9381B1887F803609F493
:1019C0009FC0813670F5883209F45FC0893298F47F
:1019D000803109F457C0813138F4882309F4E2C01A
:1019E000883009F0E5C04EC0883109F44EC080321D
:1019F00009F0DEC0D7C0803409F477C0813438F4F0
:101A0000803309F4CFC0883309F0D2C05FC080357D
:101A100009F460C0883509F44DC0883409F0C8C0A5
:101A2000C1C0883909F481C08939B0F4883709F414
:101A300067C0893738F4883609F462C0803709F006
:101A4000B7C05EC0883809F470C0803909F45EC040
:101A5000803809F0ADC05AC0803B09F47AC0813BA0
:101A600038F4803A09F465C0883A09F0A1C071C021
:101A7000803C09F493C0883C09F490C0883B09F08D
:101A800097C078C08091F8000FC0909119018091A3
:101A90001A01981708F086C0E92FFF27E750FF4F7B
:101AA00080819F5F9093190183B986B78F7080689A
:101AB00086BF7EC080913B0193B1E82FFF27E55E92
:101AC000FE4F90838F5F80933B016CC086B78F7011
:101AD00080686BC080913B0193B1E82FFF27E55EE2
:101AE000FE4F90838F5F80933B0120913B01332712
:101AF00080913C019927019728173907A4F015C058
:101B000085E08093F70010923B0144C080913B0137
:101B100093B1E82FFF27E55EFE4F90838F5F8093A0
:101B20003B01803210F48FEF01C080E00E9472040C
:101B30003FC086B78F70806C86BFE0913D01F09109
:101B40003E01309799F16BE171E080913B0109957D
:101B50002DC084E08093F700E0913F01F0914001B7
:101B6000309731F069EF70E080E2099580931A01B7
:101B70001092190190911901E92FFF27E750FF4FAB
:101B8000808183B99F5F9093190180911A01981702
:101B900008F08BCF86B78F70806C8ACF86B78F7036
:101BA000806C03C086B78F70806D86BF1092F7007F
:101BB000FF91EF91BF91AF919F918F917F916F9125
:101BC0005F914F913F912F910F900FBE0F901F90FB
:101BD00018951F93CF93DF93982F162FEA0186B79E
:101BE0008E7F86BF86B78F70806A86BF06B607FE77
:101BF000FDCF916093B986B78F70806886BF06B6B7
:101C000007FEFDCF81B1803459F091E014C08FEF11
:101C10000E94720406B607FEFDCF83B1899311506E
:101C20001230A8F780E00E94720406B607FEFDCFCE
:101C300083B1888390E086B78F70806D86BF86B74A
:101C4000816086BF892F9927DF91CF911F910895D9
:101C50000E94D60085EF90E09093F6008093F50007
:101C600060E679E080E090E00E94BC000895379A39
:101C7000359886B1887F866086B981E00E94DC0352
:101C80003D98339A1092540278940895FB01DC0138
:101C900001900D920020E1F70895AA1BBB1B51E1B2
:101CA00007C0AA1FBB1FA617B70710F0A61BB70BCC
:101CB000881F991F5A95A9F780959095BC01CD0171
:101CC000089597FB092E07260AD077FD04D0E5DF9B
:101CD00006D000201AF4709561957F4F0895F6F7AD
:101CE000909581959F4F0895A1E21A2EAA1BBB1BC8
:101CF000FD010DC0AA1FBB1FEE1FFF1FA217B307D8
:101D0000E407F50720F0A21BB30BE40BF50B661FED
:101D1000771F881F991F1A9469F7609570958095B1
:0E1D200090959B01AC01BD01CF010895FFCF4E
:101D2E00524F4F4D3100524F4F4D3200524F4F4D8B
:021D3E00330070
:00000001FF
