:100000000C9438000C9455000C9455000C94550039
:100010000C9455000C9455000C9455000C9455000C
:100020000C9455000C9455000C9455000C945500FC
:100030000C9455000C9455000C9455000C945500EC
:100040000C9455000C9455000C9455000C945500DC
:100050000C9455000C9455000C9455000C945500CC
:100060000C9455000C9455000C9455000C945500BC
:1000700011241FBECFEFD0E1DEBFCDBF17E0A0E05F
:10008000B1E0ECECF1E202C005900D92A232B107B2
:10009000D9F717E0A2E2B7E001C01D92A234B10780
:1000A000E1F70E948E0B0C94E5100C94000008956B
:1000B0000F931F93CF93DF938C01C0E0D0E005C076
:1000C0008AE090E00E9457002196C017D107C4F340
:1000D000DF91CF911F910F910895139898E087FFBA
:1000E00002C0119A01C01198109A1098915011F005
:1000F000880FF5CF139A08950F931F93CF93DF9333
:10010000162F119595E0899FE0011124C953DC4F0A
:1001100000E0899181270E946D000F5F0530C9F7CB
:10012000DF91CF911F910F9108951F93CF93DF938C
:1001300095E0899FE0011124C958DC4F10E08991B6
:100140000E946D001F5F1530D1F7DF91CF911F9195
:1001500008950F931F93082F862F129880640E9492
:100160006D0085E0089F80011124802F80680E9427
:100170006D00129A1F910F910895DF92EF92FF92F6
:100180000F931F93CF93DF93082F862F122F642F87
:100190000E94A9008FEF189F70011124DE2C85E0CA
:1001A000089FE0011124CF53DB4F00E010E089915C
:1001B0008D250E946D000F5F1F4F05301105B9F7A7
:1001C0008E2D0E946D00DF91CF911F910F91FF90B6
:1001D000EF90DF90089512B88FEF81B918B887B902
:1001E0000C9888EE93E00E945800089A0A9A0B9A9D
:1001F000149A1398129881E20E946D0088EC0E9474
:100200006D0086E00E946D0083E10E946D0080E237
:100210000E946D008CE00E946D00129A08950F9369
:100220001F93CF93DF9301E010E0602F81E00E94E5
:10023000A900C0E0D0E080E00E946D002196CB34A0
:10024000D105C9F70F5F1F4F0530110571F7DF9119
:10025000CF911F910F9108951F93CF93DF9360E08B
:1002600080E00E94A90010E083E00E946D001F5F03
:100270001435D1F765E080E00E94A90010E080EC21
:100280000E946D001F5F1435D1F7C0E0D0E06C2FE5
:1002900080E00E94A9008FEF0E946D008FEF0E9406
:1002A0006D002196C630D10591F710E0612F80E1F5
:1002B0000E94A900112391F01530F1F080E00E9416
:1002C0006D0080E00E946D008FEF0E946D008FEF47
:1002D0000E946D001F5F163048F31AC083E00E9431
:1002E0006D0083E00E946D008FEF0E946D008FEF24
:1002F0000E946D0011E0DACF80EC0E946D0080EC6E
:100300000E946D008FEF0E946D008FEF0E946D00C4
:10031000DF91CF911F910895CF92DF92EF92FF92DC
:100320000F931F93CF93DF93CDB7DEB724970FB60C
:10033000F894DEBF0FBECDBF19821A821B821C82C9
:1003400093E0699F70011124899FC001112400E28C
:1003500010E0081B190B0E0D1F1D20E030E06E0190
:100360000894C11CD11C2E153F051CF02017310725
:100370005CF0C90168E070E00E949C10FB01EC0D8C
:10038000FD1D808186950BC0C90168E070E00E9468
:100390009C10FB01EC0DFD1D8081869580588083AB
:1003A0002F5F3F4F20323105F1F681E0E82EF12C2E
:1003B0006E010894C11CD11C6E2D80E10E94A90021
:1003C00080E00E946D00F60111916F01812F0E9463
:1003D0006D00812F80950E946D00812F0E946D001D
:1003E0000894E11CF11CF5E0EF16F10429F72496BE
:1003F0000FB6F894DEBF0FBECDBFDF91CF911F9136
:100400000F91FF90EF90DF90CF9008951F9389B1E7
:100410008C718C31E1F319B115B889B18C718C31C3
:10042000E1F784E690E00E9458008FEF85B94A9A80
:100430004B9A4C9A1C71212F3327C90180719070FF
:10044000892B19F480E090E00CC023FD03C081E00B
:1004500090E007C022FD03C082E090E002C08FEF71
:1004600090E01F9108951F93569A559A5498539867
:1004700052985E985D9889B18C718C31E1F3282F88
:100480003327C90180719070892B11F414E006C0E4
:1004900023FD02C013E002C022FF12E05E9A5D98C5
:1004A00089B184E690E00E9458005D9A5E9889B117
:1004B0008C719927012E02C0959587950A94E2F7D1
:1004C00080FD02C096E001C095E083E0989FC001E6
:1004D0001124180F115115B95E985D9889B18C716E
:1004E0008C31E1F78AE090E00E94580015B8812F26
:1004F00099271F910895AF92BF92DF92EF92FF92DA
:100500000F931F93CF93DF93CDB7DEB728970FB626
:10051000F894DEBF0FBECDBFE82EA62EBB2485010A
:10052000000F111F000F111F0159194FF8012081F1
:100530003327F901A4E0F695E795AA95E1F7CF01F5
:100540006AE070E00E949C106F83CF016AE070E067
:100550000E949C108887F801F1804F2D55272F703D
:100560003070220F331F220F331FCA0166E09695A9
:1005700087956A95E1F7282B822F6AE00E949010F8
:100580008983822F0E9490109A8335E05695479573
:100590003A95E1F721E0D22ED42222813327F901C6
:1005A00094E0F695E7959A95E1F7CF016AE070E05F
:1005B0000E949C106B83CF016AE070E00E949C1047
:1005C0008C83F801A3814A2F55272F703070220F9A
:1005D000331F220F331FCA0106E0969587950A95AF
:1005E000E1F7282B822F6AE00E9490108D83822FE2
:1005F0000E9490109E8315E0569547951A95E1F755
:10060000742F71700F2D0F701A2F1F708091220799
:10061000A82FBB278630B9F1873080F4843040F4AE
:10062000823008F58823A9F0813009F04EC016C049
:100630008430F1F0853009F048C01EC08E3028F4B7
:100640008A3050F58930F8F024C0813108F03DC07F
:1006500030C0F1E0FE1510F48FEF12C0AC0FBD1FDB
:10066000FD01E78232C0AC0FBD1F1197EC922DC087
:10067000B1E0DB2EDE2029C0F1E0FE1520F484E09D
:100680008093220722C0FE013297EA0FFB1FE0820F
:100690001CC07E2D717019C084E0E816B1F41A9761
:1006A00088E090E002C095958795AA95E2F7082723
:1006B0000CC0E4E0EE1649F41E9788E090E002C01A
:1006C00095958795AA95E2F7182749816AE0469F94
:1006D000A00111248A81480F511DF501EE0FFF1F63
:1006E000EE0FFF1FE159F94F2F81269F9001112432
:1006F0008885280F311D2295207FCA019595879501
:10070000959587958F70282B2083DD0CDD0CDD0CF3
:10071000DD0CDD0C4295440F440F407C402BD42A65
:10072000D1824D81469FA00111248E81480F511D19
:100730002B81269F900111248C81280F311D229539
:10074000207FCA0195958795959587958F70282B61
:1007500022837295770F707E4295440F440F407C40
:10076000412B742B738328960FB6F894DEBF0FBE0F
:10077000CDBFDF91CF911F910F91FF90EF90DF9050
:10078000BF90AF900895CF92DF92EF92FF920F93B8
:100790001F93CF93DF937C01162FFC010190002063
:1007A000E9F731970E2F081B642F81E00E94A90002
:1007B00085E0189F60011124E601219615E004C030
:1007C0008FEF0E946D001F5F812F99278C179D0767
:1007D000BCF310E021C0C0E0D0E0F7018081992790
:1007E00087FD9095FC01EE0FFF1FEE0FFF1FE80F36
:1007F000F91FEC0FFD1FE952FD4F808180950E948B
:100800006D002196C530D10541F78FEF0E946D0034
:100810000894E11CF11C1F5F1017E9F686E0089FA1
:10082000C0011124182F1C0D04C08FEF0E946D0011
:100830001F5F1E34D0F3DF91CF911F910F91FF9076
:10084000EF90DF90CF9008958F929F92AF92BF92DA
:10085000CF92DF92EF92FF920F931F93CF93DF938C
:10086000CDB7DEB72A970FB6F894DEBF0FBECDBF67
:100870007C01B62EC42EFC0101900020E9F73197CF
:10088000AE2EA81ADE011696EDE1F7E085E00190A4
:100890000D928150E1F7DE011196E8E1F7E085E085
:1008A00001900D928150E1F76C2D61508B2D0E94CB
:1008B000A90085E0A89E4001112400E010E003C0DB
:1008C00080EC0E946D00802F99270F5F1F4F8815C5
:1008D0009905B4F36C2D8B2D81500E94A9008E01D7
:1008E0000A5F1F4FF80181918F010E946D00CE01B8
:1008F0000B9608171907B1F76C2D8B2D0E94A900D4
:10090000DD241FC000E010E0F7018081992787FDFA
:100910009095FC01EE0FFF1FEE0FFF1FE80FF91F70
:10092000E00FF11FE952FD4F808180950E946D001C
:100930000F5F1F4F0530110539F70894E11CF11CBA
:10094000D394DA14F9F68E010F5F1F4FF8018191ED
:100950008F010E946D00CE01069608171907B1F7A6
:10096000C3946C2D8B2D0E94A90000E010E003C001
:1009700083E00E946D00802F99270F5F1F4F88151D
:100980009905B4F32A960FB6F894DEBF0FBECDBF1B
:10099000DF91CF911F910F91FF90EF90DF90CF905B
:1009A000BF90AF909F908F900895EF92FF920F931A
:1009B0001F93CF93DF938C01862FE22EF8010190D5
:1009C0000020E9F73197FE2EF01A642F0E94A9004B
:1009D00022C0C0E0D0E0F8018081992787FD909582
:1009E000FC01EE0FFF1FEE0FFF1FE80FF91FEC0FCA
:1009F000FD1FE952FD4F80810E946D002196C53098
:100A0000D10549F7F1E0EF1619F480E00E946D007E
:100A10000F5F1F4FFA94FF20E1F6DF91CF911F91F6
:100A20000F91FF90EF9008958F929F92AF92BF9297
:100A3000DF92EF92FF920F931F93CF93DF93CDB787
:100A4000DEB7E2970FB6F894DEBF0FBECDBF082F1A
:100A5000162FDE011B96E2EEF6E088E201900D9281
:100A60008150E1F70E940F01002339F487E0189FBD
:100A700080011124055D1A4F06C086E0189F800191
:100A800011240B531B4F58017E010894E11CF11CEB
:100A900091C0D5012C91332727FD3095F401808139
:100AA00099272817390721F4D701DC92F7014183F0
:100AB0004F5F5F4F0894811C911C4430510549F7EA
:100AC0006F5F7F4F6A30710509F064C00894A11C04
:100AD000B11C82E090E0E80EF91ECE010B96E816FC
:100AE000F90609F067C021E042E062E0C8010E9417
:100AF000D5040E943302482F9091220795B9875060
:100B00008330E8F4292F3327F901EE0FFF1FCE01C0
:100B10000196E80FF91F8081841749F48181992794
:100B2000019664E070E00E949C10818301C01182F4
:100B3000220F331F2C0F3D1FF90141830DC043309D
:100B400021F49430D0F59F5F05C04230B1F5992370
:100B5000A1F19150909322079801DE011196BD01F9
:100B6000AE01455F5F4FFD018181EC91FF27EE0FE4
:100B7000FF1FEE0FFF1FE60FF71FE80FF11D828525
:100B8000F90181939F011296A417B50761F7F80147
:100B90001582A9CFD62EEBE08E2E912C8C0E9D1EA9
:100BA000CB01880F991F880F991F880E991E40E06E
:100BB00050E06FCF60E070E0EDCF80E090E0E29633
:100BC0000FB6F894DEBF0FBECDBFDF91CF911F915E
:100BD0000F91FF90EF90DF90BF90AF909F908F901C
:100BE0000895FF920F931F93CF93DF93E82FFF2772
:100BF000EE0FFF1FEE0FFF1FE159F94F8081C82F45
:100C0000DD279E01A4E036952795AA95E1F741815D
:100C10000281F380C9016AE070E00E949C101AE032
:100C2000619FF0011124C9016AE070E00E949C10EC
:100C3000E80FF11DED30F1050CF057C0EF2B09F472
:100C400054C0CF70D070CC0FDD1FCC0FDD1F42958C
:100C50004695469543704C2B842F6AE00E94901075
:100C6000819F90011124842F0E949010290F311D23
:100C70002C333105D4F5C02FDD279E01E4E03695F5
:100C80002795EA95E1F7C9016AE070E00E949C109F
:100C9000619FF0011124C9016AE070E00E949C107C
:100CA000E80FF11DED30F10504F5EF2BF1F0CF70F9
:100CB000D070CC0FDD1FCC0FDD1F4F2D4295469518
:100CC000469543704C2B842F6AE00E949010819FC0
:100CD00090011124842F0E949010290F311D2C3374
:100CE00031051CF480E090E00DC00E940F0121E06E
:100CF00042E062E080E091E00E94D5040E9433026D
:100D000081E090E0DF91CF911F910F91FF900895C6
:100D1000BF92CF92DF92EF92FF920F931F93CF93E8
:100D2000DF93CDB7DEB761970FB6F894DEBF0FBE85
:100D3000CDBFDE011A96E5E4F1E083E001900D926B
:100D40008150E1F7DE011196E8E4F1E083E00190E3
:100D50000D928150E1F7DE011496EBE4F1E083E0BF
:100D600001900D928150E1F7DE011796EBE4F1E07E
:100D700083E001900D928150E1F7DE011D96EEE4D3
:100D8000F1E085E001900D928150E1F70E940F01A2
:100D90000E942C0121E041E061E08DE091E00E94A1
:100DA000D504BB241FEF21E042E063E0CE010A96A8
:100DB0000E94D50421E042E065E082E191E00E94DA
:100DC000D50421E042E066E0CE0101960E94D50400
:100DD000BB2019F084E191E002C086E191E021E0BE
:100DE00042E068E00E94D50421E043E061E088E150
:100DF00091E00E94D50421E044E063E0CE01049636
:100E00000E94D50421E044E065E082E191E00E9487
:100E1000D50421E044E066E0CE0107960E94D504A7
:100E200021E044E068E082E191E00E94D50421E005
:100E300044E069E0CE010D960E94D50415B90E94E8
:100E40003302282F882309F461C08A30C0F7812F2C
:100E5000992701966DE070E00E949C10182F863053
:100E600009F43FC0873078F4823019F1833030F4D0
:100E70008823C9F0813009F049C018C0843019F1C5
:100E8000853060F51DC08930A9F18A3028F487309B
:100E900059F18830D9F52BC08B3091F18B3068F146
:100EA0008C30A1F530C0205D2A877DCF205D2B8757
:100EB0007ACF822F66E00E949010905D998381CF57
:100EC000205D2A837ECF8B2D992787FD90950196F3
:100ED00062E070E00E949C10B82E73CF205D2C83DE
:100EE0008ACF205D2D8387CF205D2F8392CF205D19
:100EF00028878FCF205D2D879ACF205D2E8797CFB3
:100F0000205D2F8794CF205D288B91CFCE010D9649
:100F10000E94210D7C01CE0107960E94210D182F01
:100F2000CE0104960E94210D082FCE010A960E9440
:100F3000210DC82ECE0101960E94210DD82E8CE0E5
:100F40008C1518F09CE39D1540F40E940F0121E0E0
:100F500042E062E08DE191E021C0123051F4C7011E
:100F600083709070892B19F40E3188F41DC00D31F7
:100F700070F4003260F40F3141F4143041F0163057
:100F800031F0193021F01B3011F01D3068F00E9453
:100F90000F0121E042E062E088E291E00E94D50486
:100FA0000E9433020E948806BB2019F081E490E081
:100FB00002C080E590E09F938F938D2D99279F939A
:100FC0008F938C2D99279F938F9383E391E09F9329
:100FD0008F938FEC96E09F938F930E94470DFF9223
:100FE000EF92812F99279F938F93802F99279F931B
:100FF0008F938CE391E09F938F9387ED96E09F937F
:101000008F930E94470D8DB79EB744960FB6F89404
:101010009EBF0FBE8DBF61960FB6F894DEBF0FBEA8
:10102000CDBFDF91CF911F910F91FF90EF90DF9097
:10103000CF90BF900895DF92EF92FF920F931F938E
:10104000CF93DF93F82EE42E43E0481710F0082FDB
:1010500001C004E08091220785B9633009F04AC0DD
:1010600052E0E51621F40150009322070F5F209112
:101070002207E02FFF273197822F99278E179F078E
:1010800024F42F5F2093220783C0CF2DDD27E45C5B
:10109000F84F808199279E01215030408217930795
:1010A00011F030E024C01092220780E006C0E82F43
:1010B000FF27E45CF84F80838F5F8F15C1F768C00E
:1010C000E32FFF27E45CF84F808199270196BE014A
:1010D0000E949C10282F808382E0E81639F4822F2A
:1010E00099270196BE010E949C1080833F5F3F15A7
:1010F00039F74EC0623009F04BC092E0E91619F49E
:101100001092220706C0882321F081508093220785
:101110003FC080913C07882311F010E037C0015098
:10112000009322070F5F40E02F2D3327E901C01BFA
:10113000D1090CC0E42FFF27CE018E0F9F1FB901EC
:101140000E949C10E45CF84F80834F5F4F1591F72D
:101150001FC0E12FFF272F2D3327E45CF84F80813C
:10116000A901480F511DCA010197B9010E949C10A5
:10117000482F808352E0E51641F4C901840F911D88
:101180000197B9010E949C1080831F5F1F1509F70A
:101190000E940F0110E0C0E0D0E081E0D82E94C0A2
:1011A00081E0E81661F1E81648F092E0E91609F4EA
:1011B00049C044E0E41609F084C05EC08091220773
:1011C000E12FFF27811761F4E45CF84F80812FE065
:1011D000829FC00111244D2D61E087529A4F20C09B
:1011E000CE018F5F482FE45CF84F80812FE0829F13
:1011F000C001112421E061E087529A4F60C08091C4
:101200002207E12FFF27811771F4E45CF84F8081FA
:1012100026E0829FC00111244D2D61E085539B4F34
:101220000E94C3034EC0CE018F5F482FE45CF84F8D
:10123000808126E0829FC001112421E061E0855376
:101240009B4F3DC0E12FFF27E45CF84FE081CE01CA
:101250008F5F482FE0FD07C08AE0E89FC00111249E
:1012600021E061E006C08AE0E89FC001112421E08E
:101270006AE08F589A4F23C080912207811709F5A1
:10128000E12FFF27E45CF84FE0812E2F33278F2DCD
:10129000992701972817390749F087E0E89FC0018F
:1012A00011244D2D61E0855D9A4FBACF87E0E89F0C
:1012B000C001112421E04D2D61E0855D9A4F0E940F
:1012C000D5041F5FD3942196101709F069CFE091E0
:1012D000220792E0E91641F4FF27E45CF84F6081B1
:1012E00066958F2D869505C0FF27E45CF84F6081D9
:1012F0008F2D0E948C01DF91CF911F910F91FF9054
:10130000EF90DF900895CF92DF92EF92FF920F93CC
:101310001F93CF93DF93082FC42E843010F4E82E50
:1013200002C074E0E72E6230D9F1633009F072C078
:1013300020912207EE2DFF273197822F99278E17B4
:101340009F0724F42F5F2093220764C0C02FDD275E
:10135000E45CF84F808199279E012150304082172C
:10136000930711F020E019C01092220780E006C018
:10137000E82FFF27E45CF84F80838F5F8017C1F769
:1013800049C0E22FFF27E45CF84F8081992701963E
:10139000BE010E949C1080832F5F201791F73AC0F6
:1013A00080912207882321F081508093220732C048
:1013B00080913C07882311F020E02AC0EA94E09253
:1013C0002207E39440E0202F3327E901CE19D10909
:1013D0000CC0E42FFF27CE018E0F9F1FB9010E9482
:1013E0009C10E45CF84F80834F5F401791F712C068
:1013F000E22FFF27602F7727E45CF84F8081AB0155
:10140000480F511DCA0101970E949C1080832F5FD5
:10141000201771F785E585B90E940F01DD2468C0AA
:1014200080912207FD2CF394ED2DFF278D1569F592
:10143000EF01C45CD84F888127E0829FC00111244E
:101440004F2D61E0855D9A4F0E94C30351E0C516A0
:1014500051F4E881FF27EE0FFF1FEE0FFF1FE15948
:10146000F94F838110C0CC2009F041C088819927B1
:10147000FC0143E0EE0FFF1F4A95E1F7E81BF90B73
:10148000E55DFA4F868121E02DC08F01045C184F85
:10149000F801808127E0829FC001112421E04F2DB7
:1014A00061E0855D9A4F0E94D504F8010081F1E06A
:1014B000CF1651F4E02FFF27EE0FFF1FEE0FFF1F97
:1014C000E159F94F83810DC0802F9927FC0123E05A
:1014D000EE0FFF1F2A95E1F7E81BF90BE55DFA4FC8
:1014E000868120E04F2D6FE081700E94BD00D39473
:1014F000DE1409F095CFDF91CF911F910F91FF90EE
:10150000EF90DF90CF9008959F92AF92BF92CF92CD
:10151000DF92EF92FF920F931F93CF93DF93CDB79C
:10152000DEB766970FB6F894DEBF0FBECDBFFE01E3
:101530003996AAE0B7E09EE00D9001929150E1F754
:10154000E82EFF24F701EE0FFF1FEE0FFF1FE159FA
:10155000F94F8081082F112724E0169507952A95C9
:10156000E1F74181242F33279FE0D92ED822DD0CCB
:10157000DD0CC901B6E096958795BA95E1F7D80ECE
:101580008281A82EBB24A4E0B694A794AA95E1F783
:1015900093818F70880F880FC92EC694C694C69405
:1015A000C694C694C694C80E942E990C990C990CA6
:1015B000990C9E70990E25FF02C021E401C020E520
:1015C000C8016AE070E00E949C10605D6983C801F8
:1015D0006AE070E00E949C10805D8A838AE38B83BE
:1015E0008D2D6AE00E949010805D8C838D2D0E946D
:1015F0009010905D9D832E831F820E942C0121E01C
:1016000041E061E083E591E00E94D50421E041E002
:1016100067E0CE0101960E94D504EE0CFF1CEE0C93
:10162000FF1C8FE696E0E80EF91EF701838185FF27
:1016300002C021E401C020E5C5016AE070E00E941B
:101640009C10805D8A83C5016AE070E00E949C1056
:10165000605D69838AE38B838C2D6AE00E94901021
:10166000805D8C838C2D0E949010905D9D832E83D5
:101670001F8221E042E061E089E591E00E94D5040B
:1016800021E042E067E0CE0101960E94D5048E0180
:10169000075F1F4F602F6C1B685020E043E0C801BC
:1016A0000E94D5040E5F1F4FCE01479608171907F9
:1016B00089F721E042E067E0CE0101960E94D5045F
:1016C00000E010E0602F660F6F5F892D9927002ED4
:1016D00002C0880F991F0A94E2F7880F892F881F8C
:1016E000990B919520E044E081700E94BD000F5F4E
:1016F0001F4F0730110531F766960FB6F894DEBF1D
:101700000FBECDBFDF91CF911F910F91FF90EF9052
:10171000DF90CF90BF90AF909F900895EF92FF928F
:101720000F931F93CF93DF931BB88FEF8AB9559A0E
:101730005298539854985E9A5D9814980E94EB00C2
:1017400060E081E00E94A900EE24FF2470C189912D
:101750000E946D001F5F1830D1F70894E11CF11C46
:101760008FE3E816F10409F062C120E0E0E5F3EC54
:10177000CF010197F1F72F5F2A30D1F71498149A0F
:101780000E942C010E940F0120E041E061E087ED02
:1017900096E00E94D50420E042E068E08FEC96E0FD
:1017A0000E94D50444E064E08FE591E00E94C30309
:1017B0000E9433028823E1F7109222070E940F0152
:1017C00010923C0781E080933D0782E080933E07C2
:1017D00083E080933F0784E08093400785E0809317
:1017E000410740E060E086E00E941B080E9433024F
:1017F000682F8250823010F440E0F5CF613009F458
:10180000BECF662399F7E0912207FF27E45CF84FEB
:101810000081033039F40E948806CECF109222074F
:1018200081E0A7C0109222070E940F0110923C078E
:1018300081E080933D0782E080933E0783E08093C0
:101840003F0784E08093400785E08093410741E0B3
:1018500060E086E00E941B080E943302682F8250DD
:10186000823010F441E0F5CF613009F4A5CF662352
:1018700099F7E0912207FF27E45CF84F60816F5FE2
:1018800010922207002321F0013009F047C014C054
:1018900042E060E088E00E941B080E943302682F4B
:1018A0008250823018F442E08AE0F5CF613009F4CA
:1018B000B9CF662391F7B6CF80E090E0ECE3F7E094
:1018C0008193019684319105D9F740E060E084E18D
:1018D0000E9483090E943302682F8250823010F4E4
:1018E00040E0F5CF6430B9F4E0912207FF27E45CD3
:1018F000F84F80819927FC0163E0EE0FFF1F6A9586
:10190000E1F7E81BF90BE55DFA4F86818095868348
:1019100040E06CE0DCCF6623E9F684CF043009F4C4
:101920007DCF053049F580E090E0E4E2F7E0819377
:10193000019684319105D9F780E090E0ECE3F7E07F
:101940008193019685319105D9F744E060E085E106
:101950000E941B080E943302682F8250823010F4CC
:1019600044E0F5CF6623B1F71092220760913C075F
:1019700080E00E94140520CF023009F056C080E0BC
:1019800090E0ECE3F7E0819301968A309105D9F776
:1019900041E060E08AE00E9483090E943302682FE0
:1019A0008250823010F441E0F5CF6430A1F4E09130
:1019B0002207FF27E45CF84FE081FF27EE0FFF1FAF
:1019C000EE0FFF1FE159F94F838191E0892783834F
:1019D00041E063E1DFCF613009F424CF6623E9F60B
:1019E000E0912207FF27E45CF84FF0800E940F018E
:1019F00060E08F2D0E94840A109222070E94330219
:101A0000182F8A3018F46F2D0E947B0260E08F2D12
:101A10000E94840A113009F4B2CF112379F78F2D77
:101A20000E94F105813011F3AACE1498FFCFE7018F
:101A300043E0CC0FDD1F4A95E1F7C959DE4F10E0B6
:101A400086CEFC0188279927E89421912032E9F37A
:101A5000293010F02E30C8F32B3241F02D3239F4FA
:101A6000689404C00E943F0D820F911D2191205364
:101A70002A30C0F31EF4909581959F4F08957AE027
:101A8000979F902D879F802D910D112408950F937E
:101A90001F93CF93DF93CDB7DEB760970FB6F8945F
:101AA000DEBF0FBECDBF0F89188D86E08E831C83ED
:101AB0000B838FEF9FE798878F83AE01455E5F4F63
:101AC0005A834983698D7A8DCE0103960E94790DE0
:101AD00029853A85020F131FF801108260960FB610
:101AE000F894DEBF0FBECDBFDF91CF911F910F9154
:101AF00008952F923F924F925F926F927F928F92B2
:101B00009F92AF92BF92CF92DF92EF92FF920F938C
:101B10001F93CF93DF93CDB7DEB764970FB6F894DA
:101B2000DEBF0FBECDBFCC24DD2476011C017C8B33
:101B30006B8B2A01FC0117821682838181FD03C011
:101B40008FEF9FEF88C2AA24BB2472C2A0FE57C2A7
:101B50008A8980538A30E8F4FA89F03341F42D857C
:101B6000222329F4A3FC03C080E091E06FC08AE047
:101B7000ED85E802C0011124FA89F80FF053FD87C2
:101B8000F7FF02C02FE72D87A3FC4CC23D853E879F
:101B900049C2C50188709070A3FE05C0ED85EE2393
:101BA00011F4F1E0FD872A89283624F525360CF05A
:101BB0005BC0233509F480C024358CF42B32C1F18D
:101BC0002C3234F42032C1F1233209F00DC23CC072
:101BD0003A893D32B1F13E3209F006C23AC08A89F3
:101BE000833609F449C084360CF081C0883509F089
:101BF000FBC11BC0EA89E03709F4A3C0E13744F414
:101C0000EC3669F1EF3671F0E93609F0EDC16FC0DD
:101C1000FA89F53709F49DC0F83739F0F33709F040
:101C2000E3C134C028E0298B94C030E1398B91C0E6
:101C300080E190E0A82AB92AE0E2F0E0AE2ABF2ACB
:101C4000F1C120E830E00DC080E490E0A82AB92A74
:101C5000E9C1E8E0F0E0AE2ABF2A1D86E3C124E036
:101C600030E0A22AB32ADEC14FE3C42E3E853150B4
:101C70003E8783E68A8B44C1F201C080FE85F15025
:101C8000FE8722E030E0420E531E3AC1F201C080CE
:101C9000D180892B49F0FD856F2F772767FD7095DF
:101CA000C6010E94581019C0F60101900020E9F702
:101CB0003197EC19E98B12C0F201C080D180892BD9
:101CC00049F0FD856F2F772767FD7095C6010E944B
:101CD0004D1003C0C6010E944410898B22E030E001
:101CE000420E531E3E858989381B3E8709C1A2FEDC
:101CF00008C0F20180819181A281B38124E030E0AB
:101D000009C0F20180819181AA2797FDA095BA2F81
:101D100022E030E0420E531E6C017D01B7FF0CC083
:101D200082E090E0A82AB92AF094E094D094C0947C
:101D3000C11CD11CE11CF11CEFEBFFEFAE22BF2256
:101D400021C020E430E0A22AB32A38E73A8B80E1B0
:101D5000898BA2FE08C0F20180819181A281B381AA
:101D600024E030E007C0F20180819181AA27BB27DF
:101D700022E030E0420E531E6C017D018FEC9FEF9C
:101D8000A822B92287017601FE013196F88BEF87F0
:101D9000F9896F2E772488249924C801B701A401FA
:101DA00093010E94C3106A3024F02A89620F6152A5
:101DB00001C0605DEF85F8896193F88BEF87C801FA
:101DC000B701A40193010E94C31079018A01211572
:101DD00031054105510509F7CC24DD247601CE01FA
:101DE0000196CF84C81AC50182739070892B19F0AF
:101DF000FE85F150FE87A6FE09C02989203111F425
:101E000082E001C081E03E85381B3E8738E0832EAA
:101E1000912C8A209B20A3FE1BC08D85282F332761
:101E200027FD30958C2D99278217930754F0E7EF03
:101E3000FFEFAE22BF2228E0822E912C8A209B2029
:101E400007C0FD85FC19FD872E852F1B2E8703C03B
:101E50003E853C193E87C50180789170892B69F4D5
:101E60008E8506C0B10180E290E00E946310812F50
:101E7000182F11501816B4F31E87A1FE04C0B1012B
:101E80008DE290E00BC0A4FE04C0B1018BE290E0B3
:101E900005C0A5FE05C0B10180E290E00E9463107C
:101EA000A6FE10C0B10180E390E00E946310898912
:101EB000803141F4B101EA898E2F992787FD9095F1
:101EC0000E946310B0FE0DC08E8506C0B10180E394
:101ED00090E00E946310812F182F11501816B4F350
:101EE0001E87892869F02D8506C0B10180E390E046
:101EF0000E946310212F122F11501216B4F31D8768
:101F000090E8692E712C6A207B20A7FC0DC08E857D
:101F100006C0B10180E290E00E946310812F182F6B
:101F200011501816B4F31E87FA89F33641F4B10143
:101F30008C2D992787FD90950E94631045C02A89B2
:101F40002337B1F446015601198909C0F501819181
:101F50005F01B101992787FD90950E946310115090
:101F6000A8F76401F989CF0ED11C2FEF298B2CC063
:101F70003A89333519F00F8518891FC0460186014B
:101F8000B98808C0F8018491B10199270E946310B3
:101F90000F5F1F4FBA94FFEFBF16A1F764012989A5
:101FA000C20ED11CF98B10C0F80182918F01B101D2
:101FB000992787FD90950E946310CE01019608171E
:101FC000190791F7188B0F876728B1F08E8506C027
:101FD000B10180E290E00E946310812F182F115010
:101FE0001816B4F31E8708C0B101FA898F2F9927FC
:101FF00087FD90950E946310AA24BB2413C02A89F0
:10200000253241F43AE0398B1E861D8681E0A82EE8
:10201000B12C08C0B101EA898E2F992787FD9095D0
:102020000E9463102B893C892F5F3F4F3C8B2B8B89
:10203000F101838183FF04C0EB89FC89F49103C023
:10204000EB89FC89F081FA8B2A89222309F07ECD65
:10205000F1018681978164960FB6F894DEBF0FBEBA
:10206000CDBFDF91CF911F910F91FF90EF90DF9047
:10207000CF90BF90AF909F908F907F906F905F9028
:102080004F903F902F900895FC0105900020E9F7B4
:10209000809590958E0F9F1F0895FC0105906150CB
:1020A00070400110D8F7809590958E0F9F1F08956E
:1020B000FC016150704001900110D8F78095909517
:1020C0008E0F9F1F08950F931F93CF93DF938C0163
:1020D000EB018B81992781FF1BC082FF0DC02E81F0
:1020E0003F818C819D812817390764F4E881F9814B
:1020F0000193F983E88306C0E885F985802F099567
:10210000892B31F48E819F8101969F838E8302C03B
:102110000FEF1FEFC801DF91CF911F910F9108952D
:10212000991B79E004C0991F961708F0961B881F29
:102130007A95C9F78095089597FB092E07260AD04E
:1021400077FD04D00CD006D000201AF4709561956C
:102150007F4F0895F6F7909581959F4F0895AA1B9C
:10216000BB1B51E107C0AA1FBB1FA617B70710F082
:10217000A61BB70B881F991F5A95A9F780959095B4
:10218000BC01CD010895A1E21A2EAA1BBB1BFD01C3
:102190000DC0AA1FBB1FEE1FFF1FA217B307E40746
:1021A000F50720F0A21BB30BE40BF50B661F771F9E
:1021B000881F991F1A9469F760957095809590957E
:0C21C0009B01AC01BD01CF010895FFCFD1
:1021CC0057524F4E472054494D4521210054494DFB
:1021DC0045003A0050004100444154450057524FCD
:1021EC004E472054494D450057524F4E47204441CD
:1021FC0054450025643A25642025630025642D256B
:10220C00642D256400313200303000303100323022
:10221C003030004F4E203A20004F46463A200048BE
:10222C00204F204D20450000000000000080382485
:10223C0024E40000E03CC0703CC00080C070587CBE
:10224C00C00000FC44C4B8000404FC0404040000F6
:10225C00000000FC202020FC00F08804040484789A
:10226C0000E03CC0703CC00000FC242424000000B2
:10227C000000000000000000000000000000000052
:10228C00000101010100000001000100000100013A
:10229C0000000080C1E0E0C18000010000000100EE
:1022AC00000000000000000100000001000001819E
:1022BC0081C1C0C080C1C041C0C00100000101018A
:1022CC000100000000000000000000000000000001
:1022DC0000000000000000000000000000000000F2
:1022EC00000000001098DCFEFFFFFFFFFEDC9810E2
:1022FC00000000000000000000C0E0E03038180CC6
:10230C000E06030301000001010303000F1F383008
:10231C00E0E0C00000000000000000000000000031
:10232C00000000E0E0E0E0E0E0E0E0E0E0E0E0E041
:10233C00E0E0E0E0E0E0E2E3E3E3E3E3FFFFFFFF04
:10234C00E3E3E3E3E3E2E0E0E0E0E0E0E0E0E3E36A
:10235C00FFFF0000FCFCFCFCFC007C7C7C7C7C7C9F
:10236C007C00FFFFE3E3E0E0E0E0E0E0E0E0E0E061
:10237C00E0E00000000000FFFFFFFFFFFFFFFFFF9A
:10238C00FFFFFFFFFFFFFFFFFFFFFDFDFD7D793925
:10239C0011010101010103030387FFFFFFFFFFFF91
:1023AC00FFFFFFE7C7C380989F9F9F1F3F3C3C3CAC
:1023BC003C3C7C7C7C7C7FFFFFFFFFFFFFFFFFFF33
:1023CC00FFFFFFFFFFFF00000000000707070707E4
:1023DC0007070707070707070303030301010100AA
:1023EC0000000000000000000000040607070707BB
:1023FC000707070707070707070707070707070761
:10240C000707070606000000000000000001010796
:10241C00070707070707070707070000000000FF6B
:10242C00FFFFFFFFFFFFFFFFFFFFFFFFFFFFFFFFB0
:10243C00FFFFFFFFFFFFFF000000000000002F0068
:10244C00000007000700147F147F14242A7F2A122F
:10245C00C4C810264636495522500005030000001A
:10246C001C2241000041221C0014083E08140808DC
:10247C003E08080000503000101010101000606072
:10248C00000020100804023E5149453E00427F40A6
:10249C000042615149462141454B311814127F10BD
:1024AC0027454545393C4A494930017109050336F0
:1024BC0049494936064949291E003636000000565E
:1024CC003600000814224100141414141400412284
:1024DC0014080201510906324959513E7E0A0A0A72
:1024EC007E427E4A4A767E62626222427E42241894
:1024FC007E6A6A6A287E0A0A0A0A3C424A6A3A7E5C
:10250C000808083E00007E0000604040407E7E08C7
:10251C001422407E404040407E027E023E7E0202FB
:10252C00023E3C4242423C7E6A0A0A0E3C42522225
:10253C005C7E0A0A1A6E6E6A6A6A7A02023E0202AD
:10254C007E6060603E1E2040201E7E607E603E628B
:10255C00140814620E0878080E7A6A6A6A2E007FD4
:10256C00414100552A552A55552A552A55004141B5
:10257C007F0004020102044040404040000102047C
:10258C00002214182442102060180648414C4C00BC
:10259C000053544F5245004B5443484E004245445F
:1025AC00524D0044494E494E00454E544E43000096
:1025BC00000000000000000000000000000000000F
:1025CC0000000000000000000000000000000000FF
:1025DC0000000000000000000000000000000000EF
:1025EC000000000000000000000000545600000035
:1025FC00000046524447450000574D43484E0000EA
:10260C004143000000000054554245310000464152
:10261C004E3100000054554245320000545542459D
:10262C0033000046414E3200000046414E3300005C
:10263C0000534D4F4B4500000000003230000000AD
:10264C00000000000054454D500000000000003315
:10265C003000000000000000004C494748540000C6
:10266C000000003530000000000000000050524512
:10267C005353555245000034300000000000000058
:10268C0000474C415353000000000036300000005E
:10269C000000000000141E5A285649455720535478
:1026AC0041545553000000004354524C2050414EAD
:1026BC00454C00000000005343484544554C4552DE
:1026CC0000000000000054494D45205345540000C3
:1026DC000000000000524F4F4D20534554000000A5
:1026EC000000000053574954434820534554000000
:1026FC00000000464C540000000000000046414E13
:10270C0000000000000000424C42000000000000ED
:10271C00005456200000000000000041432000003F
:10272C00000000000048545200000000000000AF00
:10273C00FFFFFEA3F54183412FFFFE2255FF5500FD
:10274C00000000000000000000000000000000007D
:10275C00000000000000000000000000000000006D
:10276C00000000000000000000000000000000005D
:10277C00000000000000000000000000000000004D
:10278C00000000000000000000000000000000310C
:10279C00303A313020410031302D31302D32303053
:1027AC003700202D5F0041424331444546324748B3
:1027BC0049334A4B4C344D4E4F355051523653548D
:1027CC00553756575838595A393053004D00540024
:1027DC005700540046005300FFFF7E3C18183C7E07
:0227EC00FFFFED
:00000001FF
