:100000000C94B6000C94D3000C940D080C94D300FF
:100010000C94D3000C94D3000C94D3000C94D30014
:100020000C94D3000C94D3000C94D3000C94D30004
:100030000C94D3000C9488030C94D3000C94C2024B
:100040000C9463040C94D3000C94D3000C94570EBE
:100050000C94D300496D6D656469617465204465D5
:100060007374696E6174696F6E204572726F72008D
:1000700053554343455353004D4F54494F4E20442D
:100080004554454354454400313330372066616957
:100090006C6564003133303720776F726B696E673F
:1000A000006661696C6564003136323420776F72A6
:1000B0006B696E6700486169004D4F54494F4E208F
:1000C000444554454354454400256400496E7369D2
:1000D0006465205363686564756C6500494E736997
:1000E00064652053776974636800256400256400A3
:1000F000256400494E7369646520446174656368D2
:1001000067002D2D25782D2D0025640025640049DC
:100110004E736964652054496D65636867002564A2
:1001200000696E736964652074696D65000A002555
:1001300064004641494C555245005355434345538D
:100140005300496E73696465204E50522025640047
:1001500073656E642564003200310030313233340F
:1001600035363738394142434445460011241FBED5
:10017000CFE5D8E0DEBFCDBF10E0A0E6B0E0E0ED17
:10018000F1E202C005900D92A237B107D9F712E053
:10019000A2E7B0E001C01D92AD3EB107E1F70E94B9
:1001A000B40F0C94E7100C94000083E790E0909358
:1001B000B9018093B80120E430E03093BB01209373
:1001C000BA011092BF011092BE011092BD011092AF
:1001D000BC0183EB90E090936402809363023093C0
:1001E00066022093650210926A02109269021092D0
:1001F00068021092670208959093F4008093F300D0
:100200000895F3E0660F771F881F991FFA95D1F7BD
:100210009B01AC01220F331F441F551F605C7D4BB7
:10022000804F9F4F0E94C5102150304029B9232F85
:10023000332720BD08950E94D5001092F40010923B
:10024000F30088ED8AB960E875E280E090E00E94F2
:1002500001018FEF809342011092D50110926C0240
:1002600010926B027894089588EB91E0089583E6EC
:1002700092E00895982F809142018823E1F39CB980
:100280001092420108951092BD011092BC01089590
:100290008091BC019091BD01892B19F48FEF90E002
:1002A000089580E090E008959093F6008093F50023
:1002B0000895E091F500F091F60009950895CF9327
:1002C000DF93EC01892B21F406C021960E9459018D
:1002D00088818823D1F7DF91CF910895EF92FF9223
:1002E0000F931F93CF93DF937A010097C9F0EC012E
:1002F000680F791FC617D70719F089918823D1F79E
:1003000000E010E00AC08881882311F0219601C026
:1003100080E20E9459010F5F1F4F0E151F0599F7CC
:10032000DF91CF911F910F91FF90EF900895CF93A0
:10033000DF93EC01892B19F407C00E945901FE01DB
:10034000219684918823C9F7DF91CF9108958DE09C
:100350000E9459018AE00E9459010895E82FFF2761
:10036000EF70F070E55AFE4FE4918E2F0E94590114
:1003700008951F93182F82958F700E94AE01812FD0
:100380000E94AE011F9108950F931F938C01892F36
:1003900099270E94B901802F0E94B9011F910F91E6
:1003A0000895EF92FF920F931F937B018C01AA2770
:1003B000BB270E94C401C7010E94C4011F910F9175
:1003C000FF90EF9008952F923F924F925F926F921D
:1003D0007F928F929F92AF92BF92CF92DF92EF92D5
:1003E000FF920F931F93CF93DF93CDB7DEB7A29702
:1003F0000FB6F894DEBF0FBECDBF69A3242E2AA38B
:1004000027013801442351F017FF08C0EE24FF24D0
:100410008701E418F5080609170902C08301720173
:1004200090E0211091E039A0391A3A9418A2A82E30
:10043000BB24CC24DD24C801B701A60195010E948C
:10044000C510FB01E55AFE4F64916F8FC801B701DB
:10045000A60195010E94C51079018A018FE1882EBD
:10046000912C8C0E9D1E21C0C4010197E114F10452
:1004700001051105B1F04C01C801B701A6019501B4
:100480000E94C510FB01E55AFE4F6491F4016083A0
:10049000C801B701A60195010E94C51079018A0122
:1004A00004C04C018AA1F40180833A94EFEF3E1618
:1004B000D9F62220A9F077FE05C08DE2F4018293DF
:1004C0004F010EC0C401019741145104610471042D
:1004D00019F04C018BE202C04C0180E2F4018083F0
:1004E00019A105C0F40181914F010E9459011150D9
:1004F000C8F7A2960FB6F894DEBF0FBECDBFDF914E
:10050000CF911F910F91FF90EF90DF90CF90BF9010
:10051000AF909F908F907F906F905F904F903F90A3
:100520002F900895FC017183608353834283178267
:100530001682158214820895CF93DF93EC018C818B
:100540009D81892B11F4E0E018C08E819F81E881A4
:10055000F981E80FF91FE08101969F838E836A81FC
:100560007B818617970720F00E949E109F838E83C1
:100570008C819D8101979D838C838E2F9927DF919C
:10058000CF9108951F920F920FB60F9211242F93BF
:100590003F934F935F936F937F938F939F93AF930B
:1005A000BF93EF93FF938091D501882371F08091E1
:1005B000670290916802892B31F083E692E00E94F5
:1005C0009C028CB905C01092D5018FEF8093420137
:1005D000FF91EF91BF91AF919F918F917F916F911B
:1005E0005F914F913F912F910F900FBE0F901F90F1
:1005F0001895CF93DF93EC018091BA019091BB01E4
:10060000892B71F08091BC019091BD01892B41F043
:1006100088EB91E00E949C0288838FEF90E002C0FB
:1006200080E090E0DF91CF910895CF93DF93CDB735
:10063000DEB721970FB6F894DEBF0FBECDBFCE0157
:1006400001960E94F902882319F48FEF9FEF02C0F0
:100650008981992721960FB6F894DEBF0FBECDBFD2
:10066000DF91CF910895FC019B01848195816817EA
:100670007907B0F486819781860F971F97838683C9
:10068000628173818617970720F00E949E109783DE
:10069000868384819581821B930B9583848308953F
:1006A000158214820895FC01CB0126813781628175
:1006B0007381820F931F0E949E100190F081E02DA4
:1006C000E80FF91F808199270895CF93DF93EC01FC
:1006D000462F2C813D816A817B812617370718F0D0
:1006E00080E090E012C08E819F81820F931F0E9454
:1006F0009E10E881F981E80FF91F40838C819D816C
:1007000001969D838C838FEF90E0DF91CF910895C8
:100710001F920F920FB60F9211242F933F934F9376
:100720005F936F937F938F939F93AF93BF93EF9359
:10073000FF936CB18091F3009091F400892B39F014
:10074000E091F300F091F400862F09950FC088EB3B
:1007500091E00E946503882349F480916B02909197
:100760006C02019690936C0280936B02FF91EF9163
:10077000BF91AF919F918F917F916F915F914F91B9
:100780003F912F910F900FBE0F901F901895682FDB
:1007900083E692E00E94650399270895FC0140E0FA
:1007A00050E024813581828193812817390710F424
:1007B00041E050E0CA010895FC01158214820895B9
:1007C000C79ABF9ABE98BD9ABC9A6C9A6898699A63
:1007D0006B986D986E9A8EB18FEF8093D4010895C7
:1007E000779BFECF1092D4018FB908951092D40157
:1007F0008FB9779BFECF8FEF8093D4018FB199276C
:100800000895EF92FF920F931F937C01892F9927F0
:100810000E94F603082F1127102F00278E2D0E940B
:10082000F6039927802B912B1F910F91FF90EF904A
:10083000089533983798089596B1987F982B96B974
:10084000089597B19F738295880F880F807C982BAD
:1008500097B90895379A359886B1887F866086B9AA
:1008600081E00E9421043D98339A109259027894B5
:10087000089597B1907E8F71982B97B90895349A07
:10088000369A089586B199278074907008951092D1
:10089000590297B1907E8F71982B97B9349A369AF6
:1008A0003699FECF84B125B199273327322F2227DD
:1008B000822B932B08950E944704969587959695D1
:1008C0008795992708951F920F920FB60F921124C2
:1008D0008F938FEF809359028F910F900FBE0F90DF
:1008E0001F901895BC010898099888EE93E00E9423
:1008F0009E10603138F0862F9927409762E070E0B3
:100900000E94B21060B90895A89AA99A909A919AF3
:1009100010923E0110923D011092400110923F0151
:1009200084E690E00E94720486B7846086BF1092CD
:10093000F70086B7816086BF86B7806486BF7894EB
:1009400008958E7F90E0611191E0892B82B908951E
:1009500090933E0180933D010895909340018093D0
:100960003F01089586B78F70806A86BF089586B765
:100970008F70806D86BF089506B607FEFDCF08957F
:1009800083B986B78F70806886BF0895882321F069
:1009900086B78F70806C03C086B78F70806886BF03
:1009A000089583B19927089581B199270895982FC3
:1009B000FA0186B78E7F86BF86B78F70806A86BF42
:1009C00006B607FEFDCF9E7F93B986B78F7080680D
:1009D00086BF06B607FEFDCF81B1883169F091E090
:1009E0000EC0808183B986B78F70806886BF06B6D7
:1009F00007FEFDCF31966150662399F790E086B7E8
:100A00008F70806D86BF06B604FEFDCF86B781600D
:100A100086BF892F992708958091F7009927089517
:100A2000CF93DF93CDB7DEB722970FB6F894DEBF32
:100A30000FBECDBF8CEA89831A82AE014F5F5F4F34
:100A400062E080E90E94D70422960FB6F894DEBFD8
:100A50000FBECDBFDF91CF910895CF93DF93CDB778
:100A6000DEB721970FB6F894DEBF0FBECDBF8EEE76
:100A70008983AE014F5F5F4F61E080E90E94D70438
:100A800021960FB6F894DEBF0FBECDBFDF91CF9198
:100A90000895CF93DF93CDB7DEB721970FB6F894C3
:100AA000DEBF0FBECDBF1982AE014F5F5F4F61E069
:100AB00080E90E94D70420E030E0882311F421E08F
:100AC00030E0C90121960FB6F894DEBF0FBECDBF4E
:100AD000DF91CF910895EF92FF920F931F93CF93E1
:100AE000DF93042F790186B78E7F86BF86B78F701C
:100AF000806A86BF06B607FEFDCF80E983B986B758
:100B00008F70806886BF06B607FEFDCF8AEA83B97C
:100B100086B78F70806886BF06B607FEFDCF0023BC
:100B200051F186B78F70806A86BF06B607FEFDCF8B
:100B300081E983B986B78F70806886BF06B607FEE5
:100B4000FDCF102FE70109C08FEF0E94C60406B643
:100B500007FEFDCF83B1899311501130A9F70150E1
:100B6000E701C00FD11D80E00E94C60406B607FE53
:100B7000FDCF83B1888386B78F70806D86BF06B640
:100B800004FEFDCF86B7816086BFDF91CF911F91B4
:100B90000F91FF90EF900895CF93DF93CDB7DEB71D
:100BA00022970FB6F894DEBF0FBECDBF9E012F5F18
:100BB0003F4F42E061E080E90E946B0589819927FF
:100BC000982F88272A813327822B932B22960FB6C2
:100BD000F894DEBF0FBECDBFDF91CF9108950E9484
:100BE000840484E690E00E9472040895CF93DF931A
:100BF000CDB7DEB721970FB6F894DEBF0FBECDBFDD
:100C00001982AE014F5F5F4F61E080ED0E94D70413
:100C100020E030E0882311F421E030E0C901219682
:100C20000FB6F894DEBF0FBECDBFDF91CF91089510
:100C3000CF93DF93CDB7DEB724970FB6F894DEBF1E
:100C40000FBECDBF19824A836B838C83AE014F5F89
:100C50005F4F64E080ED0E94D70424960FB6F894AD
:100C6000DEBF0FBECDBFDF91CF910895CF93DF934D
:100C7000CDB7DEB724970FB6F894DEBF0FBECDBF59
:100C800094E099838A836B834C83AE014F5F5F4FFF
:100C900064E080ED0E94D70424960FB6F894DEBF7E
:100CA0000FBECDBFDF91CF910895CF92DF92FF921B
:100CB0000F931F93CF93DF93982FFA01F22E6801C1
:100CC00086B78E7F86BF86B78F70806A86BF06B66E
:100CD00007FEFDCF6623A9F0892F8E7F83B986B7E3
:100CE0008F70806886BF06B607FEFDCF819183B9FD
:100CF00086B78F70806886BF06B607FEFDCF61504D
:100D0000A9F7FF2051F186B78F70806A86BF06B6BB
:100D100007FEFDCF916093B986B78F70806886BF5C
:100D200006B607FEFDCF1F2DE60109C08FEF0E941A
:100D3000C60406B607FEFDCF83B18993115011306A
:100D4000A9F7FA94E601CF0DD11D80E00E94C604F8
:100D500006B607FEFDCF83B1888386B78F70806D9E
:100D600086BF06B604FEFDCF86B7816086BFDF91E1
:100D7000CF911F910F91FF90DF90CF9008950F9327
:100D80001F93CF93DF93CDB7DEB722970FB6F894BA
:100D9000DEBF0FBECDBF8A8319828E010F5F1F4F4A
:100DA00021E0AE014E5F5F4F61E080ED0E9455068D
:100DB0008981992722960FB6F894DEBF0FBECDBF6A
:100DC000DF91CF911F910F9108950F931F938B0186
:100DD000C4980E94F603812F99270E94F603802F62
:100DE0000E94F603C49A1F910F910895EF92FF920B
:100DF0000F931F93CF93DF938C017B01EA01C4987B
:100E000080680E94F60316950795802F807C03C0AA
:100E1000F70181917F010E94F6032197FFEFCF3FF9
:100E2000DF07B1F7C49ADF91CF911F910F91FF9027
:100E3000EF9008950F931F93CF93DF938C01EB01F5
:100E4000C4988EE303C0F80181918F010E94F603DC
:100E50002197FFEFCF3FDF07B1F7C49ADF91CF9122
:100E60001F910F91089599279C01265A3E4B0B978D
:100E7000880F991F880F991F820F931FBC0188E16B
:100E80000E94E5060895C4980E94F603C49A089546
:100E9000C49880E00E94F603C49A8FB19927089500
:100EA0000F931F93CF93DF938C01EB01C4988FE7CF
:100EB0000E94F60306C080E00E94F603F8018193C9
:100EC0008F012197FFEFCF3FDF07A9F7C49ADF918A
:100ED000CF911F910F910895CF93DF93EC01C498A8
:100EE0008FE701C080E00E94F60321978FEFCF3F8C
:100EF000D807C1F7C49ADF91CF9108950F931F933C
:100F0000CF93DF93CDB7DEB723970FB6F894DEBF4C
:100F10000FBECDBF8C018399FECF8699FCCF89E0AF
:100F20000E944307F8948091C801882319F483E054
:100F30000E9443070E94480781FFFCCFF80184818B
:100F4000855F898361E070E0CE0101960E941A07F7
:100F5000F8018781882319F081E698E802C081E4CE
:100F600098E89B838A8362E070E0CE0102960E943B
:100F70001A0761E070E082EC91E00E941A0762E0DB
:100F800070E084EC91E00E941A0762E070E0C80112
:100F900002960E941A0762E070E086EC91E00E94DF
:100FA0001A07F80164817727858196810E941A07C4
:100FB00085E00E9443070E94480783FFF9CF869B84
:100FC000FECF7894F8018781882311F41FEF0AC0BF
:100FD0001092C3018699FECF88EA91E60197F1F756
:100FE0001091C301F8948091C801882319F486E018
:100FF0000E94430778948091C2018F5F8093C20161
:10100000812F992723960FB6F894DEBF0FBECDBF70
:10101000DF91CF911F910F9108951F920F920FB6FC
:101020000F9211242F933F934F935F936F937F936E
:101030008F939F93AF93BF93EF93FF93CF93DF93E0
:10104000CDB7DEB72597DEBFCDBF839B09C084999E
:1010500007C088E00E94430788E00E94430787C0DA
:1010600061E070E0CE0101960E94500789818F7780
:101070008983853010F4992743C0E091C001F09135
:10108000C1018B50858362E070E0CE0104960E941E
:101090005007E091C001F091C1018C819D81A5E0D4
:1010A00096958795AA95E1F7817080878091C00118
:1010B0009091C10161E070E00E94500729812530C4
:1010C000D1F48C819D810297C1F4E091C001F0912F
:1010D000C1019091C2018081891779F462E070E0CA
:1010E000CE0102960E9450078B8187FF40C08FEF90
:1010F0008093C3013CC02B3030F4822F9927039793
:101100000E946C0734C084E090E00E946C078091DC
:10111000C0019091C10162E070E001960E94500709
:10112000E091C001F091C101A091C001B091C10155
:1011300065817727FD01868197810E94500762E0D3
:1011400070E0CE0102960E945007E091C001F0913C
:10115000C1018A8181878C819D818F7D81549848CE
:1011600031F48B8187FF03C081E080937200259664
:10117000F894DEBFCDBFDF91CF91FF91EF91BF918A
:10118000AF919F918F917F916F915F914F913F911F
:101190002F910F900FBE0F901F9018958FEF809397
:1011A000C80183E00E94430788E00E9443078BB791
:1011B00080688BBF08951092C80186E00E944307A3
:1011C0008BB78F778BBF089511BA81B384BB84B37B
:1011D00087BB87B38ABBB89ABB9A8A9A81B38C6F54
:1011E00081BB82B38C6782BB929884B3837084BBCB
:1011F00085B3836085BB08959F92AF92BF92CF92D3
:10120000DF92EF92FF920F931F93CF93DF93CDB7AF
:10121000DEB722970FB6F894DEBF0FBECDBF988819
:10122000C988DA88CE0143969A83898305C08823CA
:1012300009F479C00E94590196012F5F3F4F992010
:1012400021F0F6016901849103C0F60180816901F2
:10125000853269F72F5F3F4F992021F0F601690130
:10126000849103C0F60180816901843609F451C07C
:10127000883751F08336F1F6E981FA813296FA83A4
:10128000E98332978081D6CFE981FA813296FA8359
:10129000E9831291029120E1E22EF12C90E1A92E36
:1012A000B12C1EC0109501951F4F8DE20E9459016F
:1012B00080E1E82E87E2F82E20E030E00BC0C70185
:1012C0006AE070E00E949E107B012F5F3F4F243048
:1012D000310519F00E151F0590F3BAE0AB2EB12CB5
:1012E000C801B7010E949E10FB01E55AFE4FE49130
:1012F0008E2F0E945901C801B7010E949E108C01D7
:10130000C701B5010E949E107B01672B09F494CFA1
:10131000E7CFE981FA813296FA83E983129102914B
:10132000112334F6BFCF80E090E022960FB6F894F8
:10133000DEBF0FBECDBFDF91CF911F910F91FF9008
:10134000EF90DF90CF90BF90AF909F9008958F92D5
:101350009F92AF92BF92CF92DF92EF92FF920F9344
:101360001F93CF93DF93CDB7DEB7C058D0400FB6F1
:10137000F894DEBF0FBECDBF9091480120E0AE01D2
:101380004F5F5F4F0AC0E22FFF27DA01AE0FBF1F8A
:10139000ED5BFE4F86818C932F5F2917A1F7892F74
:1013A00099279F938F938FE291E09F938F9381E092
:1013B0008F930E94FC08882499240F900F900F901F
:1013C0000F900F900DC2E82CFF245E010894A11C21
:1013D000B11CAE0CBF1CF50110818DE291E09F9312
:1013E0008F9371E0C72ECF920E94FC08812F0E943C
:1013F000B9010F900F900F90163009F4B4C0173058
:1014000090F4133009F44AC0143030F41130F1F084
:10141000123009F0E4C126C0143009F455C015306B
:1014200009F0DDC181C01B3A09F45FC11C3A38F4F0
:10143000183009F4E9C01A3A09F0D1C124C11B3BA4
:1014400009F4C3C11F3F09F0CAC1A0C10E94CC0565
:10145000E92DFF27ED5BFE4F292F33272683878356
:10146000F2E030C080E00E945B04E92DFF27ED5BD5
:10147000FE4F2FEF30E0281B310984E690E0AC01ED
:10148000249FC001259F900D349F900D11246FEF74
:1014900070E00E94B21066839394A1C1092D1127B8
:1014A00084E00E94BF060D5B1E4FF801868385E035
:1014B0000E94BF06F801878386E00E94BF06F801FC
:1014C0008087F3E09F0E8BC181E291E09F938F9321
:1014D000CF920E94FC08E92CFF2481E00E94BF0605
:1014E00023E431E0E20EF31EF701868382E00E94DE
:1014F000BF06182F99279F938F938EE191E09F93BA
:101500008F93CF920E94FC08812F8F71F701878300
:1015100012951695177011701087F2E09F0E2DB777
:101520003EB7285F3F4FA9C0892D992760E670E03C
:10153000875B9E4F0E94971036E0930E892D992766
:1015400066E670E0875B9E4F0E94971046E0940E1F
:10155000892D99276CE670E0875B9E4F0E9497105B
:1015600056E0950E3CC18FE091E09F938F93CF9210
:101570000E94FC08F501D1808D2D99279F938F93B0
:101580008CE091E09F938F93CF920E94FC08F5012D
:10159000E2800E2D11271F930F9389E091E09F9316
:1015A0008F93CF920E94FC08F501F3800F751070A5
:1015B0008F2D992755E0880F991F5A95E1F7080F4D
:1015C000191F1F930F9382E091E09F938F93CF9207
:1015D0000E94FC08FFE5EF22FF0CFF0CFF0CFF0C44
:1015E000FF0CEF0C40E06D2D8E2D80640E941806DC
:1015F00023E0820E4DB75EB74E5E5F4F0FB6F89494
:101600005EBF0FBE4DBFEBC083EF90E09F938F9303
:10161000CF920E94FC08F501F1808F2D99279F93AE
:101620008F9380EF90E09F938F93CF920E94FC085E
:10163000F5010281802F99279F938F938DEE90E083
:101640009F938F93CF920E94FC08F5011381812F05
:1016500099279F938F938AEE90E09F938F93CF92D9
:101660000E94FC08412F602F8F2D0E943606F3E068
:101670008F0E2DB73EB72E5E3F4F0FB6F8943EBF8C
:101680000FBE2DBFACC08CED90E09F938F93CF9297
:101690000E94FC080F900F900F90809142018823C8
:1016A000E1F385E58CB910924201809142018823D3
:1016B000E1F38AEA8CB910924201FE01EE0DFF1DA2
:1016C0009281809142018823E1F39CB910924201FA
:1016D000EC0EFD1EF7019381809142018823E1F316
:1016E0009CB910924201F2E06EC08CEC90E09F93A6
:1016F0008F93CF920E94FC08F501818199279C016C
:1017000044E0369527954A95E1F720935A022281C5
:1017100033278F709070880F991F880F991FA90128
:1017200016E0569547951A95E1F7842B8093D601DC
:10173000B5E036952795BA95E1F7217020935702C9
:10174000838199279C01A4E036952795AA95E1F716
:1017500020934101248133278F709070880F991F47
:10176000880F991FA90166E0569547956A95E1F79C
:10177000842B8093C90145E0369527954A95E1F77A
:10178000217020935802F4E08F0E26C08E010E5F68
:101790001F4FF80181918F0199279F938F9389ECB7
:1017A00090E09F938F9381E08F930E94FC080F90AD
:1017B0000F900F900F900F90CE018C599F4F0817EC
:1017C000190739F7F4E68F0E0AC089EB90E09F9372
:1017D0008F93CF920E94FC080F900F900F908394EC
:1017E00080914801881608F4EECD939490924801B8
:1017F000C058DF4F0FB6F894DEBF0FBECDBFDF91EC
:10180000CF911F910F91FF90EF90DF90CF90BF90FD
:10181000AF909F908F9008950F931F9380934301F3
:1018200070934501609344015093470140934601F2
:10183000209348012A5F20935F02265010935E0296
:1018400000935D0280936D0260936E02672F77278D
:1018500060936F0240937002852F992780937102E5
:10186000209372025F934F9380E591E09F938F9353
:1018700081E08F930E94FC0880914801282F332734
:101880002A5F3F4F96E00F900F900F900F900F90B0
:1018900008C0FD01ED5BFE4F8081A359BD4F8C93C5
:1018A0009F5FA92FBB27A217B3079CF310E009C0C5
:1018B0001F5F84ED90E30197F1F7163011F480E09B
:1018C00007C08BE592E00E947E07882389F381E0C0
:1018D00099271F910F910895FF920F931F93E09105
:1018E000C001F091C1010680F781E02D80818093D5
:1018F0004301E091C001F091C1010680F781E02D24
:10190000218133273093450120934401E091C001A8
:10191000F091C1010680F781E02D82819927982FEF
:101920008827282B392B3093450120934401E091DF
:10193000C001F091C1010680F781E02D238133279A
:101940003093470120934601E091C001F091C1011D
:101950000680F781E02D84819927982F8827282BEE
:10196000392B3093470120934601E091C001F0915B
:10197000C1010680F781E02D85818093480196E0C2
:1019800010C0E091C001F091C101A92FBB270680D2
:10199000F781E02DEA0FFB1F8081AD5BBE4F8C937A
:1019A0009F5FE091C001F091C1018581981748F3D4
:1019B00080914601909147019F938F9382E491E03B
:1019C0009F938F93A1E0FA2EFF920E94FC08409112
:1019D0004601509147010F900F900F900F900F907C
:1019E00082E146345807A1F40E94A70988EA91E6EB
:1019F0000197F1F7409144015091450102E312E152
:101A00002091480166E472E182E00E940C0C2CC037
:101A100060914401709145018A01209148018091B3
:101A200043010E940C0C882319F08AE391E014C052
:101A30008EE48093490181E480934A0140914401FE
:101A4000509145018A012091480166E472E18FEFCF
:101A50000E940C0C82E391E09F938F93FF920E946F
:101A6000FC080F900F900F901F910F91FF90089519
:101A7000FF920F931F93CF93DF93CDB7DEB72497D9
:101A80000FB6F894DEBF0FBECDBF8C01F62E5A8381
:101A900049833C832B8385B78C6085BF8AB7806878
:101AA0008ABF8BB780688BBFF8940E94E003BC9A12
:101AB000C49A8C988B988D988E98949A939A959AAC
:101AC000969A60E070E080E10E94E50660E078EFC1
:101AD00080E10E94E50681E00E9443076FE077EA1B
:101AE00084E10E94E50662EF7AE081E10E94E5066A
:101AF00060E075E082E10E94E50660E070E08EE261
:101B00000E94E50660E470E08CE10E94E50664EC6A
:101B100071E089E10E94E5066FEF70EA85E10E94BD
:101B2000E5068F2D0E94330778941093C10100932E
:101B3000C00189819A819093C5018093C4018B81F2
:101B40009C819093C7018093C6011092C2011092AC
:101B5000C80189E591E09F938F9381E08F930E9464
:101B6000FC080F900F900F900E94480786FFFCCF53
:101B700087E591E09F938F9381E08F930E94FC080B
:101B8000F89442E050E0BE016D5F7F4F8AE691E03D
:101B90000E94F60642E050E0BE016F5F7F4F88E68C
:101BA00091E00E94F60678940F900F900F90249683
:101BB0000FB6F894DEBF0FBECDBFDF91CF911F915E
:101BC0000F91FF9008950E94E408BB9AC3988AEF92
:101BD00090E0FC013197F1F79298FC013197F1F711
:101BE000C398FC013197F1F7929AFC013197F1F714
:101BF000C39A0197F1F70E941B0160E679E080E04B
:101C000090E00E9401018AE391E09093F6008093B6
:101C1000F50026E432E14DEC5BEA65E18AEC91E007
:101C20000E94380D0895982FDA018091F7008823DB
:101C3000E1F783E08093F70091609093F8001092B1
:101C40003B0160933C0186B78F70806A86BF8091AC
:101C5000F7008823E1F790E007C0E92FFF27E55E52
:101C6000FE4F80818D939F5F9617B9F70895982F47
:101C7000DA018091F7008823E1F782E08093F70092
:101C80009E7F9093F80090E007C08D91E92FFF2789
:101C9000E750FF4F80839F5F9617B9F710921901A5
:101CA00060931A0186B78F70806A86BF08951F926D
:101CB0000F920FB60F9211242F933F934F935F9380
:101CC0006F937F938F939F93AF93BF93EF93FF9304
:101CD00081B1887F803609F49FC0813670F58832E3
:101CE00009F45FC0893298F4803109F457C081311A
:101CF00038F4882309F4E2C0883009F0E5C04EC00A
:101D0000883109F44EC0803209F0DEC0D7C080347B
:101D100009F477C0813438F4803309F4CFC08833B4
:101D200009F0D2C05FC0803509F460C0883509F47D
:101D30004DC0883409F0C8C0C1C0883909F481C0D9
:101D40008939B0F4883709F467C0893738F48836A0
:101D500009F462C0803709F0B7C05EC0883809F462
:101D600070C0803909F45EC0803809F0ADC05AC037
:101D7000803B09F47AC0813B38F4803A09F465C0AD
:101D8000883A09F0A1C071C0803C09F493C0883C36
:101D900009F490C0883B09F097C078C08091F800A2
:101DA0000FC09091190180911A01981708F086C010
:101DB000E92FFF27E750FF4F80819F5F9093190124
:101DC00083B986B78F70806886BF7EC080913B01E3
:101DD00093B1E82FFF27E55EFE4F90838F5F8093DE
:101DE0003B016CC086B78F7080686BC080913B01EF
:101DF00093B1E82FFF27E55EFE4F90838F5F8093BE
:101E00003B0120913B01332780913C0199270197A9
:101E100028173907A4F015C085E08093F7001092C9
:101E20003B0144C080913B0193B1E82FFF27E55E61
:101E3000FE4F90838F5F80933B01803210F48FEFD1
:101E400001C080E00E94C6043FC086B78F70806CDE
:101E500086BFE0913D01F0913E01309799F16BE131
:101E600071E080913B0109952DC084E08093F700DB
:101E7000E0913F01F0914001309731F069EF70E05F
:101E800080E2099580931A0110921901909119012D
:101E9000E92FFF27E750FF4F808183B99F5F909321
:101EA000190180911A01981708F08BCF86B78F70AF
:101EB000806C8ACF86B78F70806C03C086B78F70B6
:101EC000806D86BF1092F700FF91EF91BF91AF91A7
:101ED0009F918F917F916F915F914F913F912F9142
:101EE0000F900FBE0F901F9018951F93CF93DF9305
:101EF000982F162FEA0186B78E7F86BF86B78F7020
:101F0000806A86BF06B607FEFDCF916093B986B79B
:101F10008F70806886BF06B607FEFDCF81B1803422
:101F200059F091E014C08FEF0E94C60406B607FE78
:101F3000FDCF83B1899311501230A8F780E00E9441
:101F4000C60406B607FEFDCF83B1888390E086B74E
:101F50008F70806D86BF86B7816086BF892F992775
:101F6000DF91CF911F910895FF920F931F930E94CD
:101F7000E30D1FEF14BBA59A85EB90E09F938F9321
:101F800001E00F930E94FC0815BB0E94EF050E9420
:101F90002A040E9449050F900F900F90882349F062
:101FA0000E9410050E942D050E94CC0588EA90E051
:101FB00002C081EA90E09F938F930F930E94FC08E8
:101FC0000F900F900F900E94F605882369F040E073
:101FD00060E289E00E94180647E066E083E20E9422
:101FE000360684E990E002C088E890E09F938F93E2
:101FF00081E08F930E94FC080F900F900F900E9439
:102000002A0486B1887F876086B981E00E94210416
:1020100085E080935F028FEF809362028DE692E00D
:10202000909361028093600287ED91E09093D101DB
:102030008093D0010E94CE081ABA1BBA86B1887F5D
:10204000876086B981E00E942104AD9A81E00E94F8
:102050005B042FEF30E0281B310984E690E0AC01EF
:10206000249FC001259F900D349F900D11246FEF88
:1020700070E00E94B210662389F588E790E09F9394
:102080008F9301E0F02EFF920E94FC088BEB80936F
:10209000490102E312E121E045E352E165E472E126
:1020A00081E00E940C0C0F900F900F90882319F084
:1020B00080E790E002C084E590E09F938F93FF92C9
:1020C0000E94FC080F900F900F9020E0E8EAF1E6E4
:1020D000CF010197F1F72F5F2A30D1F7809172007D
:1020E000813009F0B3CF0E946C0C10927200AECF19
:1020F0000E941B018AE391E09093F6008093F50023
:1021000060E679E080E090E00E94010108958FEFA1
:102110008093D50183E692E00E949C02982F8091E3
:1021200042018823E1F39CB9109242010895FB011A
:10213000DC0101900D920020E1F70895AA1BBB1B62
:1021400051E107C0AA1FBB1FA617B70710F0A61BB7
:10215000B70B881F991F5A95A9F780959095BC01D8
:10216000CD01089597FB092E07260AD077FD04D0EC
:10217000E5DF06D000201AF4709561957F4F089531
:10218000F6F7909581959F4F0895A1E21A2EAA1B0C
:10219000BB1BFD010DC0AA1FBB1FEE1FFF1FA21717
:1021A000B307E407F50720F0A21BB30BE40BF50B14
:1021B000661F771F881F991F1A9469F7609570959D
:1021C000809590959B01AC01BD01CF010895FFCF93
:1021D000524F4F4D3100524F4F4D3200524F4F4DE5
:0221E0003300CA
:00000001FF
