:100000000C9413010C9430010C94F6080C943001FC
:100010000C9430010C9430010C9430010C9430019C
:100020000C9430010C9430010C9430010C9430018C
:100030000C9430010C9430010C9430010C9430017C
:100040000C9430010C9430010C9430010C9430016C
:100050000C94EA030C9430010C9423030C943001AB
:100060000C94E6040C9430010C94B61D0C943001F1
:10007000496D6D6564696174652044657374696E6A
:100080006174696F6E204572726F720053554343FD
:1000900045535300496D6D6564696174652044651D
:1000A0007374696E6174696F6E204572726F72004D
:1000B0005355434345535300496E746572727570CE
:1000C00074656400496D6D6564696174652044659B
:1000D0007374696E6174696F6E204572726F72001D
:1000E0005355434345535300496E7465727275709E
:1000F00074656400496D6D6564696174652044656B
:100100007374696E6174696F6E204572726F7200EC
:100110005355434345535300496E7465727275706D
:1001200074656400496D6D6564696174652044653A
:100130007374696E6174696F6E204572726F7200BC
:100140005355434345535300486169004861690072
:10015000496E74657272757074656400496D6D6581
:1001600064696174652044657374696E6174696F54
:100170006E204572726F72002D2D535543434553C7
:100180005300496E74657272757074656400496DD0
:100190006D6564696174652044657374696E61742A
:1001A000696F6E204572726F720053554343455319
:1001B00053003135003134003133003132003131F8
:1001C0000031300039003800370036003500340087
:1001D0003400330032003100300030004641494CD9
:1001E0005552450053554343455353004D4F5449D1
:1001F0004F4E20444554454354454400496E73696D
:100200006465204E50522025640073656E64256439
:10021000003200310030313233343536373839412D
:1002200042434445460011241FBECFEFD0E1DEBF5C
:10023000CDBF17E0A0E0B1E0E2EBF6E402C005902C
:100240000D92AE37B107D9F71AE0AEE7B7E001C0BB
:100250001D92A133B107E1F70E94ED190C945823C8
:100260000C94000081E897E09093C7088093C6083B
:1002700020E430E03093C9082093C8081092CD08DC
:100280001092CC081092CB081092CA0881EC97E02B
:100290009093A8098093A7093093AA092093A909EC
:1002A0001092AE091092AD091092AC091092AB09F0
:1002B000089590930208809301080895F3E0660F73
:1002C000771F881F991FFA95D1F79B01AC01220F68
:1002D000331F441F551F605C7D4B804F9F4F0E9412
:1002E0003623215030402093C400232F33272093FE
:1002F000C50008950E943201109202081092010870
:1003000088ED8093C10060E875E280E090E00E9493
:100310005E018FEF809350081092E3081092B009AD
:100320001092AF097894089586EC98E0089587EAD2
:1003300099E00895982F809150088823E1F39093D5
:10034000C6001092500808951092CB081092CA0867
:1003500008958091CA089091CB08892B19F48FEFEA
:1003600090E0089580E090E00895909304088093D1
:1003700003080895E0910308F09104080995089591
:10038000CF93DF93EC01892B21F406C021960E94C4
:10039000BA0188818823D1F7DF91CF910895EF9238
:1003A000FF920F931F93CF93DF937A010097C9F0C9
:1003B000EC01680F791FC617D70719F089918823B8
:1003C000D1F700E010E00AC08881882311F021965F
:1003D00001C080E20E94BA010F5F1F4F0E151F057A
:1003E00099F7DF91CF911F910F91FF90EF900895B2
:1003F000CF93DF93EC01892B19F407C00E94BA0157
:10040000FE01219684918823C9F7DF91CF91089549
:100410008DE00E94BA018AE00E94BA010895E82F97
:10042000FF27EF70F070EB5EFD4FE4918E2F0E947E
:10043000BA0108951F93182F82958F700E940F02A2
:10044000812F0E940F021F9108950F931F938C011B
:10045000892F99270E941A02802F0E941A021F9149
:100460000F910895EF92FF920F931F937B018C01E0
:10047000AA27BB270E942502C7010E9425021F91BF
:100480000F91FF90EF9008952F923F924F925F92BD
:100490006F927F928F929F92AF92BF92CF92DF9294
:1004A000EF92FF920F931F93CF93DF93CDB7DEB7F9
:1004B000A2970FB6F894DEBF0FBECDBF69A3242E5E
:1004C0002AA327013801442351F017FF08C0EE2466
:1004D000FF248701E418F5080609170902C0830103
:1004E000720190E0211091E039A0391A3A9418A2D3
:1004F000A82EBB24CC24DD24C801B701A601950198
:100500000E943623FB01EB5EFD4F64916F8FC801A3
:10051000B701A60195010E94362379018A018FE176
:10052000882E912C8C0E9D1E21C0C4010197E114D0
:10053000F10401051105B1F04C01C801B701A60194
:1005400095010E943623FB01EB5EFD4F6491F4019F
:100550006083C801B701A60195010E943623790185
:100560008A0104C04C018AA1F40180833A94EFEF20
:100570003E16D9F62220A9F077FE05C08DE2F401DF
:1005800082934F010EC0C4010197411451046104CC
:10059000710419F04C018BE202C04C0180E2F401BD
:1005A000808319A105C0F40181914F010E94BA0115
:1005B0001150C8F7A2960FB6F894DEBF0FBECDBF9C
:1005C000DF91CF911F910F91FF90EF90DF90CF902F
:1005D000BF90AF909F908F907F906F905F904F9063
:1005E0003F902F900895FC01718360835383428371
:1005F00017821682158214820895CF93DF93EC013F
:100600008C819D81892B11F4E0E018C08E819F813F
:10061000E881F981E80FF91FE08101969F838E83BD
:100620006A817B818617970720F00E940F239F83A2
:100630008E838C819D8101979D838C838E2F99273A
:10064000DF91CF9108951F920F920FB60F92112450
:100650002F933F934F935F936F937F938F939F93CA
:10066000AF93BF93EF93FF938091E308882379F0D2
:100670008091AB099091AC09892B39F087EA99E018
:100680000E94FD028093C60005C01092E3088FEF20
:1006900080935008FF91EF91BF91AF919F918F91FF
:1006A0007F916F915F914F913F912F910F900FBE6E
:1006B0000F901F901895CF93DF93EC018091C8089D
:1006C0009091C908892B71F08091CA089091CB084C
:1006D000892B41F086EC98E00E94FD0288838FEF21
:1006E00090E002C080E090E0DF91CF910895CF9339
:1006F000DF93CDB7DEB721970FB6F894DEBF0FBEFC
:10070000CDBFCE0101960E945B03882319F48FEFC1
:100710009FEF02C08981992721960FB6F894DEBF1A
:100720000FBECDBFDF91CF910895FC019B01848165
:10073000958168177907B0F486819781860F971F96
:1007400097838683628173818617970720F00E94C2
:100750000F239783868384819581821B930B9583D6
:1007600084830895158214820895FC01CB012681AB
:10077000378162817381820F931F0E940F23019042
:10078000F081E02DE80FF91F808199270895CF931C
:10079000DF93EC01462F2C813D816A817B812617F6
:1007A000370718F080E090E012C08E819F81820FA1
:1007B000931F0E940F23E881F981E80FF91F4083FE
:1007C0008C819D8101969D838C838FEF90E0DF91DA
:1007D000CF9108951F920F920FB60F9211242F936D
:1007E0003F934F935F936F937F938F939F93AF93B9
:1007F000BF93EF93FF936091C600809101089091A1
:100800000208892B39F0E0910108F0910208862F47
:1008100009950FC086EC98E00E94C703882349F42D
:100820008091AF099091B00901969093B00980939F
:10083000AF09FF91EF91BF91AF919F918F917F9100
:100840006F915F914F913F912F910F900FBE0F903D
:100850001F901895682F87EA99E00E94C70399278F
:100860000895FC0140E050E024813581828193812C
:100870002817390710F441E050E0CA010895FC013F
:100880001582148208952F9A279A2698259A249AD9
:100890008CB580618CBD8CB58E7F8CBD8CB5826033
:1008A0008CBD8CB5877F8CBD8CB58F7D8CBD8CB598
:1008B00080648CBD8DB58FEF8093E20808950DB4F0
:1008C00007FEFDCF1092E2088EBD08951092E20857
:1008D0008EBD0DB407FEFDCF8FEF8093E2088EB57D
:1008E00099270895EF92FF920F931F937C01892F10
:1008F00099270E946604082F1127102F00278E2D9C
:100900000E9466049927802B912B1F910F91FF90D5
:10091000EF900895EAE7F0E08081877F808380810F
:100920008F7780830895EAE7F0E09081987F982B95
:1009300090830895ECE7F0E090819F738295880F93
:10094000880F807C982B90830895ECE7F0E09081ED
:10095000907E8F71982B90830895EAE7F0E0808174
:1009600080618083808180648083089580917A0093
:1009700099278074907008951092670990917C0077
:10098000907E8F71982B90937C0080917A0080618B
:1009900080937A0080917A00806480937A008091BD
:1009A0007A0086FDFCCF809178002091790099270C
:1009B0003327322F2227822B932B08950E94BC04C9
:1009C0009695879596958795992708951F920F92EA
:1009D0000FB60F9211248F938FEF809367098F9139
:1009E0000F900FBE0F901F901895BC018091B90019
:1009F0008E7F8093B9008091B9008D7F8093B9007C
:100A000088EE93E00E940F23603138F0862F9927FB
:100A1000409762E070E00E9423236093B80008953D
:100A2000409A419A589A599A10924C0810924B0841
:100A300010924E0810924D0884E690E00E94F50452
:100A4000ECEBF0E080818460808310920508808167
:100A500081608083808180648083789408958E7F14
:100A600090E0611191E0892B8093BA0008959093F2
:100A70004C0880934B08089590934E0880934D083E
:100A80000895ECEBF0E080818F70806A8083089598
:100A9000ECEBF0E080818F70806D80830895809111
:100AA000BC0087FFFCCF08958093BB00ECEBF0E027
:100AB00080818F70806880830895882329F08091D9
:100AC000BC008F70806C04C08091BC008F70806807
:100AD0008093BC0008958091BB0099270895809170
:100AE000B90099270895982FFA018091BC008E7F54
:100AF0008093BC008091BC008F70806A8093BC00A2
:100B00008091BC0087FFFCCF9E7F9093BB008091BB
:100B1000BC008F7080688093BC008091BC0087FF10
:100B2000FCCF8091B900883189F091E012C08081BA
:100B30008093BB008091BC008F7080688093BC0064
:100B40008091BC0087FFFCCF31966150662379F716
:100B500090E08091BC008F70806D8093BC0080918C
:100B6000BC0084FFFCCF8091BC0081608093BC00FE
:100B7000892F992708958091050899270895CF9383
:100B8000DF93CDB7DEB722970FB6F894DEBF0FBE66
:100B9000CDBF8CEA89831A82AE014F5F5F4F62E05E
:100BA00080E90E94730522960FB6F894DEBF0FBE4F
:100BB000CDBFDF91CF910895CF93DF93CDB7DEB74F
:100BC00021970FB6F894DEBF0FBECDBF8EEE89839E
:100BD000AE014F5F5F4F61E080E90E94730521968F
:100BE0000FB6F894DEBF0FBECDBFDF91CF91089551
:100BF000CF93DF93CDB7DEB721970FB6F894DEBF62
:100C00000FBECDBF1982AE014F5F5F4F61E080E93B
:100C10000E94730520E030E0882311F421E030E0E9
:100C2000C90121960FB6F894DEBF0FBECDBFDF918C
:100C3000CF910895EF92FF920F931F93CF93DF937D
:100C4000042F79018091BC008E7F8093BC0080913D
:100C5000BC008F70806A8093BC008091BC0087FFCD
:100C6000FCCF80E98093BB008091BC008F708068CE
:100C70008093BC008091BC0087FFFCCF8AEA809300
:100C8000BB008091BC008F7080688093BC00809115
:100C9000BC0087FFFCCF0023A9F18091BC008F70BE
:100CA000806A8093BC008091BC0087FFFCCF81E903
:100CB0008093BB008091BC008F7080688093BC00E3
:100CC0008091BC0087FFFCCF102FE7010BC08FEF96
:100CD0000E945D058091BC0087FFFCCF8091BB0026
:100CE00089931150113099F70150E701C00FD11DC0
:100CF00080E00E945D058091BC0087FFFCCF809161
:100D0000BB0088838091BC008F70806D8093BC0095
:100D10008091BC0084FFFCCF8091BC0081608093F7
:100D2000BC00DF91CF911F910F91FF90EF9008953C
:100D3000CF93DF93CDB7DEB722970FB6F894DEBF1F
:100D40000FBECDBF9E012F5F3F4F42E061E080E9C3
:100D50000E941A0689819927982F88272A8133278C
:100D6000822B932B22960FB6F894DEBF0FBECDBF19
:100D7000DF91CF9108950E94100584E690E00E94D3
:100D8000F5040895CF93DF93CDB7DEB721970FB663
:100D9000F894DEBF0FBECDBF1982AE014F5F5F4F2B
:100DA00061E080ED0E94730520E030E0882311F4BB
:100DB00021E030E0C90121960FB6F894DEBF0FBEE6
:100DC000CDBFDF91CF910895CF93DF93CDB7DEB73D
:100DD00024970FB6F894DEBF0FBECDBF19824A83A9
:100DE0006B838C83AE014F5F5F4F64E080ED0E94A8
:100DF000730524960FB6F894DEBF0FBECDBFDF910A
:100E0000CF910895CF93DF93CDB7DEB724970FB678
:100E1000F894DEBF0FBECDBF94E099838A836B83C5
:100E20004C83AE014F5F5F4F64E080ED0E9473051D
:100E300024960FB6F894DEBF0FBECDBFDF91CF91E1
:100E40000895CF92DF92FF920F931F93CF93DF937A
:100E5000982FFA01F22E68018091BC008E7F80935A
:100E6000BC008091BC008F70806A8093BC00809130
:100E7000BC0087FFFCCF6623E9F0892F8E7F80932B
:100E8000BB008091BC008F7080688093BC00809113
:100E9000BC0087FFFCCF81918093BB008091BC0098
:100EA0008F7080688093BC008091BC0087FFFCCF6E
:100EB000615089F7FF20A9F18091BC008F70806A92
:100EC0008093BC008091BC0087FFFCCF9160909321
:100ED000BB008091BC008F7080688093BC008091C3
:100EE000BC0087FFFCCF1F2DE6010BC08FEF0E94D7
:100EF0005D058091BC0087FFFCCF8091BB0089938A
:100F00001150113099F7FA94E601CF0DD11D80E010
:100F10000E945D058091BC0087FFFCCF8091BB00E3
:100F200088838091BC008F70806D8093BC0080911D
:100F3000BC0084FFFCCF8091BC0081608093BC002A
:100F4000DF91CF911F910F91FF90DF90CF90089587
:100F50000F931F93CF93DF93CDB7DEB722970FB6D2
:100F6000F894DEBF0FBECDBF8A8319828E010F5F5A
:100F70001F4F21E0AE014E5F5F4F61E080ED0E94A8
:100F800021078981992722960FB6F894DEBF0FBEFC
:100F9000CDBFDF91CF911F910F9108950F931F93B4
:100FA0008B012C980E946604812F99270E94660469
:100FB000802F0E9466042C9A1F910F910895EF9242
:100FC000FF920F931F93CF93DF938C017B01EA0174
:100FD0002C9880680E94660416950795802F807C67
:100FE00003C0F70181917F010E9466042197FFEF02
:100FF000CF3FDF07B1F72C9ADF91CF911F910F916F
:10100000FF90EF9008950F931F93CF93DF938C0180
:10101000EB012C988EE303C0F80181918F010E94AF
:1010200066042197FFEFCF3FDF07B1F72C9ADF91DE
:10103000CF911F910F91089599279C01265A3E4BFD
:101040000B97880F991F880F991F820F931FBC0160
:1010500088E10E94CE0708952C980E9466042C9A7D
:1010600008952C9880E00E9466042C9A8EB59927EA
:1010700008950F931F93CF93DF938C01EB012C986E
:101080008FE70E94660406C080E00E946604F801B3
:1010900081938F012197FFEFCF3FDF07A9F72C9AAC
:1010A000DF91CF911F910F910895CF93DF93EC01C2
:1010B0002C988FE701C080E00E94660421978FEF93
:1010C000CF3FD807C1F72C9ADF91CF9108950F93A6
:1010D0001F93CF93DF93CDB7DEB723970FB6F89466
:1010E000DEBF0FBECDBF8C014B99FECF4E99FCCF1A
:1010F00089E00E942C08F8948091D608882319F47E
:1011000083E00E942C080E94310881FFFCCFF80187
:101110008481855F898361E070E0CE0101960E9441
:101120000308F8018781882319F081E698E802C056
:1011300081E498E89B838A8362E070E0CE010296A6
:101140000E94030861E070E080ED98E00E940308CF
:1011500062E070E082ED98E00E94030862E070E0D7
:10116000C80102960E94030862E070E084ED98E0F6
:101170000E940308F80164817727858196810E9487
:10118000030885E00E942C080E94310883FFF9CFF4
:101190004E9BFECF7894F8018781882311F41FEFCE
:1011A0000AC01092D1084E99FECF88EA91E60197C5
:1011B000F1F71091D108F8948091D608882319F49A
:1011C00086E00E942C0878948091D0088F5F8093ED
:1011D000D008812F992723960FB6F894DEBF0FBE53
:1011E000CDBFDF91CF911F910F9108951F920F9264
:1011F0000FB60F9211242F933F934F935F936F93EA
:101200007F938F939F93AF93BF93EF93FF93CF936E
:10121000DF93CDB7DEB72597DEBFCDBF4B9B09C0AF
:101220004C9907C088E00E942C0888E00E942C0896
:1012300087C061E070E0CE0101960E943908898183
:101240008F778983853010F4992743C0E091CE08C9
:10125000F091CF088B50858362E070E0CE01049658
:101260000E943908E091CE08F091CF088C819D81D1
:10127000A5E096958795AA95E1F781708087809182
:10128000CE089091CF0861E070E00E943908298172
:101290002530D1F48C819D810297C1F4E091CE0874
:1012A000F091CF089091D0088081891779F462E09D
:1012B00070E0CE0102960E9439088B8187FF40C002
:1012C0008FEF8093D1083CC02B3030F4822F9927C8
:1012D00003970E94550834C084E090E00E945508AE
:1012E0008091CE089091CF0862E070E001960E9454
:1012F0003908E091CE08F091CF08A091CE08B091C6
:10130000CF0865817727FD01868197810E94390882
:1013100062E070E0CE0102960E943908E091CE08AA
:10132000F091CF088A8181878C819D818F7D815446
:10133000984831F48B8187FF03C081E080937E075A
:101340002596F894DEBFCDBFDF91CF91FF91EF914D
:10135000BF91AF919F918F917F916F915F914F91CD
:101360003F912F910F900FBE0F901F9018958FEF08
:101370008093D60883E00E942C0888E00E942C0805
:10138000E99A08951092D60886E00E942C088DB341
:101390008D778DBB08951AB88AB187B987B184B9A2
:1013A00084B181B9209A239A529A8AB18C6F8AB9F2
:1013B0008BB18C678BB95A9887B1837087B988B124
:1013C000836088B9089508950F931F93CF93DF9397
:1013D0008C01C0E0D0E005C08AE090E00E94E30903
:1013E0002196C017D107C4F3DF91CF911F910F91C0
:1013F0000895109898E087FF02C0129A01C01298D1
:10140000139A1398915011F0880FF5CF109A089500
:101410000F931F93CF93DF93162F119595E0899F1C
:10142000E0011124CF5FDB4F00E0899181270E940A
:10143000F9090F5F0530C9F7DF91CF911F910F9127
:1014400008951F93CF93DF9395E0899FE0011124C6
:10145000CF54DC4F10E089910E94F9091F5F1530CD
:10146000D1F7DF91CF911F9108950F931F93082F0C
:10147000862F119880640E94F90985E0089F8001F9
:101480001124802F80680E94F909119A1F910F91F1
:101490000895DF92EF92FF920F931F93CF93DF9304
:1014A000082F862F122F642F0E94350A8FEF189F66
:1014B00070011124DE2C85E0089FE0011124C55045
:1014C000DB4F00E010E089918D250E94F9090F5F44
:1014D0001F4F05301105B9F78E2D0E94F909DF91D4
:1014E000CF911F910F91FF90EF90DF90089512B868
:1014F0008FEF81B918B887B90C9888EE93E00E94F5
:10150000E409089A0A9A0B9A149A1098119881E2A1
:101510000E94F90988EC0E94F90986E00E94F90905
:1015200083E10E94F90980E20E94F9098CE00E949F
:10153000F909119A08950F931F93CF93DF9301E058
:1015400010E0602F81E00E94350AC0E0D0E080E02A
:101550000E94F9092196CB34D105C9F70F5F1F4FBF
:101560000530110571F7DF91CF911F910F9108950B
:101570001F93CF93DF9360E080E00E94350A10E074
:1015800083E00E94F9091F5F1435D1F765E080E020
:101590000E94350A10E080EC0E94F9091F5F1435A3
:1015A000D1F7C0E0D0E06C2F80E00E94350A8FEFC9
:1015B0000E94F9098FEF0E94F9092196C630D105E2
:1015C00091F710E0612F80E10E94350A112391F01C
:1015D0001530F1F080E00E94F90980E00E94F909DD
:1015E0008FEF0E94F9098FEF0E94F9091F5F1630F3
:1015F00048F31AC083E00E94F90983E00E94F909C8
:101600008FEF0E94F9098FEF0E94F90911E0DACFFC
:1016100080EC0E94F90980EC0E94F9098FEF0E948A
:10162000F9098FEF0E94F909DF91CF911F91089579
:10163000CF92DF92EF92FF920F931F93CF93DF939E
:10164000CDB7DEB724970FB6F894DEBF0FBECDBF7F
:1016500019821A821B821C8293E0699F70011124F7
:10166000899FC001112400E210E0081B190B0E0D28
:101670001F1D20E030E06E010894C11CD11C2E1506
:101680003F051CF0201731075CF0C90168E070E0ED
:101690000E942323FB01EC0DFD1D808186950BC06C
:1016A000C90168E070E00E942323FB01EC0DFD1DE1
:1016B00080818695805880832F5F3F4F203231058F
:1016C000F1F6B1E0EB2EF12C6E010894C11CD11C97
:1016D0006E2D80E10E94350A80E00E94F909F60132
:1016E00011916F01812F0E94F909812F80950E942D
:1016F000F909812F0E94F9090894E11CF11CF5E019
:10170000EF16F10429F724960FB6F894DEBF0FBE4A
:10171000CDBFDF91CF911F910F91FF90EF90DF90A0
:10172000CF9008951F9389B18C718C31E1F319B179
:1017300089B18C718C31E1F784E690E00E94E40974
:101740004A9A4B9A4C9A1C71212F3327C9018071F8
:101750009070892B19F480E090E00CC023FD03C049
:1017600081E090E007C022FD03C082E090E002C06B
:101770008FEF90E01F910895AF92BF92DF92EF92AA
:10178000FF920F931F93CF93DF93CDB7DEB72897C8
:101790000FB6F894DEBF0FBECDBFE82EA62EBB2439
:1017A0008501000F111F000F111F0552194FF8017D
:1017B00020813327F901A4E0F695E795AA95E1F792
:1017C000CF016AE070E00E9423236F83CF016AE0BB
:1017D00070E00E9423238887F801F1804F2D552760
:1017E0002F703070220F331F220F331FCA0166E0A3
:1017F000969587956A95E1F7282B822F6AE00E94DB
:1018000003238983822F0E9403239A8335E0569510
:1018100047953A95E1F721E0D22ED4222281332751
:10182000F90194E0F695E7959A95E1F7CF016AE022
:1018300070E00E9423236B83CF016AE070E00E9476
:1018400023238C83F801A3814A2F55272F703070F2
:10185000220F331F220F331FCA0106E0969587958A
:101860000A95E1F7282B822F6AE00E9403238D83DB
:10187000822F0E9403239E8315E0569547951A9563
:10188000E1F7742F71700F2D0F701A2F1F70809158
:101890007F07A82FBB278630B9F1873080F48430CA
:1018A00040F4823008F58823A9F0813009F04EC059
:1018B00016C08430F1F0853009F048C01EC08E306B
:1018C00028F48A3050F58930F8F024C0813108F0CE
:1018D0003DC030C0F1E0FE1510F48FEF12C0AC0F28
:1018E000BD1FFD01E78232C0AC0FBD1F1197EC9206
:1018F0002DC0B1E0DB2EDE2029C0F1E0FE1520F482
:1019000084E080937F0722C0FE013297EA0FFB1F1D
:10191000E0821CC07E2D717019C08BE0E816B1F416
:101920001A9788E090E002C095958795AA95E2F70E
:1019300008270CC0EBE0EE1649F41E9788E090E013
:1019400002C095958795AA95E2F7182749816AE024
:10195000469FA00111248A81480F511DF501EE0F09
:10196000FF1FEE0FFF1FE552F94F2F81269F9001B9
:1019700011248885280F311D2295207FCA01959555
:101980008795959587958F70282B2083DD0CDD0C2E
:10199000DD0CDD0CDD0C4295440F440F407C402BE8
:1019A000D42AD1824D81469FA00111248E81480FF7
:1019B000511D2B81269F900111248C81280F311DF0
:1019C0002295207FCA0195958795959587958F706B
:1019D000282B22837295770F707E4295440F440F17
:1019E000407C412B742B738328960FB6F894DEBF8E
:1019F0000FBECDBFDF91CF911F910F91FF90EF9060
:101A0000DF90BF90AF900895CF92DF92EF92FF9258
:101A10000F931F93CF93DF937C01162FFC0101904E
:101A20000020E9F731970E2F081B642F81E00E94F8
:101A3000350A85E0189F60011124E601219615E022
:101A400004C08FEF0E94F9091F5F812F99278C171F
:101A50009D07BCF310E01FC0C0E0D0E0F70180811B
:101A60009927FC01EE0FFF1FEE0FFF1FE80FF91F74
:101A7000EC0FFD1FEF5EFC4F808180950E94F909FD
:101A80002196C530D10551F78FEF0E94F9090894CE
:101A9000E11CF11C1F5F1017F9F686E0089FC001DA
:101AA0001124182F1C0D04C08FEF0E94F9091F5F2D
:101AB0001E34D0F3DF91CF911F910F91FF90EF90E3
:101AC000DF90CF9008958F929F92AF92BF92CF9266
:101AD000DF92EF92FF920F931F93CF93DF93CDB7D7
:101AE000DEB72A970FB6F894DEBF0FBECDBF7C01DC
:101AF000B62EC42EFC0101900020E9F73197AE2EDE
:101B0000A81ADE011696E9E7F7E085E001900D924C
:101B10008150E1F7DE011196E4E7F7E085E00190FE
:101B20000D928150E1F76C2D61508B2D0E94350A8A
:101B300085E0A89E4001112400E010E003C080EC85
:101B40000E94F909802F99270F5F1F4F881599056B
:101B5000B4F36C2D8B2D81500E94350A8E010A5FE3
:101B60001F4FF80181918F010E94F909CE010B9658
:101B700008171907B1F76C2D8B2D0E94350ADD244B
:101B80001DC000E010E0F70180819927FC01EE0FF5
:101B9000FF1FEE0FFF1FE80FF91FE00FF11FEF5EB1
:101BA000FC4F808180950E94F9090F5F1F4F05301F
:101BB000110549F70894E11CF11CD394DA1409F7D4
:101BC0008E010F5F1F4FF80181918F010E94F9096B
:101BD000CE01069608171907B1F7C3946C2D8B2D0B
:101BE0000E94350A00E010E003C083E00E94F9097A
:101BF000802F99270F5F1F4F88159905B4F32A96F8
:101C00000FB6F894DEBF0FBECDBFDF91CF911F910D
:101C10000F91FF90EF90DF90CF90BF90AF909F908B
:101C20008F900895EF92FF920F931F93CF93DF93BE
:101C30008C01862FE22EF80101900020E9F7319700
:101C4000FE2EF01A642F0E94350A20C0C0E0D0E0BA
:101C5000F80180819927FC01EE0FFF1FEE0FFF1F97
:101C6000E80FF91FEC0FFD1FEF5EFC4F80810E9413
:101C7000F9092196C530D10559F7F1E0EF1619F4AD
:101C800080E00E94F9090F5F1F4FFA94FF20F1F6E0
:101C9000DF91CF911F910F91FF90EF9008950E94D7
:101CA0009B0A21E041E062E080E091E00E94120E98
:101CB00021E042E062E089E091E00E94120E21E022
:101CC00043E062E082E191E00E94120E0895DF920B
:101CD000EF92FF920F931F93CF93DF93F82EE42E92
:101CE00043E0481710F0082F01C004E06C3009F001
:101CF0004AC052E0E51621F4015000937F070F5FC0
:101D000020917F07E02FFF273197822F99278E1789
:101D10009F0724F42F5F20937F0785C0CF2DDD27F9
:101D2000EF57F64F808199279E012150304082174E
:101D3000930711F030E024C010927F0780E006C0C6
:101D4000E82FFF27EF57F64F80838F5F8F15C1F77E
:101D50006AC0E32FFF27EF57F64F8081992701963E
:101D6000BE010E942323282F808382E0E81639F4E5
:101D7000822F99270196BE010E94232380833F5F13
:101D80003F1539F750C06D3009F04DC092E0E916AB
:101D900019F410927F0708C080917F07882321F0F3
:101DA000815080937F073FC080918109882311F083
:101DB00010E037C0015000937F070F5F40E02F2DE8
:101DC0003327E901C01BD1090CC0E42FFF27CE0146
:101DD0008E0F9F1FB9010E942323EF57F64F808378
:101DE0004F5F4F1591F71FC0E12FFF272F2D33278E
:101DF000EF57F64F8081A901480F511DCA01019785
:101E0000B9010E942323482F808352E0E51641F454
:101E1000C901840F911D0197B9010E94232380837A
:101E20001F5F1F1509F70E949B0A10E0C0E0D0E079
:101E300051E0D52E94C081E0E81661F1E81648F033
:101E400092E0E91609F449C044E0E41609F084C0C0
:101E50005EC080917F07E12FFF27811761F4EF5764
:101E6000F64F80812FE0829FC00111244D2D61E04B
:101E70008B5B994F20C0CE018F5F482FEF57F64FF5
:101E800080812FE0829FC001112421E061E08B5B03
:101E9000994F60C080917F07E12FFF27811771F470
:101EA000EF57F64F808126E0829FC00111244D2D0F
:101EB00061E08B5F9A4F0E94040D4EC0CE018F5F90
:101EC000482FEF57F64F808126E0829FC0011124F2
:101ED00021E061E08B5F9A4F3DC0E12FFF27EF5774
:101EE000F64FE081CE018F5F482FE0FD07C08AE00A
:101EF000E89FC001112421E061E006C08AE0E89F6C
:101F0000C001112421E06AE08F509A4F23C08091D4
:101F10007F07811709F5E12FFF27EF57F64FE08183
:101F20002E2F33278F2D992701972817390749F02E
:101F300087E0E89FC00111244D2D61E08B599A4F35
:101F4000BACF87E0E89FC001112421E04D2D61E068
:101F50008B599A4F0E94120E1F5FD394219610172F
:101F600009F069CFE0917F0792E0E91641F4FF277D
:101F7000EF57F64F608166958F2D869505C0FF2738
:101F8000EF57F64F60818F2D0E94180BDF91CF9194
:101F90001F910F91FF90EF90DF900895CF92DF9205
:101FA000EF92FF920F931F93CF93DF93082FC42ECE
:101FB000843010F4E82E02C014E0E12E6C3021F0E1
:101FC0006D3009F073C038C020917F07EE2DFF27D8
:101FD0003197822F99278E179F0724F42F5F209324
:101FE0007F0764C0C02FDD27EF57F64F8081992708
:101FF0009E01215030408217930711F020E019C054
:1020000010927F0780E006C0E82FFF27EF57F64FBA
:1020100080838F5F8017C1F749C0E22FFF27EF57FA
:10202000F64F808199270196BE010E942323808369
:102030002F5F201791F73AC080917F07882321F006
:10204000815080937F0732C080918109882311F0ED
:1020500020E02AC0EA94E0927F07E39440E0202F3A
:102060003327E901CE19D1090CC0E42FFF27CE0197
:102070008E0F9F1FB9010E942323EF57F64F8083D5
:102080004F5F401791F712C0E22FFF27602F77278D
:10209000EF57F64F8081AB01480F511DCA010197E0
:1020A0000E94232380832F5F201771F70E949B0AD1
:1020B000DD2468C080917F07FD2CF394ED2DFF2770
:1020C0008D1569F5EF01CF57D64F888127E0829FA4
:1020D000C00111244F2D61E08B599A4F0E94040DCD
:1020E00051E0C51651F4E881FF27EE0FFF1FEE0FF8
:1020F000FF1FE552F94F838110C0CC2009F041C089
:1021000088819927FC01A3E0EE0FFF1FAA95E1F754
:10211000E81BF90BEB59FA4F868121E02DC08F01A6
:102120000F57164FF801808127E0829FC0011124CC
:1021300021E04F2D61E08B599A4F0E94120EF80159
:102140000081F1E0CF1651F4E02FFF27EE0FFF1FC3
:10215000EE0FFF1FE552F94F83810DC0802F9927A5
:10216000FC0163E0EE0FFF1F6A95E1F7E81BF90B36
:10217000EB59FA4F868120E04F2D6FE081700E946D
:10218000490AD394DE1409F095CFDF91CF911F91C6
:102190000F91FF90EF90DF90CF9008959F92AF92B4
:1021A000BF92CF92DF92EF92FF920F931F93CF9344
:1021B000DF93CDB7DEB766970FB6F894DEBF0FBEDC
:1021C000CDBFFE013996A6E6B7E09EE00D900192E4
:1021D0009150E1F7E82EFF24F701EE0FFF1FEE0FFD
:1021E000FF1FE552F94F8081082F1127A4E01695B3
:1021F0000795AA95E1F74181242F33277FE0D72E59
:10220000D822DD0CDD0CC90166E0969587956A95AC
:10221000E1F7D80E8281A82EBB2454E0B694A7948F
:102220005A95E1F793818F70880F880FC92EC69455
:10223000C694C694C694C694C694C80E942E990C9F
:10224000990C990C990C9E70990E25FF02C020E5FF
:1022500001C021E4C8016AE070E00E942323605DB0
:102260006983C8016AE070E00E942323805D8A834D
:102270008AE38B838D2D6AE00E940323805D8C832B
:102280008D2D0E940323905D9D832E831F820E94CB
:10229000B80A21E041E061E08BE191E00E94120E7A
:1022A00021E041E067E0CE0101960E94120EEE0CA3
:1022B000FF1CEE0CFF1C8BED96E0E80EF91EF701FB
:1022C000838185FF02C020E501C021E4C5016AE0E9
:1022D00070E00E942323805D8A83C5016AE070E07C
:1022E0000E942323605D69838AE38B838C2D6AE0DF
:1022F0000E940323805D8C838C2D0E940323905DBC
:102300009D832E831F8221E042E061E081E291E023
:102310000E94120E21E042E067E0CE0101960E9489
:10232000120E8E01075F1F4F602F6C1B685020E05C
:1023300043E0C8010E94120E0E5F1F4FCE01479668
:102340000817190789F721E042E067E0CE010196FE
:102350000E94120E00E010E0602F660F6F5F892D63
:102360009927002E02C0880F991F0A94E2F7880F60
:10237000892F881F990B919520E044E081700E947D
:10238000490A0F5F1F4F0730110531F766960FB6E8
:10239000F894DEBF0FBECDBFDF91CF911F910F919B
:1023A000FF90EF90DF90CF90BF90AF909F900895F7
:1023B0009F92AF92BF92CF92DF92EF92FF920F93D4
:1023C0001F93CF93DF93CDB7DEB722970FB6F89464
:1023D000DEBF0FBECDBF9888C988DA88CE0143968C
:1023E0009A83898305C0882309F479C00E94BA01C1
:1023F00096012F5F3F4F992021F0F60169018491EA
:1024000003C0F60180816901853269F72F5F3F4F74
:10241000992021F0F6016901849103C0F6018081C1
:102420006901843609F451C0883751F08336F1F6DA
:10243000E981FA813296FA83E98332978081D6CF97
:10244000E981FA813296FA83E9831291029130E1AF
:10245000E32EF12C20E1A22EB12C1EC01095019587
:102460001F4F8DE20E94BA0190E1E92E97E2F92E0A
:1024700020E030E00BC0C7016AE070E00E940F234B
:102480007B012F5F3F4F2430310519F00E151F05DA
:1024900090F38AE0A82EB12CC801B7010E940F2347
:1024A000FB01EB5EFD4FE4918E2F0E94BA01C80143
:1024B000B7010E940F238C01C701B5010E940F23B1
:1024C0007B01672B09F494CFE7CFE981FA8132963B
:1024D000FA83E98312910291112334F6BFCF80E091
:1024E00090E022960FB6F894DEBF0FBECDBFDF910D
:1024F000CF911F910F91FF90EF90DF90CF90BF9001
:10250000AF909F900895389A399A3A9A3B9A3C989E
:102510003D983E983F98439A429A419A4098E4EDFC
:10252000F0E3CF010197F1F734991AC03197F1F731
:102530008AED91E09F938F9381E08F930E94D81151
:102540000F900F900F90349BFECF88ED91E09F93FA
:102550008F9381E08F930E94D81183E090E013C1A4
:1025600035990FC03197F1F7359BFECF86ED91E09D
:102570009F938F9381E08F930E94D8118AE090E01F
:1025800002C136990FC03197F1F7369BFECF84ED2B
:1025900091E09F938F9381E08F930E94D81189E0FF
:1025A00090E0F1C037990FC03197F1F7379BFECF1C
:1025B00082ED91E09F938F9381E08F930E94D811D9
:1025C00086E090E0E0C0439A429A409A4198E4ED58
:1025D000F0E3CF010197F1F734991AC03197F1F781
:1025E00080ED91E09F938F9381E08F930E94D811AB
:1025F0000F900F900F90349BFECF8EEC91E09F9345
:102600008F9381E08F930E94D8118EE090E0BBC041
:1026100035990FC03197F1F7359BFECF8CEC91E0E7
:102620009F938F9381E08F930E94D8118FE090E069
:10263000AAC036990FC03197F1F7369BFECF8AECCE
:1026400091E09F938F9381E08F930E94D8118CE04B
:1026500090E099C037990FC03197F1F7379BFECFC3
:1026600088EC91E09F938F9381E08F930E94D81123
:102670008DE090E088C0439A409A419A4298E4EDF8
:10268000F0E3CF010197F1F734990FC03197F1F7DB
:10269000349BFECF86EC91E09F938F9381E08F93E4
:1026A0000E94D81182E090E06EC035990FC031973A
:1026B000F1F7359BFECF84EC91E09F938F9381E0FF
:1026C0008F930E94D81180E090E05DC036990FC0D2
:1026D0003197F1F7369BFECF81EC91E09F938F937A
:1026E00081E08F930E94D81188E090E04CC0379928
:1026F0000FC03197F1F7379BFECF8EEB91E09F93A0
:102700008F9381E08F930E94D81185E090E03BC0C9
:10271000429A409A419A4398CF010197F1F7349930
:1027200011C084EC99E00197F1F7349BFECF8BEB5D
:1027300091E09F938F9381E08F930E94D81181E065
:1027400090E021C035990FC03197F1F7359BFECF4E
:1027500088EB91E09F938F9381E08F930E94D81133
:102760008BE090E010C0369912C03197F1F7369B9C
:10277000FECF85EB91E09F938F9381E08F930E9432
:10278000D81187E090E00F900F900F90089537993F
:10279000C2CE3197F1F7379BFECF82EB91E09F934A
:1027A0008F9381E08F930E94D81184E090E00F9086
:1027B0000F900F900895AF92BF92CF92DF92EF9259
:1027C000FF920F931F93CF93DF93CDB7DEB7E297BE
:1027D0000FB6F894DEBF0FBECDBF082F162FDE0157
:1027E0001B96EEE3F7E088E201900D928150E1F74D
:1027F0000E949B0A002339F487E0189F800111246E
:102800000B591A4F06C086E0189F80011124015011
:102810001B4F6801BE016F5F7F4F8AC0D5018C914D
:10282000E81619F4FB01F08221832F5F3F4F0894D3
:10283000A11CB11C2430310589F74F5F5F4F4A302E
:10284000510509F065C00894C11CD11C6E5F7F4F13
:10285000CE010B966817790709F06AC021E042E0C3
:1028600062E0C8010E94120E0E948312482F81501C
:102870008930F8F480917F07282F3327F901EE0F74
:10288000FF1FCE010196E80FF91F8081841749F4DC
:1028900081819927019664E070E00E94232381835F
:1028A00001C01182220F331F2C0F3D1FF9014183FC
:1028B00011C04C3031F480917F078430F0F58F5F88
:1028C00007C04D30D1F580917F078823B1F1815049
:1028D00080937F079801DE011196BD01AE01455F2F
:1028E0005F4FFD018181EC91FF27EE0FFF1FEE0F7F
:1028F000FF1FE60FF71FE80FF11D8285F901819395
:102900009F011296A417B50761F7F8011582A6CFAB
:10291000F42EFBE0AF2EB12CAC0EBD1ECA01880F09
:10292000991F880F991FA80EB91E20E030E076CFBE
:10293000D601EC9040E050E0EBCF80E090E0E296F2
:102940000FB6F894DEBF0FBECDBFDF91CF911F91C0
:102950000F91FF90EF90DF90CF90BF90AF900895D0
:10296000FF920F931F93CF93DF93E82FFF27EE0F74
:10297000FF1FEE0FFF1FE552F94F8081C82FDD27A3
:102980009E01A4E036952795AA95E1F74181028141
:10299000F380C9016AE070E00E9423231AE0619F7E
:1029A000F0011124C9016AE070E00E942323E80FBE
:1029B000F11DED30F1050CF057C0EF2B09F454C0B8
:1029C000CF70D070CC0FDD1FCC0FDD1F4295469528
:1029D000469543704C2B842F6AE00E940323819F0D
:1029E00090011124842F0E940323290F311D2C33C1
:1029F0003105D4F5C02FDD279E01E4E036952795FB
:102A0000EA95E1F7C9016AE070E00E942323619F23
:102A1000F0011124C9016AE070E00E942323E80F4D
:102A2000F11DED30F10504F5EF2BF1F0CF70D07012
:102A3000CC0FDD1FCC0FDD1F4F2D429546954695DF
:102A400043704C2B842F6AE00E940323819F9001E6
:102A50001124842F0E940323290F311D2C333105AB
:102A60001CF480E090E00DC00E949B0A21E042E04F
:102A700062E087E291E00E94120E0E94831281E0E0
:102A800090E0DF91CF911F910F91FF9008950F93E8
:102A90001F9380935108709353086093520850938A
:102AA000550840935408209356082A5F2093A309A1
:102AB00026501093A2090093A1098093B109609355
:102AC000B209672F77276093B3094093B409852F24
:102AD00099278093B5092093B6095F934F938AE0B5
:102AE00092E09F938F9381E08F930E94D811809101
:102AF0005608282F33272A5F3F4F96E00F900F90FC
:102B00000F900F900F9008C0FD01EF5AF74F808192
:102B1000AF54B64F8C939F5FA92FBB27A217B30763
:102B20009CF310E009C01F5F84ED90E30197F1F77B
:102B3000163011F480E007C08FE999E00E94670821
:102B4000882389F381E099271F910F910895FF92BF
:102B50000F931F93E091CE08F091CF080680F78184
:102B6000E02D808180935108E091CE08F091CF084C
:102B70000680F781E02D218133273093530820937D
:102B80005208E091CE08F091CF080680F781E02D41
:102B900082819927982F8827282B392B3093530827
:102BA00020935208E091CE08F091CF080680F7817B
:102BB000E02D238133273093550820935408E0916A
:102BC000CE08F091CF080680F781E02D8481992707
:102BD000982F8827282B392B309355082093540899
:102BE000E091CE08F091CF080680F781E02D858135
:102BF0008093560896E010C0E091CE08F091CF087F
:102C0000A92FBB270680F781E02DEA0FFB1F8081EB
:102C1000AF5AB74F8C939F5FE091CE08F091CF08E9
:102C20008581981748F380915408909155089F9397
:102C30008F938CEF91E09F938F9381E0F82EFF921A
:102C40000E94D81140915408509155080F900F9050
:102C50000F900F900F9082E14533580771F48091E7
:102C600057088B3BB1F58CEE91E09F938F93FF92C9
:102C70000E94D8110E944F0E29C060915208709195
:102C800053088A0120915608809151080E944715E7
:102C9000882319F084EE91E014C08EE480935708E5
:102CA00081E48093580840915208509153088A015A
:102CB0002091560865E372E18FEF0E9447158CED75
:102CC00091E09F938F93FF920E94D8110F900F90E5
:102CD0000F901F910F91FF9008959F92AF92BF9216
:102CE000CF92DF92EF92FF920F931F93CF93DF93D8
:102CF000CDB7DEB761970FB6F894DEBF0FBECDBF7C
:102D0000DE011A96E6E6F1E083E001900D92815033
:102D1000E1F7DE011196E9E6F1E083E001900D9222
:102D20008150E1F7DE011496ECE6F1E083E00190DA
:102D30000D928150E1F7DE011796ECE6F1E083E0B9
:102D400001900D928150E1F7DE011D96EFE6F1E072
:102D500085E001900D928150E1F783E08093570860
:102D600084E08093580802E312E122E045E452E156
:102D700065E372E181E00E944715882319F08AEA31
:102D800091E002C08EE891E09F938F9381E08F9352
:102D90000E94D8110F900F900F9020E0E8EAF1E622
:102DA000CF010197F1F72F5F2A30D1F720917E07ED
:102DB000213061F482E891E09F938F932F930E94DA
:102DC000D8110E94A7150F900F900F9080915B086B
:102DD00099279F938F9304E311E01F930F93CE01E4
:102DE0000A969F938F930E949B1F80915A08992760
:102DF0009F938F931F930F93CE0101969F938F9371
:102E00000E949B1F80915C08811181E0982E809127
:102E1000570899279F938F931F930F93CE01049682
:102E20009F938F930E949B1F8091580899279F938F
:102E30008F931F930F93CE0107969F938F930E94BA
:102E40009B1F8091590899279F938F9389E391E065
:102E50009F938F93CE010D969F938F930E949B1FFC
:102E60000E949B0A0E94B80A21E041E061E080E4F0
:102E700091E00E94120E1FEF8DB79EB74E960FB6CF
:102E8000F8949EBF0FBE8DBF21E042E063E0CE010B
:102E90000A960E94120E21E042E065E085E491E08E
:102EA0000E94120E21E042E066E0CE0101960E94EF
:102EB000120E91E0991619F087E491E002C089E4BE
:102EC00091E021E042E069E00E94120E21E043E03F
:102ED00061E08BE491E00E94120E21E044E063E0A7
:102EE000CE0104960E94120E21E044E065E085E4E4
:102EF00091E00E94120E21E044E066E0CE010796C8
:102F00000E94120E21E044E068E085E491E00E9416
:102F1000120E21E044E069E0CE010D960E94120EEF
:102F20000E948312282F8F3009F472C08E3009F46A
:102F300069C18D3021F4812F99270C9605C08C3002
:102F400049F4812F992701966DE070E00E942323B8
:102F5000182FE6CF8A3020F7812F992701966DE050
:102F600070E00E942323182F8630E9F1873078F42F
:102F7000823019F1833030F48823C9F0813009F0B0
:102F800047C018C0843019F1853050F51DC0893014
:102F900099F18A3028F4873049F18830C9F529C081
:102FA0008B3081F18B3058F18C3091F52EC0205D43
:102FB0002A876ACF205D2B8767CF822F66E00E9429
:102FC0000323905D99836ECF205D2A836BCF892D7B
:102FD0009927019662E070E00E942323982E62CF29
:102FE000205D2C837ACF205D2D8377CF205D2F83CA
:102FF00082CF205D28877FCF205D2D878ACF205DFF
:103000002E8787CF205D2F8784CF205D288B81CFAF
:10301000CE010D960E94751F7C01CE0107960E947D
:10302000751F5C01CE0104960E94751F6C01CE01D4
:103030000A960E94751F8C01CE0101960E94751F91
:103040000D3010F48D3340F00E949B0A21E042E0E5
:1030500062E080E591E023C09A2D8C2D923051F4EE
:1030600023E0E222FF24EF2819F48E3188F41DC0FA
:103070008D3170F4803260F48F3141F4943041F03E
:10308000963031F0993021F09B3011F09D3068F08E
:103090000E949B0A21E042E062E08BE591E00E9401
:1030A000120E0E9483120E946D16CE010D960E9490
:1030B000751F6C01CE0107960E94751F7C01CE0121
:1030C00004960E94751F8C01CE010A960E94751FFE
:1030D0005C01CE0101960E94751FFC01802F6AE001
:1030E0000E940323282F332714E0220F331F1A9541
:1030F000E1F7802F0E940323922B909358088E2D86
:103100000E940323282F3327B4E0220F331FBA95E0
:10311000E1F78E2D0E940323922B90935908C6014C
:1031200064E670E00E9423236AE070E00E9423239B
:103130009B01A4E0220F331FAA95E1F7C6016AE0C4
:1031400070E00E942323822B80935A088E2F6AE01E
:103150000E940323282F3327F4E0220F331FFA9510
:10316000E1F78E2F0E940323922B90935C088A2D07
:103170000E940323282F332774E0220F331F7A95F0
:10318000E1F78A2D0E940323922B90935D08909281
:103190005E0888E08093570886E080935B0802E32E
:1031A00012E128E045E452E165E372E181E00E942A
:1031B0004715882319F088E791E002C08CE591E07B
:1031C0009F938F9381E08F930E94D8110F900F905F
:1031D0000F9020E0E8EAF1E6CF010197F1F72F5FC9
:1031E0002A30D1F720917E07213061F480E591E00B
:1031F0009F938F932F930E94D8110E94A7150F9031
:103200000F900F9061960FB6F894DEBF0FBECDBF42
:10321000DF91CF911F910F91FF90EF90DF90CF90B2
:10322000BF90AF909F900895FF920F931F93CF93FD
:10323000DF93CDB7DEB724970FB6F894DEBF0FBE8D
:10324000CDBF8C01F62E5A8349833C832B8380911A
:1032500069008C6080936900E19AE99AF8940E9471
:103260004304249A2C9A54985398559856985C9AEB
:103270005B9A5D9A5E9A60E070E080E10E94CE0702
:1032800060E078EF80E10E94CE0781E00E942C0888
:103290006FE077EA84E10E94CE0762EF7AE081E195
:1032A0000E94CE0760E075E082E10E94CE0760E0F8
:1032B00070E08EE20E94CE0760E470E08CE10E9434
:1032C000CE0764EC71E089E10E94CE076FEF70EAEF
:1032D00085E10E94CE078F2D0E941C0878941093E0
:1032E000CF080093CE0889819A819093D308809368
:1032F000D2088B819C819093D5088093D40810923A
:10330000D0081092D60883E192E09F938F9381E0DA
:103310008F930E94D8110F900F900F900E94310848
:1033200086FFFCCF81E192E09F938F9381E08F93A2
:103330000E94D811F89442E050E0BE016D5F7F4FCB
:103340008AE691E00E94DF0742E050E0BE016F5F35
:103350007F4F88E691E00E94DF0778940F900F90EE
:103360000F9024960FB6F894DEBF0FBECDBFDF914D
:10337000CF911F910F91FF9008950E94CB09239A3E
:103380002B988AEF90E0FC013197F1F75A98FC01F5
:103390003197F1F72B98FC013197F1F75A9AFC011C
:1033A0003197F1F72B9A0197F1F70E947A0160E6C5
:1033B00079E080E090E00E945E018AE991E09093DC
:1033C00004088093030825E332E14DEC5BEA65E1F4
:1033D00088ED98E00E9414190895EF92FF920F93E0
:1033E0001F93CF93DF930E94BD191FEF17B98CE491
:1033F00091E09F938F9301E00F930E94D8110E9458
:10340000080288E491E09F938F930F930E94D81154
:1034100018B91093A60981EB99E09093A5098093C0
:10342000A40985EE98E09093DF088093DE080E945F
:10343000B70914980E94770A8DB79EB706960FB603
:10344000F8949EBF0FBE8DBF60E081E00E94350AF8
:10345000EE24FF242FC389910E94F9091F5F1830C1
:10346000D1F70894E11CF11C9FE3E916F10409F07F
:1034700021C320E0E0E5F3ECCF010197F1F72F5FE6
:103480002A30D1F714988FEF80935708E8E5F8E0D9
:1034900082E081938F5F8536E1F702E312E125E652
:1034A00045E452E165E372E181E00E94471588231B
:1034B00019F080E491E002C084E291E09F938F9341
:1034C00081E08F930E94D8110F900F900F9020E011
:1034D000E8EAF1E6CF010197F1F72F5F2A30D1F743
:1034E00020917E07213061F488E191E09F938F93D2
:1034F0002F930E94D8110E94A7150F900F900F9044
:1035000083E08093570884E08093580802E312E137
:1035100022E045E452E165E372E181E00E94471553
:10352000882319F080E191E002C084EF90E09F933E
:103530008F9381E08F930E94D8110F900F900F907E
:1035400020E0E8EAF1E6CF010197F1F72F5F2A309A
:10355000D1F720917E07213061F488EE90E09F93AF
:103560008F932F930E94D8110E94A7150F900F9050
:103570000F90149A0E94B80A0E949B0A80915908E1
:1035800099279F938F938091580899279F938F93A2
:103590008091570899279F938F9384E791E09F9399
:1035A0008F9383E397E09F938F930E949B1F8DB728
:1035B0009EB70A960FB6F8949EBF0FBE8DBF80913E
:1035C0005C08882319F080E590E002C081E490E077
:1035D0009F938F9380915A0899279F938F938091FF
:1035E0005B0899279F938F9381E891E09F938F9336
:1035F0000BE217E01F930F930E949B1F20E041E016
:1036000064E083E397E00E94120E20E042E065E070
:10361000C8010E94120E44E064E08CE891E00E9430
:10362000040D8DB79EB70A960FB6F8949EBF0FBED5
:103630008DBF0E9483128F3009F062CF10927F07F6
:103640000E949B0A1092810981E08093820982E0A6
:103650008093830983E08093840984E080938509C3
:1036600085E08093860940E060E086E00E94670E76
:103670000E948312682F8C50823010F440E0F5CF06
:103680006E3009F43DCF6F3099F7E0917F07FF2747
:10369000EF57F64FE08093E0E91619F40E946D169B
:1036A0002FCF10927F070E949B0A1092810981E020
:1036B0008093820982E08093830983E08093840968
:1036C00084E08093850985E08093860941E060E08D
:1036D00086E00E94670E0E948312682F8C50823011
:1036E00010F441E0F5CF6E3009F4A8CF6F3099F7B0
:1036F000E0917F07FF27EF57F64F60816F5FEE2065
:1037000039F010927F0781E0E81609F0F1C08AC015
:1037100041E0F42EF092580882E080935708462F3B
:1037200055274C5B5D4E02E312E122E065E372E156
:1037300081E00E944715882319F080EE90E002C0D6
:1037400084EC90E09F938F93FF920E94D8110F908A
:103750000F900F9020E0E8EAF1E6CF010197F1F732
:103760002F5F2A30D1F720917E07213061F488EB5A
:1037700090E09F938F932F930E94D8110E94A715DA
:103780000F900F900F900BEF15E06091590877277D
:103790008827992724E630E040E050E00E94E422A8
:1037A000672F782F892F99279F938F937F936F93FC
:1037B0008091580899279F938F9384E991E09F9374
:1037C0008F931F930F930E949B1F0C5E1F4F80913E
:1037D000570899279F938F938CE991E09F938F933C
:1037E0001F930F930E949B1F42E060E088E00E94BD
:1037F000670E8DB79EB740960FB6F8949EBF0FBE6A
:103800008DBF0E948312682F8C50823028F442E0D2
:103810008AE00E94670EF5CF6E3009F442CF6F3018
:1038200081F76ECE80E090E0E1E8F9E081930196C7
:103830008A309105D9F740E060E08AE00E94CE0F1F
:103840000E948312682F8C50823010F440E0F5CF34
:103850006B30B9F4E0917F07FF27EF57F64F808177
:103860009927FC0123E0EE0FFF1F2A95E1F7E81BE3
:10387000F90BEB59FA4F86818095868340E064E12D
:10388000DCCF6E3009F40DCF6F30D1F68AEA809329
:10389000570880916B05817080935808809172055C
:1038A00081708093590802E312E123E045E452E17C
:1038B00065E372E181E00E944715882319F080EBEF
:1038C00090E002C084E990E09F938F9381E08F9312
:1038D0000E94D8110F900F900F9020E0E8EAF1E6D7
:1038E000CF010197F1F72F5F2A3009F409CEF8CF05
:1038F00094E0E91621F410927F0781E029C085E069
:10390000E81649F580E090E0E8E6F9E08193019659
:1039100084319105D9F780E090E0E1E8F9E0819306
:10392000019685319105D9F744E060E085E10E9478
:10393000670E0E948312682F8C50823010F444E08E
:10394000F5CF6F30B1F710927F076091810980E069
:103950000E94DB1373CE92E0E91609F0A9C080E063
:1039600090E0E1E8F9E0819301968A309105D9F77A
:1039700041E060E08AE00E94CE0F0E948312682F2F
:103980008C50823010F441E0F5CF6B30A1F4E0911F
:103990007F07FF27EF57F64FE081FF27EE0FFF1F4E
:1039A000EE0FFF1FE552F94F838191E08927838352
:1039B00041E063E1DFCF6E3009F473CE6F30E9F69A
:1039C000E0917F07FF27EF57F64F00810E949B0A87
:1039D00060E0802F0E94CE1010927F070E94831219
:1039E000182F8A3010F08B3029F4602F812F0E941D
:1039F000BC0B14C08C3039F480917F07803108F003
:103A000068C08F5F08C08D3049F480917F0788239C
:103A100009F45AC0815080937F0756C060E0802F20
:103A20000E94CE101E3009F49ACF1F30B9F6802FB5
:103A30000E94B014813051F28BEA80935708E02F36
:103A4000FF27EE0FFF1FEE0FFF1FE552F94F80819A
:103A500080935808818180935908828180935A0805
:103A6000838180935B0802E312E125E045E452E1A3
:103A700065E372E181E00E944715882319F08CE824
:103A800090E002C080E790E09F938F9381E08F9356
:103A90000E94D8110F900F900F9020E0E8EAF1E615
:103AA000CF010197F1F72F5F2A3009F429CDF8CF24
:103AB0001498FFCFE70103E0CC0FDD1F0A95E1F773
:103AC000CF55DE4F10E0C7CC60E0802F0E94CE10B3
:103AD000ACCF60E0802F0E94CE1080CF982FDA010B
:103AE000809105088823E1F783E0809305089160C1
:103AF000909306081092490860934A088091BC0090
:103B00008F70806A8093BC00809105088823E1F75C
:103B100090E007C0E92FFF27E75DF74F80818D9385
:103B20009F5F9617B9F70895982FDA0180910508DD
:103B30008823E1F782E0809305089E7F9093060832
:103B400090E007C08D91E92FFF27E95FF74F808351
:103B50009F5F9617B9F71092270860932808809105
:103B6000BC008F70806A8093BC0008951F920F92F2
:103B70000FB60F9211242F933F934F935F936F9340
:103B80007F938F939F93AF93BF93EF93FF93809116
:103B9000B900887F803609F4A5C0813670F5883277
:103BA00009F45FC0893298F4803109F457C081313B
:103BB00038F4882309F4EEC0883009F0F3C04EC011
:103BC000883109F44EC0803209F0ECC0E3C0803483
:103BD00009F47DC0813438F4803309F4DBC08833C4
:103BE00009F0E0C063C0803509F465C0883509F488
:103BF00050C0883409F0D6C0CDC0883909F488C0D7
:103C00008939B0F4883709F46DC0893738F48836BB
:103C100009F468C0803709F0C5C064C0883809F469
:103C200077C0803909F464C0803809F0BBC060C037
:103C3000803B09F483C0813B38F4803A09F46CC0BE
:103C4000883A09F0AFC07AC0803C09F49EC0883C35
:103C500009F49BC0883B09F0A5C081C0809106088B
:103C60000FC09091270880912808981708F092C0FB
:103C7000E92FFF27E95FF74F80819F5F9093270827
:103C80008093BB008091BC008F7080688093BC00E3
:103C900089C0809149089091BB00E82FFF27E75D1C
:103CA000F74F90838F5F8093490874C08091BC0068
:103CB0008F70806873C0809149089091BB00E82F95
:103CC000FF27E75DF74F90838F5F8093490820912E
:103CD0004908332780914A089927019728173907FF
:103CE000ACF016C085E0809305081092490848C0E2
:103CF000809149089091BB00E82FFF27E75DF74FBF
:103D000090838F5F80934908803210F48FEF01C059
:103D100080E00E945D0546C08091BC008F70806C81
:103D20008093BC00E0914B08F0914C083097C1F1B2
:103D300069E278E080914908099532C084E0809377
:103D40000508E0914D08F0914E08309731F067E09A
:103D500078E080E2099580932808109227089091D6
:103D60002708E92FFF27E95FF74F80818093BB0089
:103D70009F5F9093270880912808981708F082CFBA
:103D80008091BC008F70806C81CF8091BC008F705F
:103D9000806C04C08091BC008F70806D8093BC00EB
:103DA00010920508FF91EF91BF91AF919F918F9174
:103DB0007F916F915F914F913F912F910F900FBE27
:103DC0000F901F9018951F93CF93DF93982F162F66
:103DD000EA018091BC008E7F8093BC008091BC0082
:103DE0008F70806A8093BC008091BC0087FFFCCFFD
:103DF00091609093BB008091BC008F70806880932D
:103E0000BC008091BC0087FFFCCF8091B90080345A
:103E100069F091E018C08FEF0E945D058091BC00B1
:103E200087FFFCCF8091BB0089931150123098F727
:103E300080E00E945D058091BC0087FFFCCF8091EF
:103E4000BB00888390E08091BC008F70806D809370
:103E5000BC008091BC0081608093BC00892F9927B1
:103E6000DF91CF911F9108950E947A018AE991E034
:103E7000909304088093030860E679E080E090E086
:103E80000E945E0108950F931F930AE710E0F80166
:103E900080818068808380818F7D80838081887F1E
:103EA0008660808381E00E949A04ECE7F0E08081E4
:103EB0008F7D8083F80180818860808310926709FC
:103EC00078941F910F9108958FEF8093E30887EA0C
:103ED00099E00E94FD02982F809150088823E1F319
:103EE0009093C600109250080895FC0188279927E6
:103EF000E89421912032E9F3293010F02E30C8F3F4
:103F00002B3241F02D3239F4689404C00E94931F83
:103F1000820F911D219120532A30C0F31EF49095F9
:103F200081959F4F08957AE0979F902D879F802DD0
:103F3000910D112408950F931F93CF93DF93CDB765
:103F4000DEB760970FB6F894DEBF0FBECDBF0F8906
:103F5000188D86E08E831C830B838FEF9FE79887F5
:103F60008F83AE01455E5F4F5A834983698D7A8D99
:103F7000CE0103960E94CD1F29853A85020F131F9B
:103F8000F801108260960FB6F894DEBF0FBECDBF69
:103F9000DF91CF911F910F9108952F923F924F92F1
:103FA0005F926F927F928F929F92AF92BF92CF92C9
:103FB000DF92EF92FF920F931F93CF93DF93CDB7D2
:103FC000DEB764970FB6F894DEBF0FBECDBFCC242A
:103FD000DD2476011C017C8B6B8B2A01FC0117828E
:103FE0001682838181FD03C08FEF9FEF88C2AA24D0
:103FF000BB2472C2A0FE57C28A8980538A30E8F47B
:10400000FA89F03341F42D85222329F4A3FC03C05F
:1040100080E091E06FC08AE0ED85E802C0011124E4
:10402000FA89F80FF053FD87F7FF02C02FE72D87BD
:10403000A3FC4CC23D853E8749C2C5018870907083
:10404000A3FE05C0ED85EE2311F4F1E0FD872A897A
:10405000283624F525360CF05BC0233509F480C0E2
:1040600024358CF42B32C1F12C3234F42032C1F1DE
:10407000233209F00DC23CC03A893D32B1F13E32E3
:1040800009F006C23AC08A89833609F449C08436E9
:104090000CF081C0883509F0FBC11BC0EA89E0370C
:1040A00009F4A3C0E13744F4EC3669F1EF3671F05E
:1040B000E93609F0EDC16FC0FA89F53709F49DC002
:1040C000F83739F0F33709F0E3C134C028E0298B21
:1040D00094C030E1398B91C080E190E0A82AB92AE0
:1040E000E0E2F0E0AE2ABF2AF1C120E830E00DC0E6
:1040F00080E490E0A82AB92AE9C1E8E0F0E0AE2A1D
:10410000BF2A1D86E3C124E030E0A22AB32ADEC123
:104110004FE3C42E3E8531503E8783E68A8B44C1EF
:10412000F201C080FE85F150FE8722E030E0420EB1
:10413000531E3AC1F201C080D180892B49F0FD8520
:104140006F2F772767FD7095C6010E94AC2219C0BA
:10415000F60101900020E9F73197EC19E98B12C0C4
:10416000F201C080D180892B49F0FD856F2F772720
:1041700067FD7095C6010E94A12203C0C6010E947E
:104180009822898B22E030E0420E531E3E858989B9
:10419000381B3E8709C1A2FE08C0F20180819181CF
:1041A000A281B38124E030E009C0F20180819181D5
:1041B000AA2797FDA095BA2F22E030E0420E531EA9
:1041C0006C017D01B7FF0CC082E090E0A82AB92AFB
:1041D000F094E094D094C094C11CD11CE11CF11C5B
:1041E000EFEBFFEFAE22BF2221C020E430E0A22A95
:1041F000B32A38E73A8B80E1898BA2FE08C0F2012E
:1042000080819181A281B38124E030E007C0F20176
:1042100080819181AA27BB2722E030E0420E531E05
:104220006C017D018FEC9FEFA822B92287017601F6
:10423000FE013196F88BEF87F9896F2E7724882459
:104240009924C801B701A40193010E9436236A3062
:1042500024F02A89620F615201C0605DEF85F88900
:104260006193F88BEF87C801B701A40193010E9405
:10427000362379018A01211531054105510509F7D8
:10428000CC24DD247601CE010196CF84C81AC50165
:1042900082739070892B19F0FE85F150FE87A6FE7F
:1042A00009C02989203111F482E001C081E03E85F6
:1042B000381B3E8738E0832E912C8A209B20A3FE5A
:1042C0001BC08D85282F332727FD30958C2D9927EE
:1042D0008217930754F0E7EFFFEFAE22BF2228E0EA
:1042E000822E912C8A209B2007C0FD85FC19FD871A
:1042F0002E852F1B2E8703C03E853C193E87C501A6
:1043000080789170892B69F48E8506C0B10180E2B6
:1043100090E00E94B722812F182F11501816B4F385
:104320001E87A1FE04C0B1018DE290E00BC0A4FE87
:1043300004C0B1018BE290E005C0A5FE05C0B1014B
:1043400080E290E00E94B722A6FE10C0B10180E397
:1043500090E00E94B7228989803141F4B101EA8955
:104360008E2F992787FD90950E94B722B0FE0DC031
:104370008E8506C0B10180E390E00E94B722812FB4
:10438000182F11501816B4F31E87892869F02D854F
:1043900006C0B10180E390E00E94B722212F122FC6
:1043A00011501216B4F31D8790E8692E712C6A2003
:1043B0007B20A7FC0DC08E8506C0B10180E290E095
:1043C0000E94B722812F182F11501816B4F31E87A0
:1043D000FA89F33641F4B1018C2D992787FD909528
:1043E0000E94B72245C02A892337B1F446015601FD
:1043F000198909C0F50181915F01B101992787FDF4
:1044000090950E94B7221150A8F76401F989CF0E48
:10441000D11C2FEF298B2CC03A89333519F00F8529
:1044200018891FC046018601B98808C0F801849127
:10443000B10199270E94B7220F5F1F4FBA94FFEF77
:10444000BF16A1F764012989C20ED11CF98B10C0D7
:10445000F80182918F01B101992787FD90950E9403
:10446000B722CE0101960817190791F7188B0F870D
:104470006728B1F08E8506C0B10180E290E00E940D
:10448000B722812F182F11501816B4F31E8708C0B9
:10449000B101FA898F2F992787FD90950E94B72245
:1044A000AA24BB2413C02A89253241F43AE0398B6F
:1044B0001E861D8681E0A82EB12C08C0B101EA89B4
:1044C0008E2F992787FD90950E94B7222B893C89D2
:1044D0002F5F3F4F3C8B2B8BF101838183FF04C007
:1044E000EB89FC89F49103C0EB89FC89F081FA8B9C
:1044F0002A89222309F07ECDF10186819781649675
:104500000FB6F894DEBF0FBECDBFDF91CF911F91E4
:104510000F91FF90EF90DF90CF90BF90AF909F9062
:104520008F907F906F905F904F903F902F90089565
:10453000FC0105900020E9F7809590958E0F9F1F54
:104540000895FC010590615070400110D8F78095E6
:1045500090958E0F9F1F0895FC016150704001904F
:104560000110D8F7809590958E0F9F1F08950F9397
:104570001F93CF93DF938C01EB018B81992781FFF0
:104580001BC082FF0DC02E813F818C819D81281729
:10459000390764F4E881F9810193F983E88306C05F
:1045A000E885F985802F0995892B31F48E819F81CB
:1045B00001969F838E8302C00FEF1FEFC801DF912A
:1045C000CF911F910F910895629FD001739FF001C9
:1045D000829FE00DF11D649FE00DF11D929FF00D93
:1045E000839FF00D749FF00D659FF00D9927729FCA
:1045F000B00DE11DF91F639FB00DE11DF91FBD0155
:10460000CF0111240895991B79E004C0991F9617D2
:1046100008F0961B881F7A95C9F780950895AA1B04
:10462000BB1B51E107C0AA1FBB1FA617B70710F09D
:10463000A61BB70B881F991F5A95A9F780959095CF
:10464000BC01CD01089597FB092E07260AD077FDFE
:1046500004D0E5DF06D000201AF4709561957F4FF5
:104660000895F6F7909581959F4F0895A1E21A2E2F
:10467000AA1BBB1BFD010DC0AA1FBB1FEE1FFF1F06
:10468000A217B307E407F50720F0A21BB30BE40B56
:10469000F50B661F771F881F991F1A9469F760959D
:1046A0007095809590959B01AC01BD01CF01089557
:0246B000FFCF3A
:1046B200544849525544414E00564956454B2121D2
:1046C20021004445544543544544004F4E203A206E
:1046D200004F46463A200057524F4E472054494D0C
:1046E20045212100253032780032302530327800E1
:1046F20054494D45003A00410050004441544500A0
:1047020057524F4E472054494D450057524F4E473E
:104712002044415445003132003030003031003203
:104722003030300025782D253032782D2530327802
:104732000025783A253032782025630048204F2022
:104742004D20450025642E25303264002564252540
:104752000000000000000080382424E40000E03C57
:10476200C0703CC00080C070587CC00000FC44C4D3
:10477200B8000404FC0404040000000000FC202033
:1047820020FC00F088040404847800E03CC0703C03
:10479200C00000FC242424000000000000000000EF
:1047A2000000000000000000000000010101010003
:1047B2000000010001000001000100000080C1E0D2
:1047C200E0C18000010000000100000000000000C4
:1047D2000001000000010000018181C1C0C080C150
:1047E200C041C0C001000001010101000000000041
:1047F20000000000000000000000000000000000B7
:1048020000000000000000000000000000001098FE
:10481200DCFEFFFFFFFFFEDC98100000000000003E
:10482200000000C0E0E03038180C0E06030301005F
:104832000001010303000F1F3830E0E0C000000058
:1048420000000000000000000000000000E0E0E0C6
:10485200E0E0E0E0E0E0E0E0E0E0E0E0E0E0E0E056
:10486200E2E3E3E3E3E3FFFFFFFFE3E3E3E3E3E2A8
:10487200E0E0E0E0E0E0E0E0E3E3FFFF0000FCFC7A
:10488200FCFCFC007C7C7C7C7C7C7C00FFFFE3E30A
:10489200E0E0E0E0E0E0E0E0E0E0E0E00000000096
:1048A20000FFFFFFFFFFFFFFFFFFFFFFFFFFFFFF15
:1048B200FFFFFFFFFDFDFD7D7939110101010101BE
:1048C20003030387FFFFFFFFFFFFFFFFFFE7C7C3EE
:1048D20080989F9F9F1F3F3C3C3C3C3C7C7C7C7C67
:1048E2007FFFFFFFFFFFFFFFFFFFFFFFFFFFFFFF56
:1048F2000000000000070707070707070707070769
:104902000707030303030101010000000000000088
:104912000000000004060707070707070707070745
:10492200070707070707070707070707070606001E
:104932000000000000000001010707070707070742
:10494200070707070000000000FFFFFFFFFFFFFF50
:10495200FFFFFFFFFFFFFFFFFFFFFFFFFFFFFFFF65
:10496200FF000000000000002F0000000700070009
:10497200147F147F14242A7F2A12C4C810264636B4
:10498200495522500005030000001C22410000414D
:10499200221C0014083E081408083E0808000050B3
:1049A2003000101010101000606000002010080489
:1049B200023E5149453E00427F4000426151494614
:1049C2002141454B311814127F1027454545393C8A
:1049D2004A494930017109050336494949360649B0
:1049E20049291E00363600000056360000081422FF
:1049F2004100141414141400412214080201510934
:104A020006324959513E7E0A0A0A7E427E4A4A7657
:104A12007E62626222427E4224187E6A6A6A287E2E
:104A22000A0A0A0A3C424A6A3A7E0808083E00001C
:104A32007E0000604040407E7E081422407E40405E
:104A420040407E027E023E7E0202023E3C424242E2
:104A52003C7E6A0A0A0E3C4252225C7E0A0A1A6EA6
:104A62006E6A6A6A7A02023E02027E6060603E1EDE
:104A72002040201E7E607E603E62140814620E0892
:104A820078080E7A6A6A6A2E007F414100552A55DB
:104A92002A55552A552A550041417F000402010238
:104AA2000440404040400001020400221418244205
:104AB200102060180648414C4C000053544F524598
:104AC200004B5443484E00424544524D0044494E27
:104AD200494E00454E544E430000000000000000C5
:104AE20000000000000000000000000000000000C4
:104AF20000000000000000000000000000000000B4
:104B020000000000000000000000000000000000A3
:104B120000000000005456000000000046524447C6
:104B2200450000574D43484E00004143000000003D
:104B3200005455424531000046414E3100000054B8
:104B42005542453200005455424533000046414E1D
:104B52003200000046414E33000000000000000019
:104B62000000000000000000000000000000000043
:104B72000000000000000000000000000000000033
:104B82000000000000000000000000000000000023
:104B92000000000000000000000000000000000013
:104BA2000054454D5000000000000033300000006A
:104BB20000000000004C4947485400000000003546
:104BC200300000000000000000505245535355527F
:104BD20045000034300000000000000000474C4156
:104BE20053530000000000363000000000000000B7
:104BF20000141E5A285649455720535441545553C0
:104C0200000000004354524C2050414E454C0000DD
:104C12000000005343484544554C455200000000F3
:104C2200000054494D452053455400000000000047
:104C320000524F4F4D205345540000000000000029
:104C4200535749544348205345540000000000463E
:104C52004C540000000000000046414E00000000DD
:104C6200000000424C4200000000000000545620A8
:104C7200000000000000004143200000000000008E
:104C82000048545200000000000000AFFFFFFEA3E6
:104C9200F54183412FFFFE2255FF55000000000021
:104CA2000000000000000000000000000000000002
:104CB20000000000000000000000000000000000F2
:104CC20000000000000000000000000000000000E2
:104CD200000000000000000000000031303A3130D6
:104CE20020410031302D31302D3230303700202D2F
:104CF2005F004142433144454632474849334A4BBB
:104D02004C344D4E4F3550515236535455375657F9
:104D12005838595A393053004D0054005700540046
:0E4D220046005300FFFF7E3C18183C7EFFFF4A
:00000001FF
