:100000000C9433000C9450000C9450000C9450004D
:100010000C9450000C9450000C9450000C94500020
:100020000C9450000C9450000C9450000C94500010
:100030000C9450000C9475070C9450000C942D07F0
:100040000C9450000C9450000C9450000C945000F0
:100050000C94500030313233343536373839414220
:1000600043444546000011241FBECFE5D8E0DEBF63
:10007000CDBF10E0A0E6B0E0E6E7F0E102C00590F9
:100080000D92A036B107D9F710E0A0E6B0E001C0AC
:100090001D92A83FB107E1F70E94C5070C943A08EA
:1000A0000C940000CF93DF93CDB7DEB726970FB641
:1000B000F894DEBF0FBECDBF9A8389837C836B83A8
:1000C0005E834D83E981FA818B819C81918380835A
:1000D000E981FA818D819E8193838283E981FA810E
:1000E00017821682E981FA811582148226960FB64C
:1000F000F894DEBF0FBECDBFDF91CF910895CF93AF
:10010000DF93CDB7DEB723970FB6F894DEBF0FBEEF
:10011000CDBF9B838A831982EA81FB81848195818B
:100120000097C9F1EA81FB8120813181EA81FB815D
:1001300086819781F901E80FF91F80818983EA811F
:10014000FB81868197810196EA81FB819783868373
:10015000EA81FB8126813781EA81FB81828193815B
:100160002817390778F0EA81FB8186819781EA8137
:10017000FB8122813381B9010E940408EA81FB815D
:1001800097838683EA81FB81848195810197EA8147
:10019000FB81958384838981992723960FB6F894F0
:1001A000DEBF0FBECDBFDF91CF910895CF93DF9318
:1001B000CDB7DEB724970FB6F894DEBF0FBECDBF24
:1001C0009A8389837C836B83E981FA8124813581D9
:1001D0008B819C8182179307A8F5E981FA8126819A
:1001E00037818B819C81820F931FE981FA819783EC
:1001F0008683E981FA8126813781E981FA818281CA
:1002000093812817390778F0E981FA8186819781EF
:10021000E981FA8122813381B9010E940408E981D0
:10022000FA8197838683E981FA81248135818B81E4
:100230009C81A901481B590BCA01E981FA81958368
:10024000848304C0E981FA811582148224960FB652
:10025000F894DEBF0FBECDBFDF91CF9108950F930D
:100260001F93CF93DF93CDB7DEB724970FB6F894E3
:10027000DEBF0FBECDBF9A8389837C836B83E98108
:10028000FA8100811181E981FA81268137818B8190
:100290009C81820F931FE981FA8122813381B90108
:1002A0000E940408F801E80FF91F8081992724961D
:1002B0000FB6F894DEBF0FBECDBFDF91CF911F9177
:1002C0000F9108950F931F93CF93DF93CDB7DEB7B0
:1002D00025970FB6F894DEBF0FBECDBF9A838983F2
:1002E0006B83E981FA8124813581E981FA818281F8
:1002F00093812817390740F5E981FA81008111813E
:10030000E981FA8126813781E981FA8184819581A9
:10031000820F931FE981FA8122813381B9010E9402
:100320000408F801E80FF91F8B818083E981FA81C5
:10033000848195810196E981FA81958384838FEF89
:1003400090E09D838C8302C01D821C828C819D81E4
:1003500025960FB6F894DEBF0FBECDBFDF91CF91CB
:100360001F910F910895CF93DF93CDB7DEB72497F8
:100370000FB6F894DEBF0FBECDBF9A838983E981A3
:10038000FA8124813581E981FA81828193811C82FD
:100390001B822817390720F481E090E09C838B832F
:1003A0008B819C8124960FB6F894DEBF0FBECDBF23
:1003B000DF91CF910895CF93DF93CDB7DEB722972A
:1003C0000FB6F894DEBF0FBECDBF9A838983E98153
:1003D000FA811582148222960FB6F894DEBF0FBE02
:1003E000CDBFDF91CF910895CF93DF93CDB7DEB727
:1003F00022970FB6F894DEBF0FBECDBF9A838983D4
:1004000089819A81909361008093600022960FB653
:10041000F894DEBF0FBECDBFDF91CF910895CF938B
:10042000DF93CDB7DEB721970FB6F894DEBF0FBECE
:10043000CDBF8983E0916000F091610089810995C9
:1004400021960FB6F894DEBF0FBECDBFDF91CF91DE
:100450000895CF93DF93CDB7DEB722970FB6F89408
:10046000DEBF0FBECDBF9A83898389819A810097B1
:1004700089F00BC0E981FA81208189819A810196F6
:100480009A838983822F0E940F02E981FA818081F9
:10049000882381F722960FB6F894DEBF0FBECDBF3A
:1004A000DF91CF910895CF93DF93CDB7DEB72A9731
:1004B0000FB6F894DEBF0FBECDBF9A8389837C83CD
:1004C0006B835E834D8318861F8289819A81009792
:1004D00009F449C02F81388519868B819C812817A2
:1004E000390710F481E089878F8198850196988774
:1004F0008F8381E099858927882391F4E981FA81A6
:1005000080818A878A85882311F091E09A878A857D
:1005100029813A812F5F3F4F3A8329838823D1F67F
:1005200018861F8219C0E981FA818081882361F0D1
:10053000E981FA81208189819A8101969A83898350
:10054000822F0E940F0203C080E20E940F028F815F
:100550009885019698878F832F8138858D819E811C
:100560002817390700F32A960FB6F894DEBF0FBE9E
:10057000CDBFDF91CF910895CF93DF93CDB7DEB795
:1005800026970FB6F894DEBF0FBECDBF9D838C8338
:100590008C819D810097B1F003C08E810E940F0273
:1005A0008C819D819B838A838C819D8101969D8313
:1005B0008C83EA81FB818491898389818E838E81FA
:1005C000882359F726960FB6F894DEBF0FBECDBF2D
:1005D000DF91CF910895CF93DF93CDB7DEB78DE054
:1005E0000E940F028AE00E940F02DF91CF910895CE
:1005F000CF93DF93CDB7DEB724970FB6F894DEBF65
:100600000FBECDBF8C838C8199278F7090708C5AD0
:100610009F4F9B838A83EA81FB81849189838981AF
:100620000E940F0224960FB6F894DEBF0FBECDBF16
:10063000DF91CF910895CF93DF93CDB7DEB72197A8
:100640000FB6F894DEBF0FBECDBF89838981829536
:100650008F700E94F80289810E94F80221960FB6DD
:10066000F894DEBF0FBECDBFDF91CF910895CF9339
:10067000DF93CDB7DEB722970FB6F894DEBF0FBE7B
:10068000CDBF9A83898389819A81892F99270E9476
:100690001B0389810E941B0322960FB6F894DEBFCC
:1006A0000FBECDBFDF91CF910895CF93DF93CDB72C
:1006B000DEB724970FB6F894DEBF0FBECDBF6983B7
:1006C0007A838B839C8389819A81AB81BC81CD01A4
:1006D000AA27BB270E94370389819A810E9437038A
:1006E00024960FB6F894DEBF0FBECDBFDF91CF9139
:1006F0000895EF92FF920F931F93CF93DF93CDB79F
:10070000DEB7E6970FB6F894DEBF0FBECDBF8EA75B
:100710006FA748AB29ABEAAAFBAA0CAB1DAB88A913
:100720008823B1F08AA99BA9ACA9BDA9BB2384F4F5
:100730008AA99BA9ACA9BDA9B095A09590958195D2
:100740009F4FAF4FBF4F88879987AA87BB8708C045
:100750008AA99BA9ACA9BDA988879987AA87BB87C5
:1007600088A98EAB8EA9882311F081E08EAB9EA95B
:100770008FA5891B81508F83CE010E9680969D8711
:100780008C878C859D8501979D878C87EC85FD8561
:1007900010828C859D8501979D878C878EA5282F3B
:1007A00033274427552788859985AA85BB85BC01B1
:1007B000CD010E941808DC01CB018C5A9F4F9E830B
:1007C0008D83ED81FE8184918C838C81EC85FD8508
:1007D00080838EA5282F3327442755278885998520
:1007E000AA85BB85BC01CD010E941808DA01C901A8
:1007F00088879987AA87BB8745C088859985AA85F8
:10080000BB850097A105B105A1F18C859D85019758
:100810009D878C878EA5282F3327442755278885C9
:100820009985AA85BB85BC01CD010E941808DC0111
:10083000CB018C5A9F4F9B838A83EA81FB818491F1
:1008400089838981EC85FD8580838EA5282F3327B8
:100850004427552788859985AA85BB85BC01CD018C
:100860000E941808DA01C90188879987AA87BB877F
:1008700009C08C859D8501979D878C87EC85FD85BA
:1008800089A980838F8181508F838F818F3F09F069
:10089000B4CF88A9882361F18AA99BA9ACA9BDA975
:1008A000BB2354F48C859D8501979D878C87EC85AF
:1008B000FD858DE280831CC08AA99BA9ACA9BDA936
:1008C000181619061A061B0654F48C859D85019787
:1008D0009D878C87EC85FD858BE2808309C08C85A4
:1008E0009D8501979D878C87EC85FD8580E28083BF
:1008F0008FA58F830BC0EC85FD8520818C859D8520
:1009000001969D878C87822F0E940F028F818150D4
:100910008F838F818F3F79F7E6960FB6F894DEBF0D
:100920000FBECDBFDF91CF911F910F91FF90EF9040
:100930000895CF93DF93CDB7DEB768970FB6F894DD
:10094000DEBF0FBECDBFCE0180969A8B898B0BC0C8
:100950008889882329F480E090E0988F8F8BD4C019
:1009600088890E940F028D8D882381F08E8D9F8D46
:10097000998788878E8D9F8D01969F8F8E8FE885B2
:10098000F98584918F838F818E8B09C0EE8DFF8DC9
:10099000E081EE8B8E8D9F8D01969F8F8E8F2E899D
:1009A000288B88898532A1F68D8D882381F08E8DE4
:1009B0009F8D9E838D838E8D9F8D01969F8F8E8FB1
:1009C000ED81FE8184918C838C818D8B09C0EE8DAD
:1009D000FF8DE081ED8B8E8D9F8D01969F8F8E8F89
:1009E0003D89388B8889282F33273C8B2B8B8B892B
:1009F0009C8984369105C9F02B893C8928373105BB
:100A0000E9F08B899C898336910509F00AC0298910
:100A10003A89C90102969A8B898BF901808191816B
:100A2000888B88890E940F029ECF8AE090E09B8786
:100A30008A8780E197E29D878C8708C080E190E0FB
:100A40009B878A8780E190E09D878C8729893A89F6
:100A5000C90102969A8B898BF901808191819F87C8
:100A60008E878889843629F58E859F859923ACF4F5
:100A70008E859F85909581959F4F9F878E878DE26C
:100A80000E940F020AC08C859D852AE030E0B901E2
:100A90000E940408CB019D878C878C859D858230C0
:100AA000910538F02C853D858E859F8582179307AB
:100AB00050F38E859F852C853D85B9010E940408E1
:100AC000CB018C5A9F4F9B838A83EA81FB8184915F
:100AD000898389810E940F028E859F852C853D85A3
:100AE000B9010E9404089F878E878C859D852A8581
:100AF0003B85B9010E940408CB019D878C878C85BA
:100B00009D850097B1F62FCF8F89988D68960FB687
:100B1000F894DEBF0FBECDBFDF91CF910895CF9384
:100B2000DF93CDB7DEB70E94B0051092E3001092BC
:100B3000E200EAE2F0E088ED808360E875E280E0C0
:100B400090E00E94E6058FEF8093E4001092ED00A4
:100B50001092F7001092F6007894DF91CF910895EB
:100B6000CF93DF93CDB7DEB782E690E025EE30E09D
:100B700040E450E0BC01C9010E94520082EA90E0CA
:100B80002EEE30E040E450E0BC01C9010E9452006A
:100B9000DF91CF910895CF93DF93CDB7DEB7229742
:100BA0000FB6F894DEBF0FBECDBF9A8389838981CB
:100BB0009A819093E3008093E20022960FB6F89416
:100BC000DEBF0FBECDBFDF91CF910895EF92FF92B0
:100BD0000F931F93CF93DF93CDB7DEB726970FB652
:100BE000F894DEBF0FBECDBF6B837C838D839E8365
:100BF0008B819C81AD81BE81880F991FAA1FBB1F6D
:100C0000880F991FAA1FBB1F880F991FAA1FBB1F00
:100C10000F2EF0E4EF2EF2E4FF2EFFE00F2FF0E0B6
:100C20001F2FF02DE80EF91E0A1F1B1F8B819C81C0
:100C3000AD81BE81880F991FAA1FBB1F880F991F06
:100C4000AA1FBB1F880F991FAA1FBB1F880F991FC0
:100C5000AA1FBB1F9C01AD01C801B7010E94180863
:100C6000DA01C90101979A838983E9E2F0E0898179
:100C70008083E0E4F0E089819A81892F992780833D
:100C800026960FB6F894DEBF0FBECDBFDF91CF9191
:100C90001F910F91FF90EF900895CF93DF93CDB701
:100CA000DEB785EE90E0DF91CF910895CF93DF938B
:100CB000CDB7DEB78EEE90E0DF91CF910895CF9360
:100CC000DF93CDB7DEB721970FB6F894DEBF0FBE26
:100CD000CDBF89838091E4008823E1F3ECE2F0E06A
:100CE000898180831092E40021960FB6F894DEBFCC
:100CF0000FBECDBFDF91CF910895CF93DF93CDB7D6
:100D0000DEB723970FB6F894DEBF0FBECDBFCE017E
:100D100001960E94A206882331F08981282F33276B
:100D20003B832A8304C08FEF9FEF9B838A838A8152
:100D30009B8123960FB6F894DEBF0FBECDBFDF9127
:100D4000CF910895CF93DF93CDB7DEB724970FB639
:100D5000F894DEBF0FBECDBF9A8389838091E700F0
:100D60009091E8000097A9F08091E9009091EA0045
:100D7000009761F085EE90E00E947F00E981FA81A2
:100D800080838FEF90E09C838B8305C01C821B8245
:100D900002C01C821B828B819C8124960FB6F89422
:100DA000DEBF0FBECDBFDF91CF910895CF93DF930C
:100DB000CDB7DEB71092EA001092E900DF91CF9133
:100DC0000895CF93DF93CDB7DEB722970FB6F8948F
:100DD000DEBF0FBECDBF8091E9009091EA00009781
:100DE00029F48FEF90E09A83898302C01A821982D6
:100DF00089819A8122960FB6F894DEBF0FBECDBFCF
:100E0000DF91CF910895CF93DF93CDB7DEB72197D0
:100E10000FB6F894DEBF0FBECDBF89838EEE90E093
:100E200069810E946201992721960FB6F894DEBF6E
:100E30000FBECDBFDF91CF910895CF93DF93CDB794
:100E4000DEB78FEF8093ED008EEE90E00E947F0082
:100E50000E945F06DF91CF9108951F920F920FB607
:100E60000F9211240F931F932F933F934F935F93F0
:100E70006F937F938F939F93AF93BF93EF93FF9362
:100E8000CF93DF93CDB7DEB78091ED008823A9F033
:100E90008091F2009091F300009749F00CE210E08D
:100EA0008EEE90E00E947F00F801808309C01092CE
:100EB000ED008FEF8093E40003C08FEF8093E40098
:100EC000DF91CF91FF91EF91BF91AF919F918F9162
:100ED0007F916F915F914F913F912F911F910F9152
:100EE0000F900FBE0F901F9018951F920F920FB684
:100EF0000F9211242F933F934F935F936F937F93A0
:100F00008F939F93AF93BF93EF93FF93CF93DF9311
:100F1000CDB7DEB72197DEBFCDBFECE2F0E0808138
:100F200089838091E2009091E300009739F0E0918D
:100F3000E200F091E3008981099510C085EE90E010
:100F400069810E946201882349F48091F6009091A2
:100F5000F70001969093F7008093F6002196F8949D
:100F6000DEBFCDBFDF91CF91FF91EF91BF91AF91E8
:100F70009F918F917F916F915F914F913F912F91B1
:100F80000F900FBE0F901F901895CF93DF93CDB7A2
:100F9000DEB726970FB6F894DEBF0FBECDBF1E8218
:100FA0001D8285E58A838AEA89830E948F058FE501
:100FB00096E00E94F40160E679E080E090E00E9413
:100FC000E6058A810E945F061C821B8205C08B8118
:100FD0009C8101969C838B838B819C812EE4803243
:100FE0009207A8F389810E945F061C821B8205C0BC
:100FF0008B819C8101969C838B838B819C812EE4C9
:1010000080329207A8F3DDCFAA1BBB1B51E107C0BA
:10101000AA1FBB1FA617B70710F0A61BB70B881F88
:10102000991F5A95A9F780959095BC01CD01089517
:10103000A1E21A2EAA1BBB1BFD010DC0AA1FBB1FDC
:10104000EE1FFF1FA217B307E407F50720F0A21B4E
:10105000B30BE40BF50B661F771F881F991F1A94BB
:1010600069F760957095809590959B01AC01BD01E5
:06107000CF010895FFCF3F
:00000001FF
